{
  "contractName": "DecentralizedPools",
  "abi": [
    {
      "inputs": [],
      "stateMutability": "nonpayable",
      "type": "constructor"
    },
    {
      "anonymous": false,
      "inputs": [
        {
          "indexed": false,
          "internalType": "uint256",
          "name": "dpId",
          "type": "uint256"
        },
        {
          "indexed": false,
          "internalType": "address",
          "name": "sender",
          "type": "address"
        },
        {
          "indexed": false,
          "internalType": "address[]",
          "name": "recipients",
          "type": "address[]"
        },
        {
          "indexed": false,
          "internalType": "uint256",
          "name": "deposit",
          "type": "uint256"
        },
        {
          "indexed": false,
          "internalType": "address",
          "name": "tokenAddress",
          "type": "address"
        },
        {
          "indexed": false,
          "internalType": "uint256",
          "name": "startTime",
          "type": "uint256"
        },
        {
          "indexed": false,
          "internalType": "uint256",
          "name": "stopTime",
          "type": "uint256"
        },
        {
          "indexed": false,
          "internalType": "uint256",
          "name": "vType",
          "type": "uint256"
        }
      ],
      "name": "CreateDPool",
      "type": "event"
    },
    {
      "anonymous": false,
      "inputs": [
        {
          "indexed": false,
          "internalType": "uint256",
          "name": "dpId",
          "type": "uint256"
        },
        {
          "indexed": false,
          "internalType": "address",
          "name": "sender",
          "type": "address"
        },
        {
          "indexed": false,
          "internalType": "address[]",
          "name": "recipients",
          "type": "address[]"
        },
        {
          "indexed": false,
          "internalType": "uint256",
          "name": "dPoolBalance",
          "type": "uint256"
        }
      ],
      "name": "DeleteDPool",
      "type": "event"
    },
    {
      "anonymous": false,
      "inputs": [
        {
          "indexed": false,
          "internalType": "uint256",
          "name": "dpId",
          "type": "uint256"
        },
        {
          "indexed": false,
          "internalType": "address",
          "name": "sender",
          "type": "address"
        },
        {
          "indexed": false,
          "internalType": "address",
          "name": "recipient",
          "type": "address"
        },
        {
          "indexed": false,
          "internalType": "uint256",
          "name": "dPoolBalance",
          "type": "uint256"
        }
      ],
      "name": "DeleteRecipientsFromDPool",
      "type": "event"
    },
    {
      "anonymous": false,
      "inputs": [
        {
          "indexed": false,
          "internalType": "string",
          "name": "txt",
          "type": "string"
        },
        {
          "indexed": false,
          "internalType": "address",
          "name": "sender",
          "type": "address"
        },
        {
          "indexed": false,
          "internalType": "address",
          "name": "spender",
          "type": "address"
        },
        {
          "indexed": false,
          "internalType": "uint256",
          "name": "l",
          "type": "uint256"
        }
      ],
      "name": "Logger",
      "type": "event"
    },
    {
      "anonymous": false,
      "inputs": [
        {
          "indexed": false,
          "internalType": "uint256",
          "name": "dpId",
          "type": "uint256"
        },
        {
          "indexed": false,
          "internalType": "address",
          "name": "receiver",
          "type": "address"
        },
        {
          "indexed": false,
          "internalType": "uint256",
          "name": "amount",
          "type": "uint256"
        },
        {
          "indexed": false,
          "internalType": "uint256",
          "name": "remainingBalance",
          "type": "uint256"
        }
      ],
      "name": "WithdrawFromDPool",
      "type": "event"
    },
    {
      "stateMutability": "payable",
      "type": "fallback",
      "payable": true
    },
    {
      "inputs": [],
      "name": "owner",
      "outputs": [
        {
          "internalType": "address",
          "name": "",
          "type": "address"
        }
      ],
      "stateMutability": "view",
      "type": "function",
      "constant": true
    },
    {
      "stateMutability": "payable",
      "type": "receive",
      "payable": true
    },
    {
      "inputs": [],
      "name": "getDPoolsCount",
      "outputs": [
        {
          "internalType": "uint256",
          "name": "",
          "type": "uint256"
        }
      ],
      "stateMutability": "view",
      "type": "function",
      "constant": true
    },
    {
      "inputs": [
        {
          "internalType": "uint256",
          "name": "index",
          "type": "uint256"
        }
      ],
      "name": "getDPool",
      "outputs": [
        {
          "internalType": "uint256",
          "name": "",
          "type": "uint256"
        },
        {
          "internalType": "string",
          "name": "",
          "type": "string"
        },
        {
          "internalType": "address",
          "name": "",
          "type": "address"
        },
        {
          "internalType": "address[]",
          "name": "",
          "type": "address[]"
        },
        {
          "internalType": "uint256",
          "name": "",
          "type": "uint256"
        },
        {
          "internalType": "uint256",
          "name": "",
          "type": "uint256"
        },
        {
          "internalType": "uint256",
          "name": "",
          "type": "uint256"
        },
        {
          "internalType": "address",
          "name": "",
          "type": "address"
        },
        {
          "internalType": "uint256",
          "name": "",
          "type": "uint256"
        },
        {
          "internalType": "uint256",
          "name": "",
          "type": "uint256"
        },
        {
          "internalType": "bool",
          "name": "",
          "type": "bool"
        },
        {
          "internalType": "uint256",
          "name": "",
          "type": "uint256"
        }
      ],
      "stateMutability": "view",
      "type": "function",
      "constant": true
    },
    {
      "inputs": [
        {
          "internalType": "string",
          "name": "dPoolName",
          "type": "string"
        },
        {
          "internalType": "address[]",
          "name": "recipients",
          "type": "address[]"
        },
        {
          "internalType": "uint256",
          "name": "startTime",
          "type": "uint256"
        },
        {
          "internalType": "uint256",
          "name": "stopTime",
          "type": "uint256"
        }
      ],
      "name": "createEthDPool",
      "outputs": [
        {
          "internalType": "uint256",
          "name": "",
          "type": "uint256"
        }
      ],
      "stateMutability": "payable",
      "type": "function",
      "payable": true
    },
    {
      "inputs": [
        {
          "internalType": "string",
          "name": "dPoolName",
          "type": "string"
        },
        {
          "internalType": "address[]",
          "name": "recipients",
          "type": "address[]"
        },
        {
          "internalType": "uint256",
          "name": "deposit",
          "type": "uint256"
        },
        {
          "internalType": "address payable",
          "name": "tokenAddress",
          "type": "address"
        },
        {
          "internalType": "uint256",
          "name": "startTime",
          "type": "uint256"
        },
        {
          "internalType": "uint256",
          "name": "stopTime",
          "type": "uint256"
        }
      ],
      "name": "createTokenDPool",
      "outputs": [
        {
          "internalType": "uint256",
          "name": "",
          "type": "uint256"
        }
      ],
      "stateMutability": "payable",
      "type": "function",
      "payable": true
    },
    {
      "inputs": [
        {
          "internalType": "address",
          "name": "fromSender",
          "type": "address"
        },
        {
          "internalType": "address",
          "name": "toAddress",
          "type": "address"
        },
        {
          "internalType": "address",
          "name": "tokenAddress",
          "type": "address"
        },
        {
          "internalType": "uint256",
          "name": "amount",
          "type": "uint256"
        }
      ],
      "name": "transferTokens",
      "outputs": [],
      "stateMutability": "payable",
      "type": "function",
      "payable": true
    },
    {
      "inputs": [
        {
          "internalType": "address",
          "name": "requester",
          "type": "address"
        },
        {
          "internalType": "uint256",
          "name": "amount",
          "type": "uint256"
        }
      ],
      "name": "transferEther",
      "outputs": [],
      "stateMutability": "payable",
      "type": "function",
      "payable": true
    },
    {
      "inputs": [
        {
          "internalType": "uint256",
          "name": "dpId",
          "type": "uint256"
        },
        {
          "internalType": "address",
          "name": "requester",
          "type": "address"
        }
      ],
      "name": "balanceOf",
      "outputs": [
        {
          "internalType": "uint256",
          "name": "",
          "type": "uint256"
        }
      ],
      "stateMutability": "view",
      "type": "function",
      "constant": true
    },
    {
      "inputs": [
        {
          "internalType": "uint256",
          "name": "dpId",
          "type": "uint256"
        },
        {
          "internalType": "uint256",
          "name": "amount",
          "type": "uint256"
        }
      ],
      "name": "withdrawFromDPool",
      "outputs": [
        {
          "internalType": "bool",
          "name": "",
          "type": "bool"
        }
      ],
      "stateMutability": "payable",
      "type": "function",
      "payable": true
    },
    {
      "inputs": [
        {
          "internalType": "uint256",
          "name": "dpId",
          "type": "uint256"
        }
      ],
      "name": "deleteDPool",
      "outputs": [
        {
          "internalType": "bool",
          "name": "",
          "type": "bool"
        }
      ],
      "stateMutability": "nonpayable",
      "type": "function"
    },
    {
      "inputs": [
        {
          "internalType": "uint256",
          "name": "dpId",
          "type": "uint256"
        },
        {
          "internalType": "address",
          "name": "recipient",
          "type": "address"
        }
      ],
      "name": "deleteRecipientFromDPool",
      "outputs": [
        {
          "internalType": "bool",
          "name": "",
          "type": "bool"
        }
      ],
      "stateMutability": "nonpayable",
      "type": "function"
    }
  ],
  "bytecode": "0x6080604052600160045534801561001557600080fd5b50336000806101000a81548173ffffffffffffffffffffffffffffffffffffffff021916908373ffffffffffffffffffffffffffffffffffffffff16021790555061410c806100656000396000f3fe6080604052600436106100a05760003560e01c806368155ec11161006457806368155ec1146101a55780637f6482f0146101c15780638da5cb5b146101fe578063d4cc4a5f14610229578063dfd5167014610259578063e92042ce14610296576100a7565b806305b1137b146100a957806314006d24146100c557806316825cf01461010d57806330fc51381461013d5780633656eec214610168576100a7565b366100a757005b005b6100c360048036038101906100be9190612c2c565b6102c6565b005b3480156100d157600080fd5b506100ec60048036038101906100e79190612def565b61037a565b6040516101049c9b9a99989796959493929190613c93565b60405180910390f35b61012760048036038101906101229190612c91565b6106cd565b6040516101349190613b1b565b60405180910390f35b34801561014957600080fd5b50610152610883565b60405161015f9190613b1b565b60405180910390f35b34801561017457600080fd5b5061018f600480360381019061018a9190612e41565b61091e565b60405161019c9190613b1b565b60405180910390f35b6101bf60048036038101906101ba9190612bc9565b610d5e565b005b3480156101cd57600080fd5b506101e860048036038101906101e39190612def565b610e38565b6040516101f591906137f6565b60405180910390f35b34801561020a57600080fd5b506102136113fc565b604051610220919061377b565b60405180910390f35b610243600480360381019061023e9190612e7d565b611420565b60405161025091906137f6565b60405180910390f35b34801561026557600080fd5b50610280600480360381019061027b9190612e41565b61197e565b60405161028d91906137f6565b60405180910390f35b6102b060048036038101906102ab9190612d54565b611d21565b6040516102bd9190613b1b565b60405180910390f35b6000808373ffffffffffffffffffffffffffffffffffffffff16836040516102ed90613766565b60006040518083038185875af1925050503d806000811461032a576040519150601f19603f3d011682016040523d82523d6000602084013e61032f565b606091505b509150915081610374576040517f08c379a000000000000000000000000000000000000000000000000000000000815260040161036b9061395b565b60405180910390fd5b50505050565b60006060600060606000806000806000806000806000600260003373ffffffffffffffffffffffffffffffffffffffff1673ffffffffffffffffffffffffffffffffffffffff1681526020019081526020016000208e81548110610407577f4e487b7100000000000000000000000000000000000000000000000000000000600052603260045260246000fd5b90600052602060002001549050600060016000838152602001908152602001600020604051806101800160405290816000820154815260200160018201805461044f90613f90565b80601f016020809104026020016040519081016040528092919081815260200182805461047b90613f90565b80156104c85780601f1061049d576101008083540402835291602001916104c8565b820191906000526020600020905b8154815290600101906020018083116104ab57829003601f168201915b505050505081526020016002820160009054906101000a900473ffffffffffffffffffffffffffffffffffffffff1673ffffffffffffffffffffffffffffffffffffffff1673ffffffffffffffffffffffffffffffffffffffff168152602001600382018054806020026020016040519081016040528092919081815260200182805480156105ac57602002820191906000526020600020905b8160009054906101000a900473ffffffffffffffffffffffffffffffffffffffff1673ffffffffffffffffffffffffffffffffffffffff1681526020019060010190808311610562575b505050505081526020016004820154815260200160058201548152602001600682015481526020016007820160009054906101000a900473ffffffffffffffffffffffffffffffffffffffff1673ffffffffffffffffffffffffffffffffffffffff1673ffffffffffffffffffffffffffffffffffffffff1681526020016008820154815260200160098201548152602001600a8201548152602001600b820160009054906101000a900460ff1615151515815250509050806000015181602001518260400151836060015184608001518560a001518660c001518760e001518861012001518961014001518a61016001518b61010001519d509d509d509d509d509d509d509d509d509d509d509d50505091939597999b5091939597999b565b6000868680806020026020016040519081016040528093929190818152602001838360200280828437600081840152601f19601f820116905080830192505050505050508584846000845111610758576040517f08c379a000000000000000000000000000000000000000000000000000000000815260040161074f9061391b565b60405180910390fd5b6000831161079b576040517f08c379a000000000000000000000000000000000000000000000000000000000815260040161079290613891565b60405180910390fd5b428210156107de576040517f08c379a00000000000000000000000000000000000000000000000000000000081526004016107d590613a7b565b60405180910390fd5b818111610820576040517f08c379a000000000000000000000000000000000000000000000000000000000815260040161081790613afb565b60405180910390fd5b6108718d8d8d8d6108308e611ecf565b8d8d8d60018081111561086c577f4e487b7100000000000000000000000000000000000000000000000000000000600052602160045260246000fd5b611eec565b94505050505098975050505050505050565b600080600260003373ffffffffffffffffffffffffffffffffffffffff1673ffffffffffffffffffffffffffffffffffffffff16815260200190815260200160002080548060200260200160405190810160405280929190818152602001828054801561090f57602002820191906000526020600020905b8154815260200190600101908083116108fb575b50505050509050805191505090565b60008060016000858152602001908152602001600020604051806101800160405290816000820154815260200160018201805461095a90613f90565b80601f016020809104026020016040519081016040528092919081815260200182805461098690613f90565b80156109d35780601f106109a8576101008083540402835291602001916109d3565b820191906000526020600020905b8154815290600101906020018083116109b657829003601f168201915b505050505081526020016002820160009054906101000a900473ffffffffffffffffffffffffffffffffffffffff1673ffffffffffffffffffffffffffffffffffffffff1673ffffffffffffffffffffffffffffffffffffffff16815260200160038201805480602002602001604051908101604052809291908181526020018280548015610ab757602002820191906000526020600020905b8160009054906101000a900473ffffffffffffffffffffffffffffffffffffffff1673ffffffffffffffffffffffffffffffffffffffff1681526020019060010190808311610a6d575b505050505081526020016004820154815260200160058201548152602001600682015481526020016007820160009054906101000a900473ffffffffffffffffffffffffffffffffffffffff1673ffffffffffffffffffffffffffffffffffffffff1673ffffffffffffffffffffffffffffffffffffffff1681526020016008820154815260200160098201548152602001600a8201548152602001600b820160009054906101000a900460ff16151515158152505090506000610b7a826121f0565b9050600080610b8d838560c0015161224a565b9150915081610bd1576040517f08c379a0000000000000000000000000000000000000000000000000000000008152600401610bc890613a1b565b60405180910390fd5b6000811415610be7576000945050505050610d58565b836040015173ffffffffffffffffffffffffffffffffffffffff168673ffffffffffffffffffffffffffffffffffffffff161415610c8257600080610c308660a00151846122c4565b9150915081610c74576040517f08c379a0000000000000000000000000000000000000000000000000000000008152600401610c6b90613adb565b60405180910390fd5b809650505050505050610d58565b600080610c94838760600151516122ec565b9150915081610cd8576040517f08c379a0000000000000000000000000000000000000000000000000000000008152600401610ccf906139fb565b60405180910390fd5b600360008973ffffffffffffffffffffffffffffffffffffffff1673ffffffffffffffffffffffffffffffffffffffff16815260200190815260200160002060008760000151815260200190815260200160002060009054906101000a900460ff1615610d4d57809650505050505050610d58565b600096505050505050505b92915050565b60008273ffffffffffffffffffffffffffffffffffffffff166323b872dd8686856040518463ffffffff1660e01b8152600401610d9d939291906137bf565b602060405180830381600087803b158015610db757600080fd5b505af1158015610dcb573d6000803e3d6000fd5b505050506040513d601f19601f82011682018060405250810190610def9190612c68565b905080610e31576040517f08c379a0000000000000000000000000000000000000000000000000000000008152600401610e28906139db565b60405180910390fd5b5050505050565b600080600160008481526020019081526020016000206040518061018001604052908160008201548152602001600182018054610e7490613f90565b80601f0160208091040260200160405190810160405280929190818152602001828054610ea090613f90565b8015610eed5780601f10610ec257610100808354040283529160200191610eed565b820191906000526020600020905b815481529060010190602001808311610ed057829003601f168201915b505050505081526020016002820160009054906101000a900473ffffffffffffffffffffffffffffffffffffffff1673ffffffffffffffffffffffffffffffffffffffff1673ffffffffffffffffffffffffffffffffffffffff16815260200160038201805480602002602001604051908101604052809291908181526020018280548015610fd157602002820191906000526020600020905b8160009054906101000a900473ffffffffffffffffffffffffffffffffffffffff1673ffffffffffffffffffffffffffffffffffffffff1681526020019060010190808311610f87575b505050505081526020016004820154815260200160058201548152602001600682015481526020016007820160009054906101000a900473ffffffffffffffffffffffffffffffffffffffff1673ffffffffffffffffffffffffffffffffffffffff1673ffffffffffffffffffffffffffffffffffffffff1681526020016008820154815260200160098201548152602001600a8201548152602001600b820160009054906101000a900460ff16151515158152505090508061016001516110ce576040517f08c379a00000000000000000000000000000000000000000000000000000000081526004016110c590613a3b565b60405180910390fd5b806040015173ffffffffffffffffffffffffffffffffffffffff163373ffffffffffffffffffffffffffffffffffffffff1614806111665750600360003373ffffffffffffffffffffffffffffffffffffffff1673ffffffffffffffffffffffffffffffffffffffff168152602001908152602001600020600084815260200190815260200160002060009054906101000a900460ff165b6111a5576040517f08c379a000000000000000000000000000000000000000000000000000000000815260040161119c9061397b565b60405180910390fd5b60006111b584836040015161091e565b905060008111156111d6576111d58260e001518361010001518384612349565b5b6111df826123e1565b6000600260003373ffffffffffffffffffffffffffffffffffffffff1673ffffffffffffffffffffffffffffffffffffffff168152602001908152602001600020905060008180549050141561127b57600260003373ffffffffffffffffffffffffffffffffffffffff1673ffffffffffffffffffffffffffffffffffffffff168152602001908152602001600020600061127a919061291d565b5b600160008681526020019081526020016000206000808201600090556001820160006112a7919061293e565b6002820160006101000a81549073ffffffffffffffffffffffffffffffffffffffff02191690556003820160006112de919061297e565b6004820160009055600582016000905560068201600090556007820160006101000a81549073ffffffffffffffffffffffffffffffffffffffff021916905560088201600090556009820160009055600a820160009055600b820160006101000a81549060ff02191690555050600360003373ffffffffffffffffffffffffffffffffffffffff1673ffffffffffffffffffffffffffffffffffffffff168152602001908152602001600020600086815260200190815260200160002060006101000a81549060ff02191690557faac53f188a8d770c87ec98b5328fc3545884d401b3aec76b69310e44ce09de5c8584604001518560600151856040516113e89493929190613c02565b60405180910390a160019350505050919050565b60008054906101000a900473ffffffffffffffffffffffffffffffffffffffff1681565b6000808211611464576040517f08c379a000000000000000000000000000000000000000000000000000000000815260040161145b90613851565b60405180910390fd5b600060016000858152602001908152602001600020905080600b0160009054906101000a900460ff166114cc576040517f08c379a00000000000000000000000000000000000000000000000000000000081526004016114c390613a3b565b60405180910390fd5b6000816005015411611513576040517f08c379a000000000000000000000000000000000000000000000000000000000815260040161150a90613abb565b60405180910390fd5b8060020160009054906101000a900473ffffffffffffffffffffffffffffffffffffffff1673ffffffffffffffffffffffffffffffffffffffff163373ffffffffffffffffffffffffffffffffffffffff1614806115cb5750600360003373ffffffffffffffffffffffffffffffffffffffff1673ffffffffffffffffffffffffffffffffffffffff168152602001908152602001600020600085815260200190815260200160002060009054906101000a900460ff165b61160a576040517f08c379a000000000000000000000000000000000000000000000000000000000815260040161160190613831565b60405180910390fd5b60008160070160009054906101000a900473ffffffffffffffffffffffffffffffffffffffff1673ffffffffffffffffffffffffffffffffffffffff1663dd62ed3e30336040518363ffffffff1660e01b815260040161166b929190613796565b60206040518083038186803b15801561168357600080fd5b505afa158015611697573d6000803e3d6000fd5b505050506040513d601f19601f820116820180604052508101906116bb9190612e18565b90507f8505bd1226695547d532999c85425af6ae227b5bcef6a2685211ba42b086d27c3033836040516116f0939291906138d1565b60405180910390a1600084111561170c57600092505050611978565b6000611718863361091e565b90508481101561175d576040517f08c379a00000000000000000000000000000000000000000000000000000000081526004016117549061399b565b60405180910390fd5b60008061176e8560050154886122c4565b91509150816117b2576040517f08c379a00000000000000000000000000000000000000000000000000000000081526004016117a990613a5b565b60405180910390fd5b8085600501819055506117ef8560070160009054906101000a900473ffffffffffffffffffffffffffffffffffffffff168660080154898a612349565b60008560050154141561192d5760016000898152602001908152602001600020600080820160009055600182016000611828919061293e565b6002820160006101000a81549073ffffffffffffffffffffffffffffffffffffffff021916905560038201600061185f919061297e565b6004820160009055600582016000905560068201600090556007820160006101000a81549073ffffffffffffffffffffffffffffffffffffffff021916905560088201600090556009820160009055600a820160009055600b820160006101000a81549060ff02191690555050600360003373ffffffffffffffffffffffffffffffffffffffff1673ffffffffffffffffffffffffffffffffffffffff168152602001908152602001600020600089815260200190815260200160002060006101000a81549060ff02191690555b7f8a8a39e28f42c452d33cea4d81386872966d236e3f5da3e2156efb9d69e5ad6d88338988600501546040516119669493929190613c4e565b60405180910390a16001955050505050505b92915050565b6000806001600085815260200190815260200160002060405180610180016040529081600082015481526020016001820180546119ba90613f90565b80601f01602080910402602001604051908101604052809291908181526020018280546119e690613f90565b8015611a335780601f10611a0857610100808354040283529160200191611a33565b820191906000526020600020905b815481529060010190602001808311611a1657829003601f168201915b505050505081526020016002820160009054906101000a900473ffffffffffffffffffffffffffffffffffffffff1673ffffffffffffffffffffffffffffffffffffffff1673ffffffffffffffffffffffffffffffffffffffff16815260200160038201805480602002602001604051908101604052809291908181526020018280548015611b1757602002820191906000526020600020905b8160009054906101000a900473ffffffffffffffffffffffffffffffffffffffff1673ffffffffffffffffffffffffffffffffffffffff1681526020019060010190808311611acd575b505050505081526020016004820154815260200160058201548152602001600682015481526020016007820160009054906101000a900473ffffffffffffffffffffffffffffffffffffffff1673ffffffffffffffffffffffffffffffffffffffff1673ffffffffffffffffffffffffffffffffffffffff1681526020016008820154815260200160098201548152602001600a8201548152602001600b820160009054906101000a900460ff1615151515815250509050806101600151611c14576040517f08c379a0000000000000000000000000000000000000000000000000000000008152600401611c0b90613a3b565b60405180910390fd5b600360003373ffffffffffffffffffffffffffffffffffffffff1673ffffffffffffffffffffffffffffffffffffffff168152602001908152602001600020600085815260200190815260200160002060009054906101000a900460ff16611cb1576040517f08c379a0000000000000000000000000000000000000000000000000000000008152600401611ca89061397b565b60405180910390fd5b6000611cbd858561091e565b9050611cd48260e001518361010001518384612349565b7f856004f39dc959064f79558d5a3bf9eca82ffc182f7541ad8d33032bd1b1afcc8583604001518684604051611d0d9493929190613b36565b60405180910390a160019250505092915050565b6000848480806020026020016040519081016040528093929190818152602001838360200280828437600081840152601f19601f820116905080830192505050505050503484846000845111611dac576040517f08c379a0000000000000000000000000000000000000000000000000000000008152600401611da39061391b565b60405180910390fd5b60008311611def576040517f08c379a0000000000000000000000000000000000000000000000000000000008152600401611de690613891565b60405180910390fd5b42821015611e32576040517f08c379a0000000000000000000000000000000000000000000000000000000008152600401611e2990613a7b565b60405180910390fd5b818111611e74576040517f08c379a0000000000000000000000000000000000000000000000000000000008152600401611e6b90613afb565b60405180910390fd5b611ebf8b8b8b8b3460008d8d60006001811115611eba577f4e487b7100000000000000000000000000000000000000000000000000000000600052602160045260246000fd5b611eec565b9450505050509695505050505050565b6000670de0b6b3a764000082611ee59190613e3f565b9050919050565b6000878780806020026020016040519081016040528093929190818152602001838360200280828437600081840152601f19601f8201169050808301925050505050505060005b815181101561204557611f87828281518110611f78577f4e487b7100000000000000000000000000000000000000000000000000000000600052603260045260246000fd5b6020026020010151303361247e565b600160036000848481518110611fc6577f4e487b7100000000000000000000000000000000000000000000000000000000600052603260045260246000fd5b602002602001015173ffffffffffffffffffffffffffffffffffffffff1673ffffffffffffffffffffffffffffffffffffffff1681526020019081526020016000206000600454815260200190815260200160002060006101000a81548160ff021916908315150217905550808061203d90613fc2565b915050611f33565b5060006120538887876125d1565b9050600060405180610180016040528060045481526020018e8e8080601f016020809104026020016040519081016040528093929190818152602001838380828437600081840152601f19601f8201169050808301925050505050505081526020013373ffffffffffffffffffffffffffffffffffffffff1681526020018c8c80806020026020016040519081016040528093929190818152602001838360200280828437600081840152601f19601f8201169050808301925050505050505081526020018a81526020018a81526020018381526020018973ffffffffffffffffffffffffffffffffffffffff16815260200186815260200188815260200187815260200160011515815250905061216a816126c5565b61217688868b34612885565b7ff8ad82eb99d91f7afc46e04e5f3f6ab3db8ce8f33ae8bae8c60c3b0f3d562105600454338d8d8d8d8d8d8d6040516121b799989796959493929190613b7b565b60405180910390a16001600460008282546121d29190613de9565b92505081905550806000015193505050509998505050505050505050565b600081610120015142116122075760009050612245565b81610140015142101561222c57816101200151426122259190613e99565b9050612245565b8161012001518261014001516122429190613e99565b90505b919050565b60008060008414156122635760016000915091506122bd565b60008385029050838582816122a1577f4e487b7100000000000000000000000000000000000000000000000000000000600052601260045260246000fd5b04146122b45760008092509250506122bd565b60018192509250505b9250929050565b600080838311156122db57600080915091506122e5565b6001838503915091505b9250929050565b60008060008314156123045760008091509150612342565b600183858161233c577f4e487b7100000000000000000000000000000000000000000000000000000000600052601260045260246000fd5b04915091505b9250929050565b82600180811115612383577f4e487b7100000000000000000000000000000000000000000000000000000000600052602160045260246000fd5b141561239a5761239530338685610d5e565b6123db565b600073ffffffffffffffffffffffffffffffffffffffff168473ffffffffffffffffffffffffffffffffffffffff1614156123da576123d933826102c6565b5b5b50505050565b60005b81606001515181101561247a576000612445836000015184606001518481518110612438577f4e487b7100000000000000000000000000000000000000000000000000000000600052603260045260246000fd5b602002602001015161091e565b90506000811115612466576124658360e001518461010001518384612349565b5b50808061247290613fc2565b9150506123e4565b5050565b600073ffffffffffffffffffffffffffffffffffffffff168373ffffffffffffffffffffffffffffffffffffffff1614156124ee576040517f08c379a00000000000000000000000000000000000000000000000000000000081526004016124e59061393b565b60405180910390fd5b8173ffffffffffffffffffffffffffffffffffffffff168373ffffffffffffffffffffffffffffffffffffffff16141561255d576040517f08c379a0000000000000000000000000000000000000000000000000000000008152600401612554906138b1565b60405180910390fd5b8073ffffffffffffffffffffffffffffffffffffffff168373ffffffffffffffffffffffffffffffffffffffff1614156125cc576040517f08c379a00000000000000000000000000000000000000000000000000000000081526004016125c390613811565b60405180910390fd5b505050565b60008060006125e084866122c4565b9150915081612624576040517f08c379a000000000000000000000000000000000000000000000000000000000815260040161261b90613a9b565b60405180910390fd5b808611612666576040517f08c379a000000000000000000000000000000000000000000000000000000000815260040161265d90613871565b60405180910390fd5b60008061267388846122ec565b91509150816126b7576040517f08c379a00000000000000000000000000000000000000000000000000000000081526004016126ae906139bb565b60405180910390fd5b809450505050509392505050565b80600160008360000151815260200190815260200160002060008201518160000155602082015181600101908051906020019061270392919061299f565b5060408201518160020160006101000a81548173ffffffffffffffffffffffffffffffffffffffff021916908373ffffffffffffffffffffffffffffffffffffffff1602179055506060820151816003019080519060200190612767929190612a25565b506080820151816004015560a0820151816005015560c0820151816006015560e08201518160070160006101000a81548173ffffffffffffffffffffffffffffffffffffffff021916908373ffffffffffffffffffffffffffffffffffffffff1602179055506101008201518160080155610120820151816009015561014082015181600a015561016082015181600b0160006101000a81548160ff0219169083151502179055509050506000600260003373ffffffffffffffffffffffffffffffffffffffff1673ffffffffffffffffffffffffffffffffffffffff168152602001908152602001600020905080826000015190806001815401808255809150506001900390600052602060002001600090919091909150555050565b826001808111156128bf577f4e487b7100000000000000000000000000000000000000000000000000000000600052602160045260246000fd5b14156128d6576128d133308685610d5e565b612917565b600073ffffffffffffffffffffffffffffffffffffffff168473ffffffffffffffffffffffffffffffffffffffff1614156129165761291530826102c6565b5b5b50505050565b508054600082559060005260206000209081019061293b9190612aaf565b50565b50805461294a90613f90565b6000825580601f1061295c575061297b565b601f01602090049060005260206000209081019061297a9190612aaf565b5b50565b508054600082559060005260206000209081019061299c9190612aaf565b50565b8280546129ab90613f90565b90600052602060002090601f0160209004810192826129cd5760008555612a14565b82601f106129e657805160ff1916838001178555612a14565b82800160010185558215612a14579182015b82811115612a135782518255916020019190600101906129f8565b5b509050612a219190612aaf565b5090565b828054828255906000526020600020908101928215612a9e579160200282015b82811115612a9d5782518260006101000a81548173ffffffffffffffffffffffffffffffffffffffff021916908373ffffffffffffffffffffffffffffffffffffffff16021790555091602001919060010190612a45565b5b509050612aab9190612aaf565b5090565b5b80821115612ac8576000816000905550600101612ab0565b5090565b600081359050612adb8161407a565b92915050565b600081359050612af081614091565b92915050565b60008083601f840112612b0857600080fd5b8235905067ffffffffffffffff811115612b2157600080fd5b602083019150836020820283011115612b3957600080fd5b9250929050565b600081519050612b4f816140a8565b92915050565b60008083601f840112612b6757600080fd5b8235905067ffffffffffffffff811115612b8057600080fd5b602083019150836001820283011115612b9857600080fd5b9250929050565b600081359050612bae816140bf565b92915050565b600081519050612bc3816140bf565b92915050565b60008060008060808587031215612bdf57600080fd5b6000612bed87828801612acc565b9450506020612bfe87828801612acc565b9350506040612c0f87828801612acc565b9250506060612c2087828801612b9f565b91505092959194509250565b60008060408385031215612c3f57600080fd5b6000612c4d85828601612acc565b9250506020612c5e85828601612b9f565b9150509250929050565b600060208284031215612c7a57600080fd5b6000612c8884828501612b40565b91505092915050565b60008060008060008060008060c0898b031215612cad57600080fd5b600089013567ffffffffffffffff811115612cc757600080fd5b612cd38b828c01612b55565b9850985050602089013567ffffffffffffffff811115612cf257600080fd5b612cfe8b828c01612af6565b96509650506040612d118b828c01612b9f565b9450506060612d228b828c01612ae1565b9350506080612d338b828c01612b9f565b92505060a0612d448b828c01612b9f565b9150509295985092959890939650565b60008060008060008060808789031215612d6d57600080fd5b600087013567ffffffffffffffff811115612d8757600080fd5b612d9389828a01612b55565b9650965050602087013567ffffffffffffffff811115612db257600080fd5b612dbe89828a01612af6565b94509450506040612dd189828a01612b9f565b9250506060612de289828a01612b9f565b9150509295509295509295565b600060208284031215612e0157600080fd5b6000612e0f84828501612b9f565b91505092915050565b600060208284031215612e2a57600080fd5b6000612e3884828501612bb4565b91505092915050565b60008060408385031215612e5457600080fd5b6000612e6285828601612b9f565b9250506020612e7385828601612acc565b9150509250929050565b60008060408385031215612e9057600080fd5b6000612e9e85828601612b9f565b9250506020612eaf85828601612b9f565b9150509250929050565b6000612ec58383612ee0565b60208301905092915050565b612eda81613f27565b82525050565b612ee981613ecd565b82525050565b612ef881613ecd565b82525050565b6000612f0a8385613da5565b9350612f1582613d5b565b8060005b85811015612f4e57612f2b8284613dd2565b612f358882612eb9565b9750612f4083613d8b565b925050600181019050612f19565b5085925050509392505050565b6000612f6682613d75565b612f708185613da5565b9350612f7b83613d65565b8060005b83811015612fac578151612f938882612eb9565b9750612f9e83613d98565b925050600181019050612f7f565b5085935050505092915050565b612fc281613ef1565b82525050565b6000612fd382613d80565b612fdd8185613dc1565b9350612fed818560208601613f5d565b612ff681614069565b840191505092915050565b600061300e601e83613dc1565b91507f726563697069656e742073686f756c64206e6f742062652073656e64657200006000830152602082019050919050565b600061304e602483613dc1565b91507f726563697069656e74206973206e6f74207265676973746572656420696e206460008301527f506f6f6c000000000000000000000000000000000000000000000000000000006020830152604082019050919050565b60006130b4600e83613dc1565b91507f616d6f756e74206973207a65726f0000000000000000000000000000000000006000830152602082019050919050565b60006130f4602583613dc1565b91507f6465706f736974206d7573742062652067726561746572207468616e2064757260008301527f6174696f6e0000000000000000000000000000000000000000000000000000006020830152604082019050919050565b600061315a602083613dc1565b91507f6465706f7369742073686f756c642062652067726561746572207468616e20306000830152602082019050919050565b600061319a602583613dc1565b91507f726563697069656e742073686f756c64206e6f74206265207468697320636f6e60008301527f74726163740000000000000000000000000000000000000000000000000000006020830152604082019050919050565b6000613200601883613dc1565b91507f616c6c6f77616e636520746f2073656e6420746f6b656e7300000000000000006000830152602082019050919050565b6000613240602683613dc1565b91507f74686572652073686f756c64206265206174206c65617374206f6e652072656360008301527f697069656e7400000000000000000000000000000000000000000000000000006020830152604082019050919050565b60006132a6601d83613dc1565b91507f6e6f20726563697069656e7420616464726573732070726f76696465640000006000830152602082019050919050565b60006132e6601783613dc1565b91507f657468657220636f756c64206e6f742062652073656e740000000000000000006000830152602082019050919050565b6000613326602083613dc1565b91507f64656c6574696f6e206f662064506f6f6c206973206e6f7420616c6c6f7765646000830152602082019050919050565b6000613366602483613dc1565b91507f7265717565737465642068696768657220616d6f756e74207468616e2072656d60008301527f61696e73000000000000000000000000000000000000000000000000000000006020830152604082019050919050565b60006133cc602383613dc1565b91507f6469766973696f6e20627920277a65726f27206d61792068617665206f63637560008301527f72656400000000000000000000000000000000000000000000000000000000006020830152604082019050919050565b6000613432601883613dc1565b91507f746f6b656e7320636f756c64206e6f742062652073656e7400000000000000006000830152602082019050919050565b6000613472601f83613dc1565b91507f62616c616e63654f66206469766973696f6e206e6f7420706f737369626c65006000830152602082019050919050565b60006134b2601283613dc1565b91507f64656c7461202a207261746520697373756500000000000000000000000000006000830152602082019050919050565b60006134f2600083613db6565b9150600082019050919050565b600061350c601483613dc1565b91507f44506f6f6c20646f6573206e6f742065786973740000000000000000000000006000830152602082019050919050565b600061354c602583613dc1565b91507f72656d61696e67696e672062616c616e63652063616c63756c6174696f6e206660008301527f61696c65640000000000000000000000000000000000000000000000000000006020830152604082019050919050565b60006135b2602a83613dc1565b91507f73746172742074696d652073686f756c6420626520616674657220626c6f636b60008301527f2e74696d657374616d70000000000000000000000000000000000000000000006020830152604082019050919050565b6000613618602283613dc1565b91507f73746f7054696d652069732067726561746572207468616e207374617274546960008301527f6d650000000000000000000000000000000000000000000000000000000000006020830152604082019050919050565b600061367e601d83613dc1565b91507f6e6f2072656d61696e696e672062616c616e636520696e2064506f6f6c0000006000830152602082019050919050565b60006136be601c83613dc1565b91507f62616c616e63654f6620737562737472616374696f6e206973737565000000006000830152602082019050919050565b60006136fe602983613dc1565b91507f73746f7054696d652073686f756c642062652067726561746572207468616e2060008301527f737461727454696d6500000000000000000000000000000000000000000000006020830152604082019050919050565b61376081613f1d565b82525050565b6000613771826134e5565b9150819050919050565b60006020820190506137906000830184612eef565b92915050565b60006040820190506137ab6000830185612eef565b6137b86020830184612eef565b9392505050565b60006060820190506137d46000830186612eef565b6137e16020830185612eef565b6137ee6040830184613757565b949350505050565b600060208201905061380b6000830184612fb9565b92915050565b6000602082019050818103600083015261382a81613001565b9050919050565b6000602082019050818103600083015261384a81613041565b9050919050565b6000602082019050818103600083015261386a816130a7565b9050919050565b6000602082019050818103600083015261388a816130e7565b9050919050565b600060208201905081810360008301526138aa8161314d565b9050919050565b600060208201905081810360008301526138ca8161318d565b9050919050565b600060808201905081810360008301526138ea816131f3565b90506138f96020830186612eef565b6139066040830185612eef565b6139136060830184613757565b949350505050565b6000602082019050818103600083015261393481613233565b9050919050565b6000602082019050818103600083015261395481613299565b9050919050565b60006020820190508181036000830152613974816132d9565b9050919050565b6000602082019050818103600083015261399481613319565b9050919050565b600060208201905081810360008301526139b481613359565b9050919050565b600060208201905081810360008301526139d4816133bf565b9050919050565b600060208201905081810360008301526139f481613425565b9050919050565b60006020820190508181036000830152613a1481613465565b9050919050565b60006020820190508181036000830152613a34816134a5565b9050919050565b60006020820190508181036000830152613a54816134ff565b9050919050565b60006020820190508181036000830152613a748161353f565b9050919050565b60006020820190508181036000830152613a94816135a5565b9050919050565b60006020820190508181036000830152613ab48161360b565b9050919050565b60006020820190508181036000830152613ad481613671565b9050919050565b60006020820190508181036000830152613af4816136b1565b9050919050565b60006020820190508181036000830152613b14816136f1565b9050919050565b6000602082019050613b306000830184613757565b92915050565b6000608082019050613b4b6000830187613757565b613b586020830186612eef565b613b656040830185612eef565b613b726060830184613757565b95945050505050565b600061010082019050613b91600083018c613757565b613b9e602083018b612eef565b8181036040830152613bb181898b612efe565b9050613bc06060830188613757565b613bcd6080830187612ed1565b613bda60a0830186613757565b613be760c0830185613757565b613bf460e0830184613757565b9a9950505050505050505050565b6000608082019050613c176000830187613757565b613c246020830186612eef565b8181036040830152613c368185612f5b565b9050613c456060830184613757565b95945050505050565b6000608082019050613c636000830187613757565b613c706020830186612eef565b613c7d6040830185613757565b613c8a6060830184613757565b95945050505050565b600061018082019050613ca9600083018f613757565b8181036020830152613cbb818e612fc8565b9050613cca604083018d612eef565b8181036060830152613cdc818c612f5b565b9050613ceb608083018b613757565b613cf860a083018a613757565b613d0560c0830189613757565b613d1260e0830188612eef565b613d20610100830187613757565b613d2e610120830186613757565b613d3c610140830185612fb9565b613d4a610160830184613757565b9d9c50505050505050505050505050565b6000819050919050565b6000819050602082019050919050565b600081519050919050565b600081519050919050565b6000602082019050919050565b6000602082019050919050565b600082825260208201905092915050565b600081905092915050565b600082825260208201905092915050565b6000613de16020840184612acc565b905092915050565b6000613df482613f1d565b9150613dff83613f1d565b9250827fffffffffffffffffffffffffffffffffffffffffffffffffffffffffffffffff03821115613e3457613e3361400b565b5b828201905092915050565b6000613e4a82613f1d565b9150613e5583613f1d565b9250817fffffffffffffffffffffffffffffffffffffffffffffffffffffffffffffffff0483118215151615613e8e57613e8d61400b565b5b828202905092915050565b6000613ea482613f1d565b9150613eaf83613f1d565b925082821015613ec257613ec161400b565b5b828203905092915050565b6000613ed882613efd565b9050919050565b6000613eea82613efd565b9050919050565b60008115159050919050565b600073ffffffffffffffffffffffffffffffffffffffff82169050919050565b6000819050919050565b6000613f3282613f39565b9050919050565b6000613f4482613f4b565b9050919050565b6000613f5682613efd565b9050919050565b60005b83811015613f7b578082015181840152602081019050613f60565b83811115613f8a576000848401525b50505050565b60006002820490506001821680613fa857607f821691505b60208210811415613fbc57613fbb61403a565b5b50919050565b6000613fcd82613f1d565b91507fffffffffffffffffffffffffffffffffffffffffffffffffffffffffffffffff82141561400057613fff61400b565b5b600182019050919050565b7f4e487b7100000000000000000000000000000000000000000000000000000000600052601160045260246000fd5b7f4e487b7100000000000000000000000000000000000000000000000000000000600052602260045260246000fd5b6000601f19601f8301169050919050565b61408381613ecd565b811461408e57600080fd5b50565b61409a81613edf565b81146140a557600080fd5b50565b6140b181613ef1565b81146140bc57600080fd5b50565b6140c881613f1d565b81146140d357600080fd5b5056fea2646970667358221220675061171d6bdbaffb0c0697c09c61ebc28dac191f521984f94e649c5931402864736f6c63430008000033",
  "immutableReferences": {},
  "source": "// SPDX-License-Identifier: MIT\r\npragma solidity 0.8.0;\r\n\r\nimport \"@openzeppelin/contracts/access/Ownable.sol\";\r\nimport \"@openzeppelin/contracts/utils/math/SafeMath.sol\";\r\nimport \"@openzeppelin/contracts/token/ERC20/IERC20.sol\";\r\n\r\nimport \"./Stream.sol\";\r\nimport \"./utils/DPoolUtil.sol\";\r\n\r\n/*\r\n * Extended Streaming protocol\r\n */\r\ncontract DecentralizedPools {\r\n    // --\r\n\r\n    // contract owner\r\n    address public owner;\r\n\r\n    event CreateDPool(\r\n        uint256 dpId,\r\n        address sender,\r\n        address[] recipients,\r\n        uint256 deposit,\r\n        address tokenAddress,\r\n        uint256 startTime,\r\n        uint256 stopTime,\r\n        uint256 vType\r\n    );\r\n\r\n    event WithdrawFromDPool(\r\n        uint256 dpId,\r\n        address receiver,\r\n        uint256 amount,\r\n        uint256 remainingBalance\r\n    );\r\n\r\n    event DeleteDPool(\r\n        uint256 dpId,\r\n        address sender,\r\n        address[] recipients,\r\n        uint256 dPoolBalance\r\n    );\r\n\r\n    event DeleteRecipientsFromDPool(\r\n        uint256 dpId,\r\n        address sender,\r\n        address recipient,\r\n        uint256 dPoolBalance\r\n    );\r\n\r\n    // different pools by their ids\r\n    mapping(uint256 => Stream.DPool) dPools;\r\n\r\n    // get all pool ids by creator\r\n    mapping(address => uint256[]) dPoolIdsByCreator;\r\n\r\n    // every recipient address by dPoolId\r\n    mapping(address => mapping(uint256 => bool)) recipientsByDPoolId;\r\n\r\n    // ident of every new dPool\r\n    uint256 dPoolIdCounter = 1;\r\n\r\n    // validates inputs for new dPool\r\n    modifier validateInput(\r\n        address[] memory recipients,\r\n        uint256 deposit,\r\n        uint256 startTime,\r\n        uint256 stopTime\r\n    ) {\r\n        require(\r\n            recipients.length > 0,\r\n            \"there should be at least one recipient\"\r\n        );\r\n        require(deposit > 0, \"deposit should be greater than 0\");\r\n        require(\r\n            startTime >= block.timestamp,\r\n            \"start time should be after block.timestamp\"\r\n        );\r\n        require(\r\n            stopTime > startTime,\r\n            \"stopTime should be greater than startTime\"\r\n        );\r\n        _;\r\n    }\r\n\r\n    // validates and stores recipients in mapping\r\n    modifier validateAndMapRecipients(address[] memory recipients) {\r\n        for (uint256 i = 0; i < recipients.length; i++) {\r\n            DPoolUtil.validateRecipient(\r\n                recipients[i],\r\n                address(this),\r\n                msg.sender\r\n            );\r\n\r\n            /*\r\n            TODO Use modifiers only for checks\r\n            move to function\r\n            */\r\n            // map recipients by dPoolId for convinient access\r\n            recipientsByDPoolId[recipients[i]][dPoolIdCounter] = true;\r\n        }\r\n        _;\r\n    }\r\n\r\n    constructor() {\r\n        owner = msg.sender;\r\n    }\r\n\r\n    function getDPoolsCount() public view returns (uint256) {\r\n        uint256[] memory _dPoolIds = dPoolIdsByCreator[msg.sender];\r\n        return _dPoolIds.length;\r\n    }\r\n\r\n    function getDPool(uint256 index)\r\n        public\r\n        view\r\n        returns (\r\n            uint256,\r\n            string memory,\r\n            address,\r\n            address[] memory,\r\n            uint256,\r\n            uint256,\r\n            uint256,\r\n            address,\r\n            uint256,\r\n            uint256,\r\n            bool,\r\n            uint256\r\n        )\r\n    {\r\n        uint256 dPoolId = dPoolIdsByCreator[msg.sender][index];\r\n        Stream.DPool memory _dPool = dPools[dPoolId];\r\n        return (\r\n            _dPool.dPoolId,\r\n            _dPool.dPoolName,\r\n            _dPool.creator,\r\n            _dPool.recipients,\r\n            _dPool.deposit,\r\n            _dPool.remainingBalance,\r\n            _dPool.ratePerSecond,\r\n            _dPool.tokenAddress,\r\n            _dPool.startTime,\r\n            _dPool.stopTime,\r\n            _dPool.isCreated,\r\n            _dPool.dVType\r\n        );\r\n    }\r\n\r\n    /*\r\n     * @notice Creates a DPool that starts automatically calculating rates per second\r\n     *  when startTime is reached.\r\n     */\r\n    function createEthDPool(\r\n        string calldata dPoolName,\r\n        address[] calldata recipients,\r\n        uint256 startTime,\r\n        uint256 stopTime\r\n    )\r\n        public\r\n        payable\r\n        validateInput(recipients, msg.value, startTime, stopTime)\r\n        returns (uint256)\r\n    {\r\n        return\r\n            createDPool(\r\n                dPoolName,\r\n                recipients,\r\n                msg.value,\r\n                payable(address(0x0)),\r\n                startTime,\r\n                stopTime,\r\n                uint256(Stream.DValueType.ETH)\r\n            );\r\n    }\r\n\r\n    /*\r\n     * @notice Creates a DPool with a manual starter switch before calculating rates per second.\r\n     */\r\n    function createTokenDPool(\r\n        string calldata dPoolName,\r\n        address[] calldata recipients,\r\n        uint256 deposit,\r\n        address payable tokenAddress,\r\n        uint256 startTime,\r\n        uint256 stopTime\r\n    )\r\n        public\r\n        payable\r\n        validateInput(recipients, deposit, startTime, stopTime)\r\n        returns (uint256)\r\n    {\r\n        return\r\n            createDPool(\r\n                dPoolName,\r\n                recipients,\r\n                toWei(deposit),\r\n                tokenAddress,\r\n                startTime,\r\n                stopTime,\r\n                uint256(Stream.DValueType.TOKEN)\r\n            );\r\n    }\r\n\r\n    /*\r\n     * @notice Creates a DPool that starts automatically calculating rates per second\r\n     *  when startTime is reached.\r\n     * @param _recipients - all the recipients who will receive and withdraw from pool\r\n     * @param _deposit - the amount of ether or tokens in pool\r\n     * @param _tokenAddress - ERC20 token address\r\n     * @param _type used value type\r\n     * @param _startTime - of the distribution\r\n     * @param _stopTime - of the distribution\r\n     */\r\n    function createDPool(\r\n        string calldata _dPoolName,\r\n        address[] calldata _recipients,\r\n        uint256 _deposit,\r\n        address payable _tokenAddress,\r\n        uint256 _startTime,\r\n        uint256 _stopTime,\r\n        uint256 _type\r\n    ) internal validateAndMapRecipients(_recipients) returns (uint256) {\r\n        uint256 _ratePerSecond = DPoolUtil.calculateRPS(\r\n            _deposit,\r\n            _startTime,\r\n            _stopTime\r\n        );\r\n\r\n        Stream.DPool memory dPool = Stream.DPool({\r\n            dPoolId: dPoolIdCounter,\r\n            dPoolName: _dPoolName,\r\n            creator: msg.sender,\r\n            recipients: _recipients,\r\n            deposit: _deposit,\r\n            remainingBalance: _deposit,\r\n            ratePerSecond: _ratePerSecond,\r\n            tokenAddress: _tokenAddress,\r\n            dVType: _type,\r\n            startTime: _startTime,\r\n            stopTime: _stopTime,\r\n            isCreated: true\r\n        });\r\n\r\n        saveDPool(dPool);\r\n        transferToContract(_tokenAddress, _type, _deposit, msg.value);\r\n\r\n        emit CreateDPool(\r\n            dPoolIdCounter,\r\n            msg.sender,\r\n            _recipients,\r\n            _deposit,\r\n            _tokenAddress,\r\n            _startTime,\r\n            _stopTime,\r\n            _type\r\n        );\r\n\r\n        dPoolIdCounter += uint256(1);\r\n\r\n        return dPool.dPoolId;\r\n    }\r\n\r\n    // save given dPool on chain and map dPoolId\r\n    function saveDPool(Stream.DPool memory dPool) private {\r\n        dPools[dPool.dPoolId] = dPool;\r\n        uint256[] storage creatorPoolIds = dPoolIdsByCreator[msg.sender];\r\n        creatorPoolIds.push(dPool.dPoolId);\r\n    }\r\n\r\n    // transfers tokens to contract\r\n    function transferTokens(\r\n        address fromSender,\r\n        address toAddress,\r\n        address tokenAddress,\r\n        uint256 amount\r\n    ) public payable {\r\n        bool sent = IERC20(tokenAddress).transferFrom(\r\n            fromSender,\r\n            toAddress,\r\n            amount\r\n        );\r\n        require(sent, \"tokens could not be sent\");\r\n    }\r\n\r\n    // transfers ether to contract\r\n    function transferEther(address requester, uint256 amount) public payable {\r\n        (bool sent, bytes memory data) = requester.call{value: amount}(\"\");\r\n        require(sent, \"ether could not be sent\");\r\n    }\r\n\r\n    // transfer tokens or ether\r\n    function transferToContract(\r\n        address tokenAddress,\r\n        uint256 dVType,\r\n        uint256 tokenAmount,\r\n        uint256 ethAmount\r\n    ) internal {\r\n        if (uint256(Stream.DValueType.TOKEN) == dVType) {\r\n            transferTokens(\r\n                msg.sender,\r\n                address(this),\r\n                tokenAddress,\r\n                tokenAmount\r\n            );\r\n        } else if (tokenAddress == address(0x0)) {\r\n            transferEther(address(this), ethAmount);\r\n        }\r\n    }\r\n\r\n    // withdraw tokens or ether\r\n    function withdrawFromContract(\r\n        address tokenAddress,\r\n        uint256 dVType,\r\n        uint256 tokenAmount,\r\n        uint256 ethAmount\r\n    ) internal {\r\n        if (uint256(Stream.DValueType.TOKEN) == dVType) {\r\n            transferTokens(\r\n                address(this),\r\n                msg.sender,\r\n                tokenAddress,\r\n                tokenAmount\r\n            );\r\n        } else if (tokenAddress == address(0x0)) {\r\n            transferEther(msg.sender, ethAmount);\r\n        }\r\n    }\r\n\r\n    /*\r\n     * @notice Calculates the accumulated balance for a single address according to passed time.\r\n     * @param dpId - id of a dPool\r\n     * @param requester - address of a single recipient\r\n     * @param recipientSize - the size/length of existing recipients in dPool\r\n     * @returns balance - of the recipient or the sender/creator of dPool\r\n     */\r\n    function balanceOf(uint256 dpId, address requester)\r\n        public\r\n        view\r\n        returns (uint256)\r\n    {\r\n        Stream.DPool memory dPool = dPools[dpId];\r\n        uint256 delta = DPoolUtil.deltaOf(dPool);\r\n\r\n        (bool totalResult, uint256 totalRecipientBalance) = SafeMath.tryMul(\r\n            delta,\r\n            dPool.ratePerSecond\r\n        );\r\n        require(totalResult, \"delta * rate issue\");\r\n\r\n        if (totalRecipientBalance == 0) {\r\n            return 0;\r\n        }\r\n\r\n        if (requester == dPool.creator) {\r\n            (bool senderResult, uint256 senderBalance) = SafeMath.trySub(\r\n                dPool.remainingBalance,\r\n                totalRecipientBalance\r\n            );\r\n            require(senderResult, \"balanceOf substraction issue\");\r\n\r\n            return senderBalance;\r\n        }\r\n\r\n        (bool currentResult, uint256 individualRecipientBalance) = SafeMath\r\n            .tryDiv(totalRecipientBalance, dPool.recipients.length);\r\n        require(currentResult, \"balanceOf division not possible\");\r\n\r\n        if (recipientsByDPoolId[requester][dPool.dPoolId]) {\r\n            return individualRecipientBalance;\r\n        }\r\n\r\n        return 0;\r\n    }\r\n\r\n    event Logger(string txt, address sender, address spender, uint256 l);\r\n\r\n    /*\r\n     * @notice Sender will receive requested amount, if the registered address is in dPool\r\n     *  and remaingBalance of dPool is greater zero.\r\n     * @param dpId - identification of dPool\r\n     * @param amount - requested from sender\r\n     * @returns true - if function executes fantastically\r\n     */\r\n    function withdrawFromDPool(uint256 dpId, uint256 amount)\r\n        public\r\n        payable\r\n        returns (bool)\r\n    {\r\n        /* To safe transaction cost some call constraints are deliberately inside the function\r\n            and not in modifiers.\r\n        */\r\n        require(amount > 0, \"amount is zero\");\r\n        Stream.DPool storage dPool = dPools[dpId];\r\n        require(dPool.isCreated, \"DPool does not exist\");\r\n        require(dPool.remainingBalance > 0, \"no remaining balance in dPool\");\r\n        require(\r\n            msg.sender == dPool.creator ||\r\n                recipientsByDPoolId[msg.sender][dpId],\r\n            \"recipient is not registered in dPool\"\r\n        );\r\n\r\n        uint256 amt = IERC20(dPool.tokenAddress).allowance(\r\n            address(this),\r\n            msg.sender\r\n        );\r\n        emit Logger(\"allowance to send tokens\", address(this), msg.sender, amt);\r\n        if (amount > 0) {\r\n            return false;\r\n        }\r\n        uint256 cBalance = balanceOf(dpId, msg.sender);\r\n\r\n        require(cBalance >= amount, \"requested higher amount than remains\");\r\n\r\n        (bool result, uint256 newRemainingBalance) = SafeMath.trySub(\r\n            dPool.remainingBalance,\r\n            amount\r\n        );\r\n        require(result, \"remainging balance calculation failed\");\r\n\r\n        dPool.remainingBalance = newRemainingBalance;\r\n\r\n        withdrawFromContract(dPool.tokenAddress, dPool.dVType, amount, amount);\r\n\r\n        if (dPool.remainingBalance == 0) {\r\n            delete dPools[dpId];\r\n            delete recipientsByDPoolId[msg.sender][dpId];\r\n        }\r\n\r\n        emit WithdrawFromDPool(\r\n            dpId,\r\n            msg.sender,\r\n            amount,\r\n            dPool.remainingBalance\r\n        );\r\n\r\n        return true;\r\n    }\r\n\r\n    /*\r\n     * @notice Deletes dPool for given dpId and send remaining balance to creator\r\n     */\r\n    function deleteDPool(uint256 dpId) external returns (bool) {\r\n        Stream.DPool memory dPool = dPools[dpId];\r\n        require(dPool.isCreated, \"DPool does not exist\");\r\n        require(\r\n            msg.sender == dPool.creator ||\r\n                recipientsByDPoolId[msg.sender][dpId],\r\n            \"deletion of dPool is not allowed\"\r\n        );\r\n\r\n        uint256 dPoolBalance = balanceOf(dpId, dPool.creator);\r\n\r\n        if (dPoolBalance > 0) {\r\n            withdrawFromContract(\r\n                dPool.tokenAddress,\r\n                dPool.dVType,\r\n                dPoolBalance,\r\n                dPoolBalance\r\n            );\r\n        }\r\n\r\n        transferRecipientBalances(dPool);\r\n\r\n        // TODO delete creator pool id !!!!\r\n\r\n        uint256[] storage creatorPoolIds = dPoolIdsByCreator[msg.sender];\r\n\r\n        if (creatorPoolIds.length == 0) {\r\n            delete dPoolIdsByCreator[msg.sender];\r\n        }\r\n        delete dPools[dpId];\r\n        delete recipientsByDPoolId[msg.sender][dpId];\r\n\r\n        emit DeleteDPool(dpId, dPool.creator, dPool.recipients, dPoolBalance);\r\n\r\n        return true;\r\n    }\r\n\r\n    function deleteRecipientFromDPool(uint256 dpId, address recipient)\r\n        external\r\n        returns (bool)\r\n    {\r\n        Stream.DPool memory dPool = dPools[dpId];\r\n        require(dPool.isCreated, \"DPool does not exist\");\r\n        require(\r\n            recipientsByDPoolId[msg.sender][dpId],\r\n            \"deletion of dPool is not allowed\"\r\n        );\r\n\r\n        uint256 dPoolBalance = balanceOf(dpId, recipient);\r\n        withdrawFromContract(\r\n            dPool.tokenAddress,\r\n            dPool.dVType,\r\n            dPoolBalance,\r\n            dPoolBalance\r\n        );\r\n\r\n        emit DeleteRecipientsFromDPool(\r\n            dpId,\r\n            dPool.creator,\r\n            recipient,\r\n            dPoolBalance\r\n        );\r\n\r\n        return true;\r\n    }\r\n\r\n    function transferRecipientBalances(Stream.DPool memory dPool) internal {\r\n        for (uint256 i = 0; i < dPool.recipients.length; i++) {\r\n            uint256 recipientBalance = balanceOf(\r\n                dPool.dPoolId,\r\n                dPool.recipients[i]\r\n            );\r\n\r\n            if (recipientBalance > 0) {\r\n                withdrawFromContract(\r\n                    dPool.tokenAddress,\r\n                    dPool.dVType,\r\n                    recipientBalance,\r\n                    recipientBalance\r\n                );\r\n            }\r\n        }\r\n    }\r\n\r\n    function toWei(uint256 balance) internal pure returns (uint256) {\r\n        return balance * 10**18;\r\n    }\r\n\r\n    fallback() external payable {}\r\n\r\n    receive() external payable {}\r\n}\r\n",
  "sourcePath": "C:\\Users\\Magomed\\Desktop\\Test_blockchain_Project\\consensys_projects\\blockchain-developer-bootcamp-final-project\\contracts\\DecentralizedPools.sol",
  "compiler": {
    "name": "solc",
    "version": "0.8.0+commit.c7dfd78e.Emscripten.clang"
  },
  "schemaVersion": "3.4.3",
  "updatedAt": "2021-11-10T20:02:28.991Z",
  "networkType": "ethereum",
  "devdoc": {
    "kind": "dev",
    "methods": {},
    "version": 1
  },
  "userdoc": {
    "kind": "user",
    "methods": {},
    "version": 1
  }
}