{
  "contractName": "DecentralizedPools",
  "abi": [
    {
      "inputs": [],
      "stateMutability": "nonpayable",
      "type": "constructor"
    },
    {
      "anonymous": false,
      "inputs": [
        {
          "indexed": false,
          "internalType": "uint256",
          "name": "dpId",
          "type": "uint256"
        },
        {
          "indexed": false,
          "internalType": "address",
          "name": "sender",
          "type": "address"
        },
        {
          "indexed": false,
          "internalType": "address[]",
          "name": "recipients",
          "type": "address[]"
        },
        {
          "indexed": false,
          "internalType": "uint256",
          "name": "deposit",
          "type": "uint256"
        },
        {
          "indexed": false,
          "internalType": "address",
          "name": "tokenAddress",
          "type": "address"
        },
        {
          "indexed": false,
          "internalType": "uint256",
          "name": "startTime",
          "type": "uint256"
        },
        {
          "indexed": false,
          "internalType": "uint256",
          "name": "stopTime",
          "type": "uint256"
        },
        {
          "indexed": false,
          "internalType": "uint256",
          "name": "vType",
          "type": "uint256"
        }
      ],
      "name": "CreateDPool",
      "type": "event"
    },
    {
      "anonymous": false,
      "inputs": [
        {
          "indexed": false,
          "internalType": "uint256",
          "name": "dpId",
          "type": "uint256"
        },
        {
          "indexed": false,
          "internalType": "address",
          "name": "sender",
          "type": "address"
        },
        {
          "indexed": false,
          "internalType": "address[]",
          "name": "recipients",
          "type": "address[]"
        },
        {
          "indexed": false,
          "internalType": "uint256",
          "name": "dPoolBalance",
          "type": "uint256"
        }
      ],
      "name": "DeleteDPool",
      "type": "event"
    },
    {
      "anonymous": false,
      "inputs": [
        {
          "indexed": false,
          "internalType": "uint256",
          "name": "dpId",
          "type": "uint256"
        },
        {
          "indexed": false,
          "internalType": "address",
          "name": "sender",
          "type": "address"
        },
        {
          "indexed": false,
          "internalType": "address",
          "name": "recipient",
          "type": "address"
        },
        {
          "indexed": false,
          "internalType": "uint256",
          "name": "dPoolBalance",
          "type": "uint256"
        }
      ],
      "name": "DeleteRecipientsFromDPool",
      "type": "event"
    },
    {
      "anonymous": false,
      "inputs": [
        {
          "indexed": false,
          "internalType": "string",
          "name": "txt",
          "type": "string"
        },
        {
          "indexed": false,
          "internalType": "address",
          "name": "sender",
          "type": "address"
        },
        {
          "indexed": false,
          "internalType": "address",
          "name": "spender",
          "type": "address"
        },
        {
          "indexed": false,
          "internalType": "uint256",
          "name": "l",
          "type": "uint256"
        }
      ],
      "name": "Logger",
      "type": "event"
    },
    {
      "anonymous": false,
      "inputs": [
        {
          "indexed": true,
          "internalType": "address",
          "name": "previousOwner",
          "type": "address"
        },
        {
          "indexed": true,
          "internalType": "address",
          "name": "newOwner",
          "type": "address"
        }
      ],
      "name": "OwnershipTransferred",
      "type": "event"
    },
    {
      "anonymous": false,
      "inputs": [
        {
          "indexed": false,
          "internalType": "address",
          "name": "account",
          "type": "address"
        }
      ],
      "name": "Paused",
      "type": "event"
    },
    {
      "anonymous": false,
      "inputs": [
        {
          "indexed": false,
          "internalType": "address",
          "name": "account",
          "type": "address"
        }
      ],
      "name": "Unpaused",
      "type": "event"
    },
    {
      "anonymous": false,
      "inputs": [
        {
          "indexed": false,
          "internalType": "uint256",
          "name": "dpId",
          "type": "uint256"
        },
        {
          "indexed": false,
          "internalType": "address",
          "name": "receiver",
          "type": "address"
        },
        {
          "indexed": false,
          "internalType": "uint256",
          "name": "amount",
          "type": "uint256"
        },
        {
          "indexed": false,
          "internalType": "uint256",
          "name": "remainingBalance",
          "type": "uint256"
        }
      ],
      "name": "WithdrawFromDPool",
      "type": "event"
    },
    {
      "stateMutability": "payable",
      "type": "fallback",
      "payable": true
    },
    {
      "inputs": [],
      "name": "owner",
      "outputs": [
        {
          "internalType": "address",
          "name": "",
          "type": "address"
        }
      ],
      "stateMutability": "view",
      "type": "function",
      "constant": true
    },
    {
      "inputs": [],
      "name": "paused",
      "outputs": [
        {
          "internalType": "bool",
          "name": "",
          "type": "bool"
        }
      ],
      "stateMutability": "view",
      "type": "function",
      "constant": true
    },
    {
      "inputs": [],
      "name": "renounceOwnership",
      "outputs": [],
      "stateMutability": "nonpayable",
      "type": "function"
    },
    {
      "inputs": [
        {
          "internalType": "address",
          "name": "newOwner",
          "type": "address"
        }
      ],
      "name": "transferOwnership",
      "outputs": [],
      "stateMutability": "nonpayable",
      "type": "function"
    },
    {
      "stateMutability": "payable",
      "type": "receive",
      "payable": true
    },
    {
      "inputs": [],
      "name": "emergencySwitchOn",
      "outputs": [],
      "stateMutability": "nonpayable",
      "type": "function"
    },
    {
      "inputs": [],
      "name": "emergencySwitchOff",
      "outputs": [],
      "stateMutability": "nonpayable",
      "type": "function"
    },
    {
      "inputs": [],
      "name": "getRecipientDPoolIds",
      "outputs": [
        {
          "internalType": "uint256[]",
          "name": "",
          "type": "uint256[]"
        }
      ],
      "stateMutability": "view",
      "type": "function",
      "constant": true
    },
    {
      "inputs": [],
      "name": "getDPoolsCount",
      "outputs": [
        {
          "internalType": "uint256",
          "name": "",
          "type": "uint256"
        }
      ],
      "stateMutability": "view",
      "type": "function",
      "constant": true
    },
    {
      "inputs": [
        {
          "internalType": "uint256",
          "name": "index",
          "type": "uint256"
        }
      ],
      "name": "getDPool",
      "outputs": [
        {
          "internalType": "uint256",
          "name": "",
          "type": "uint256"
        },
        {
          "internalType": "string",
          "name": "",
          "type": "string"
        },
        {
          "internalType": "address",
          "name": "",
          "type": "address"
        },
        {
          "internalType": "address[]",
          "name": "",
          "type": "address[]"
        },
        {
          "internalType": "uint256",
          "name": "",
          "type": "uint256"
        },
        {
          "internalType": "uint256",
          "name": "",
          "type": "uint256"
        },
        {
          "internalType": "uint256",
          "name": "",
          "type": "uint256"
        },
        {
          "internalType": "address",
          "name": "",
          "type": "address"
        },
        {
          "internalType": "uint256",
          "name": "",
          "type": "uint256"
        },
        {
          "internalType": "uint256",
          "name": "",
          "type": "uint256"
        },
        {
          "internalType": "uint256",
          "name": "",
          "type": "uint256"
        }
      ],
      "stateMutability": "view",
      "type": "function",
      "constant": true
    },
    {
      "inputs": [
        {
          "internalType": "uint256",
          "name": "dPId",
          "type": "uint256"
        }
      ],
      "name": "getDPoolById",
      "outputs": [
        {
          "internalType": "uint256",
          "name": "",
          "type": "uint256"
        },
        {
          "internalType": "string",
          "name": "",
          "type": "string"
        },
        {
          "internalType": "address",
          "name": "",
          "type": "address"
        },
        {
          "internalType": "address[]",
          "name": "",
          "type": "address[]"
        },
        {
          "internalType": "uint256",
          "name": "",
          "type": "uint256"
        },
        {
          "internalType": "uint256",
          "name": "",
          "type": "uint256"
        },
        {
          "internalType": "uint256",
          "name": "",
          "type": "uint256"
        },
        {
          "internalType": "address",
          "name": "",
          "type": "address"
        },
        {
          "internalType": "uint256",
          "name": "",
          "type": "uint256"
        },
        {
          "internalType": "uint256",
          "name": "",
          "type": "uint256"
        },
        {
          "internalType": "uint256",
          "name": "",
          "type": "uint256"
        }
      ],
      "stateMutability": "view",
      "type": "function",
      "constant": true
    },
    {
      "inputs": [
        {
          "internalType": "string",
          "name": "dPoolName",
          "type": "string"
        },
        {
          "internalType": "address[]",
          "name": "recipients",
          "type": "address[]"
        },
        {
          "internalType": "uint256",
          "name": "startTime",
          "type": "uint256"
        },
        {
          "internalType": "uint256",
          "name": "stopTime",
          "type": "uint256"
        }
      ],
      "name": "createEthDPool",
      "outputs": [
        {
          "internalType": "uint256",
          "name": "",
          "type": "uint256"
        }
      ],
      "stateMutability": "payable",
      "type": "function",
      "payable": true
    },
    {
      "inputs": [
        {
          "internalType": "string",
          "name": "dPoolName",
          "type": "string"
        },
        {
          "internalType": "address[]",
          "name": "recipients",
          "type": "address[]"
        },
        {
          "internalType": "uint256",
          "name": "deposit",
          "type": "uint256"
        },
        {
          "internalType": "address payable",
          "name": "tokenAddress",
          "type": "address"
        },
        {
          "internalType": "uint256",
          "name": "startTime",
          "type": "uint256"
        },
        {
          "internalType": "uint256",
          "name": "stopTime",
          "type": "uint256"
        }
      ],
      "name": "createTokenDPool",
      "outputs": [
        {
          "internalType": "uint256",
          "name": "",
          "type": "uint256"
        }
      ],
      "stateMutability": "payable",
      "type": "function",
      "payable": true
    },
    {
      "inputs": [
        {
          "internalType": "address",
          "name": "fromSender",
          "type": "address"
        },
        {
          "internalType": "address",
          "name": "toAddress",
          "type": "address"
        },
        {
          "internalType": "address",
          "name": "tokenAddress",
          "type": "address"
        },
        {
          "internalType": "uint256",
          "name": "amount",
          "type": "uint256"
        }
      ],
      "name": "transferTokens",
      "outputs": [],
      "stateMutability": "payable",
      "type": "function",
      "payable": true
    },
    {
      "inputs": [
        {
          "internalType": "address",
          "name": "requester",
          "type": "address"
        },
        {
          "internalType": "uint256",
          "name": "amount",
          "type": "uint256"
        }
      ],
      "name": "transferEther",
      "outputs": [],
      "stateMutability": "payable",
      "type": "function",
      "payable": true
    },
    {
      "inputs": [
        {
          "internalType": "uint256",
          "name": "dpId",
          "type": "uint256"
        },
        {
          "internalType": "address",
          "name": "requester",
          "type": "address"
        }
      ],
      "name": "balanceOf",
      "outputs": [
        {
          "internalType": "uint256",
          "name": "",
          "type": "uint256"
        }
      ],
      "stateMutability": "view",
      "type": "function",
      "constant": true
    },
    {
      "inputs": [
        {
          "internalType": "uint256",
          "name": "dpId",
          "type": "uint256"
        },
        {
          "internalType": "uint256",
          "name": "amount",
          "type": "uint256"
        }
      ],
      "name": "withdrawFromDPool",
      "outputs": [
        {
          "internalType": "bool",
          "name": "",
          "type": "bool"
        }
      ],
      "stateMutability": "payable",
      "type": "function",
      "payable": true
    },
    {
      "inputs": [
        {
          "internalType": "uint256",
          "name": "dpId",
          "type": "uint256"
        }
      ],
      "name": "deleteDPool",
      "outputs": [
        {
          "internalType": "bool",
          "name": "",
          "type": "bool"
        }
      ],
      "stateMutability": "nonpayable",
      "type": "function"
    },
    {
      "inputs": [
        {
          "internalType": "uint256",
          "name": "dpId",
          "type": "uint256"
        },
        {
          "internalType": "address",
          "name": "recipient",
          "type": "address"
        }
      ],
      "name": "deleteRecipientFromDPool",
      "outputs": [
        {
          "internalType": "bool",
          "name": "",
          "type": "bool"
        }
      ],
      "stateMutability": "nonpayable",
      "type": "function"
    }
  ],
  "bytecode": "0x608060405260016006553480156200001657600080fd5b5060008060006101000a81548160ff02191690831515021790555062000051620000456200005760201b60201c565b6200005f60201b60201c565b62000124565b600033905090565b60008060019054906101000a900473ffffffffffffffffffffffffffffffffffffffff16905081600060016101000a81548173ffffffffffffffffffffffffffffffffffffffff021916908373ffffffffffffffffffffffffffffffffffffffff1602179055508173ffffffffffffffffffffffffffffffffffffffff168173ffffffffffffffffffffffffffffffffffffffff167f8be0079c531659141344cd1fd0a4f28419497f9722a3daafe3b4186f6b6457e060405160405180910390a35050565b614e3b80620001346000396000f3fe60806040526004361061010d5760003560e01c8063715018a6116100955780638da5cb5b116100645780638da5cb5b1461034c578063d4cc4a5f14610377578063dfd51670146103a7578063e92042ce146103e4578063f2fde38b1461041457610114565b8063715018a61461029a57806377b314d0146102b15780637f6482f0146102f85780637fa9fd3e1461033557610114565b80631c75f6df116100dc5780631c75f6df146101d457806330fc5138146101eb5780633656eec2146102165780635c975abb1461025357806368155ec11461027e57610114565b806305b1137b146101165780630f08e26a1461013257806314006d241461015d57806316825cf0146101a457610114565b3661011457005b005b610130600480360381019061012b919061375a565b61043d565b005b34801561013e57600080fd5b506101476104f1565b60405161015491906144bd565b60405180910390f35b34801561016957600080fd5b50610184600480360381019061017f919061391d565b610586565b60405161019b9b9a999897969594939291906149f2565b60405180910390f35b6101be60048036038101906101b991906137bf565b6108cf565b6040516101cb919061487a565b60405180910390f35b3480156101e057600080fd5b506101e9610a88565b005b3480156101f757600080fd5b50610200610b0e565b60405161020d919061487a565b60405180910390f35b34801561022257600080fd5b5061023d60048036038101906102389190613946565b610ba9565b60405161024a919061487a565b60405180910390f35b34801561025f57600080fd5b50610268611181565b60405161027591906144df565b60405180910390f35b610298600480360381019061029391906136f7565b611197565b005b3480156102a657600080fd5b506102af611271565b005b3480156102bd57600080fd5b506102d860048036038101906102d3919061391d565b6112f9565b6040516102ef9b9a999897969594939291906149f2565b60405180910390f35b34801561030457600080fd5b5061031f600480360381019061031a919061391d565b6115bb565b60405161032c91906144df565b60405180910390f35b34801561034157600080fd5b5061034a611b7f565b005b34801561035857600080fd5b50610361611c05565b60405161036e919061446b565b60405180910390f35b610391600480360381019061038c9190613982565b611c2e565b60405161039e91906144df565b60405180910390f35b3480156103b357600080fd5b506103ce60048036038101906103c99190613946565b61211c565b6040516103db91906144df565b60405180910390f35b6103fe60048036038101906103f99190613882565b6124bf565b60405161040b919061487a565b60405180910390f35b34801561042057600080fd5b5061043b600480360381019061043691906136ce565b612678565b005b6000808373ffffffffffffffffffffffffffffffffffffffff168360405161046490614456565b60006040518083038185875af1925050503d80600081146104a1576040519150601f19603f3d011682016040523d82523d6000602084013e6104a6565b606091505b5091509150816104eb576040517f08c379a00000000000000000000000000000000000000000000000000000000081526004016104e29061463a565b60405180910390fd5b50505050565b6060600460003373ffffffffffffffffffffffffffffffffffffffff1673ffffffffffffffffffffffffffffffffffffffff16815260200190815260200160002080548060200260200160405190810160405280929190818152602001828054801561057c57602002820191906000526020600020905b815481526020019060010190808311610568575b5050505050905090565b6000606060006060600080600080600080600080600260003373ffffffffffffffffffffffffffffffffffffffff1673ffffffffffffffffffffffffffffffffffffffff1681526020019081526020016000208d81548110610611577f4e487b7100000000000000000000000000000000000000000000000000000000600052603260045260246000fd5b90600052602060002001549050600060016000838152602001908152602001600020604051806101800160405290816000820154815260200160018201805461065990614cbf565b80601f016020809104026020016040519081016040528092919081815260200182805461068590614cbf565b80156106d25780601f106106a7576101008083540402835291602001916106d2565b820191906000526020600020905b8154815290600101906020018083116106b557829003601f168201915b505050505081526020016002820160009054906101000a900473ffffffffffffffffffffffffffffffffffffffff1673ffffffffffffffffffffffffffffffffffffffff1673ffffffffffffffffffffffffffffffffffffffff168152602001600382018054806020026020016040519081016040528092919081815260200182805480156107b657602002820191906000526020600020905b8160009054906101000a900473ffffffffffffffffffffffffffffffffffffffff1673ffffffffffffffffffffffffffffffffffffffff168152602001906001019080831161076c575b505050505081526020016004820154815260200160058201548152602001600682015481526020016007820160009054906101000a900473ffffffffffffffffffffffffffffffffffffffff1673ffffffffffffffffffffffffffffffffffffffff1673ffffffffffffffffffffffffffffffffffffffff1681526020016008820154815260200160098201548152602001600a8201548152602001600b820160009054906101000a900460ff1615151515815250509050806000015181602001518260400151836060015184608001518560a001518660c001518760e001518861012001518961014001518a61010001519c509c509c509c509c509c509c509c509c509c509c50505091939597999b90929496989a50565b60006108d9611181565b15610919576040517f08c379a00000000000000000000000000000000000000000000000000000000081526004016109109061465a565b60405180910390fd5b868686858560008585905011610964576040517f08c379a000000000000000000000000000000000000000000000000000000000815260040161095b906145fa565b60405180910390fd5b600083116109a7576040517f08c379a000000000000000000000000000000000000000000000000000000000815260040161099e9061459a565b60405180910390fd5b428210156109ea576040517f08c379a00000000000000000000000000000000000000000000000000000000081526004016109e1906147da565b60405180910390fd5b818111610a2c576040517f08c379a0000000000000000000000000000000000000000000000000000000008152600401610a239061485a565b60405180910390fd5b610a758e8e8e8e8e8e8e8e600180811115610a70577f4e487b7100000000000000000000000000000000000000000000000000000000600052602160045260246000fd5b612770565b9550505050505098975050505050505050565b610a906129a3565b73ffffffffffffffffffffffffffffffffffffffff16610aae611c05565b73ffffffffffffffffffffffffffffffffffffffff1614610b04576040517f08c379a0000000000000000000000000000000000000000000000000000000008152600401610afb906146fa565b60405180910390fd5b610b0c6129ab565b565b600080600260003373ffffffffffffffffffffffffffffffffffffffff1673ffffffffffffffffffffffffffffffffffffffff168152602001908152602001600020805480602002602001604051908101604052809291908181526020018280548015610b9a57602002820191906000526020600020905b815481526020019060010190808311610b86575b50505050509050805191505090565b600080600160008581526020019081526020016000206040518061018001604052908160008201548152602001600182018054610be590614cbf565b80601f0160208091040260200160405190810160405280929190818152602001828054610c1190614cbf565b8015610c5e5780601f10610c3357610100808354040283529160200191610c5e565b820191906000526020600020905b815481529060010190602001808311610c4157829003601f168201915b505050505081526020016002820160009054906101000a900473ffffffffffffffffffffffffffffffffffffffff1673ffffffffffffffffffffffffffffffffffffffff1673ffffffffffffffffffffffffffffffffffffffff16815260200160038201805480602002602001604051908101604052809291908181526020018280548015610d4257602002820191906000526020600020905b8160009054906101000a900473ffffffffffffffffffffffffffffffffffffffff1673ffffffffffffffffffffffffffffffffffffffff1681526020019060010190808311610cf8575b505050505081526020016004820154815260200160058201548152602001600682015481526020016007820160009054906101000a900473ffffffffffffffffffffffffffffffffffffffff1673ffffffffffffffffffffffffffffffffffffffff1673ffffffffffffffffffffffffffffffffffffffff1681526020016008820154815260200160098201548152602001600a8201548152602001600b820160009054906101000a900460ff16151515158152505090506000610e0582612a4c565b9050600080610e18838560c00151612aa6565b9150915081610e5c576040517f08c379a0000000000000000000000000000000000000000000000000000000008152600401610e539061477a565b60405180910390fd5b6000811415610e7257600094505050505061117b565b600080610e8483876060015151612b20565b9150915081610ec8576040517f08c379a0000000000000000000000000000000000000000000000000000000008152600401610ebf9061471a565b60405180910390fd5b6000600560008a73ffffffffffffffffffffffffffffffffffffffff1673ffffffffffffffffffffffffffffffffffffffff168152602001908152602001600020549050600081111561105b57600080610f2a89608001518a60a00151612b7d565b9150915081610f6e576040517f08c379a0000000000000000000000000000000000000000000000000000000008152600401610f659061473a565b60405180910390fd5b886040015173ffffffffffffffffffffffffffffffffffffffff168b73ffffffffffffffffffffffffffffffffffffffff16141561100157600080610fb38884612b7d565b9150915081610ff7576040517f08c379a0000000000000000000000000000000000000000000000000000000008152600401610fee9061475a565b60405180910390fd5b8097505050611058565b60008061100e8684612b7d565b9150915081611052576040517f08c379a0000000000000000000000000000000000000000000000000000000008152600401611049906145ba565b60405180910390fd5b80955050505b50505b600360008a73ffffffffffffffffffffffffffffffffffffffff1673ffffffffffffffffffffffffffffffffffffffff16815260200190815260200160002060008860000151815260200190815260200160002060009054906101000a900460ff16156110d1578197505050505050505061117b565b866040015173ffffffffffffffffffffffffffffffffffffffff168973ffffffffffffffffffffffffffffffffffffffff16141561116f5760008061111a8960a0015187612b7d565b915091508161115e576040517f08c379a00000000000000000000000000000000000000000000000000000000081526004016111559061483a565b60405180910390fd5b80995050505050505050505061117b565b60009750505050505050505b92915050565b60008060009054906101000a900460ff16905090565b60008273ffffffffffffffffffffffffffffffffffffffff166323b872dd8686856040518463ffffffff1660e01b81526004016111d693929190614486565b602060405180830381600087803b1580156111f057600080fd5b505af1158015611204573d6000803e3d6000fd5b505050506040513d601f19601f820116820180604052508101906112289190613796565b90508061126a576040517f08c379a0000000000000000000000000000000000000000000000000000000008152600401611261906146da565b60405180910390fd5b5050505050565b6112796129a3565b73ffffffffffffffffffffffffffffffffffffffff16611297611c05565b73ffffffffffffffffffffffffffffffffffffffff16146112ed576040517f08c379a00000000000000000000000000000000000000000000000000000000081526004016112e4906146fa565b60405180910390fd5b6112f76000612ba5565b565b6000606060006060600080600080600080600080600160008e8152602001908152602001600020604051806101800160405290816000820154815260200160018201805461134690614cbf565b80601f016020809104026020016040519081016040528092919081815260200182805461137290614cbf565b80156113bf5780601f10611394576101008083540402835291602001916113bf565b820191906000526020600020905b8154815290600101906020018083116113a257829003601f168201915b505050505081526020016002820160009054906101000a900473ffffffffffffffffffffffffffffffffffffffff1673ffffffffffffffffffffffffffffffffffffffff1673ffffffffffffffffffffffffffffffffffffffff168152602001600382018054806020026020016040519081016040528092919081815260200182805480156114a357602002820191906000526020600020905b8160009054906101000a900473ffffffffffffffffffffffffffffffffffffffff1673ffffffffffffffffffffffffffffffffffffffff1681526020019060010190808311611459575b505050505081526020016004820154815260200160058201548152602001600682015481526020016007820160009054906101000a900473ffffffffffffffffffffffffffffffffffffffff1673ffffffffffffffffffffffffffffffffffffffff1673ffffffffffffffffffffffffffffffffffffffff1681526020016008820154815260200160098201548152602001600a8201548152602001600b820160009054906101000a900460ff1615151515815250509050806000015181602001518260400151836060015184608001518560a001518660c001518760e001518861012001518961014001518a61010001519b509b509b509b509b509b509b509b509b509b509b505091939597999b90929496989a50565b6000806001600084815260200190815260200160002060405180610180016040529081600082015481526020016001820180546115f790614cbf565b80601f016020809104026020016040519081016040528092919081815260200182805461162390614cbf565b80156116705780601f1061164557610100808354040283529160200191611670565b820191906000526020600020905b81548152906001019060200180831161165357829003601f168201915b505050505081526020016002820160009054906101000a900473ffffffffffffffffffffffffffffffffffffffff1673ffffffffffffffffffffffffffffffffffffffff1673ffffffffffffffffffffffffffffffffffffffff1681526020016003820180548060200260200160405190810160405280929190818152602001828054801561175457602002820191906000526020600020905b8160009054906101000a900473ffffffffffffffffffffffffffffffffffffffff1673ffffffffffffffffffffffffffffffffffffffff168152602001906001019080831161170a575b505050505081526020016004820154815260200160058201548152602001600682015481526020016007820160009054906101000a900473ffffffffffffffffffffffffffffffffffffffff1673ffffffffffffffffffffffffffffffffffffffff1673ffffffffffffffffffffffffffffffffffffffff1681526020016008820154815260200160098201548152602001600a8201548152602001600b820160009054906101000a900460ff1615151515815250509050806101600151611851576040517f08c379a00000000000000000000000000000000000000000000000000000000081526004016118489061479a565b60405180910390fd5b806040015173ffffffffffffffffffffffffffffffffffffffff163373ffffffffffffffffffffffffffffffffffffffff1614806118e95750600360003373ffffffffffffffffffffffffffffffffffffffff1673ffffffffffffffffffffffffffffffffffffffff168152602001908152602001600020600084815260200190815260200160002060009054906101000a900460ff165b611928576040517f08c379a000000000000000000000000000000000000000000000000000000000815260040161191f9061467a565b60405180910390fd5b6000611938848360400151610ba9565b90506000811115611959576119588260e001518361010001518384612c6a565b5b61196282612d02565b6000600260003373ffffffffffffffffffffffffffffffffffffffff1673ffffffffffffffffffffffffffffffffffffffff16815260200190815260200160002090506000818054905014156119fe57600260003373ffffffffffffffffffffffffffffffffffffffff1673ffffffffffffffffffffffffffffffffffffffff16815260200190815260200160002060006119fd9190613437565b5b60016000868152602001908152602001600020600080820160009055600182016000611a2a9190613458565b6002820160006101000a81549073ffffffffffffffffffffffffffffffffffffffff0219169055600382016000611a619190613498565b6004820160009055600582016000905560068201600090556007820160006101000a81549073ffffffffffffffffffffffffffffffffffffffff021916905560088201600090556009820160009055600a820160009055600b820160006101000a81549060ff02191690555050600360003373ffffffffffffffffffffffffffffffffffffffff1673ffffffffffffffffffffffffffffffffffffffff168152602001908152602001600020600086815260200190815260200160002060006101000a81549060ff02191690557faac53f188a8d770c87ec98b5328fc3545884d401b3aec76b69310e44ce09de5c858460400151856060015185604051611b6b9493929190614961565b60405180910390a160019350505050919050565b611b876129a3565b73ffffffffffffffffffffffffffffffffffffffff16611ba5611c05565b73ffffffffffffffffffffffffffffffffffffffff1614611bfb576040517f08c379a0000000000000000000000000000000000000000000000000000000008152600401611bf2906146fa565b60405180910390fd5b611c03612d9f565b565b60008060019054906101000a900473ffffffffffffffffffffffffffffffffffffffff16905090565b6000808211611c72576040517f08c379a0000000000000000000000000000000000000000000000000000000008152600401611c699061455a565b60405180910390fd5b600060016000858152602001908152602001600020905080600b0160009054906101000a900460ff16611cda576040517f08c379a0000000000000000000000000000000000000000000000000000000008152600401611cd19061479a565b60405180910390fd5b6000816005015411611d21576040517f08c379a0000000000000000000000000000000000000000000000000000000008152600401611d189061481a565b60405180910390fd5b8060020160009054906101000a900473ffffffffffffffffffffffffffffffffffffffff1673ffffffffffffffffffffffffffffffffffffffff163373ffffffffffffffffffffffffffffffffffffffff161480611dd95750600360003373ffffffffffffffffffffffffffffffffffffffff1673ffffffffffffffffffffffffffffffffffffffff168152602001908152602001600020600085815260200190815260200160002060009054906101000a900460ff165b611e18576040517f08c379a0000000000000000000000000000000000000000000000000000000008152600401611e0f9061453a565b60405180910390fd5b6000611e248533610ba9565b905083811015611e69576040517f08c379a0000000000000000000000000000000000000000000000000000000008152600401611e609061469a565b60405180910390fd5b600080611e7a846005015487612b7d565b9150915081611ebe576040517f08c379a0000000000000000000000000000000000000000000000000000000008152600401611eb5906147ba565b60405180910390fd5b808460050181905550611efb8460070160009054906101000a900473ffffffffffffffffffffffffffffffffffffffff1685600801548889612c6a565b6000600560003373ffffffffffffffffffffffffffffffffffffffff1673ffffffffffffffffffffffffffffffffffffffff1681526020019081526020016000205490508681611f4b9190614b72565b600560003373ffffffffffffffffffffffffffffffffffffffff1673ffffffffffffffffffffffffffffffffffffffff168152602001908152602001600020819055506000856005015414156120cc5760016000898152602001908152602001600020600080820160009055600182016000611fc79190613458565b6002820160006101000a81549073ffffffffffffffffffffffffffffffffffffffff0219169055600382016000611ffe9190613498565b6004820160009055600582016000905560068201600090556007820160006101000a81549073ffffffffffffffffffffffffffffffffffffffff021916905560088201600090556009820160009055600a820160009055600b820160006101000a81549060ff02191690555050600360003373ffffffffffffffffffffffffffffffffffffffff1673ffffffffffffffffffffffffffffffffffffffff168152602001908152602001600020600089815260200190815260200160002060006101000a81549060ff02191690555b7f8a8a39e28f42c452d33cea4d81386872966d236e3f5da3e2156efb9d69e5ad6d883389886005015460405161210594939291906149ad565b60405180910390a160019550505050505092915050565b60008060016000858152602001908152602001600020604051806101800160405290816000820154815260200160018201805461215890614cbf565b80601f016020809104026020016040519081016040528092919081815260200182805461218490614cbf565b80156121d15780601f106121a6576101008083540402835291602001916121d1565b820191906000526020600020905b8154815290600101906020018083116121b457829003601f168201915b505050505081526020016002820160009054906101000a900473ffffffffffffffffffffffffffffffffffffffff1673ffffffffffffffffffffffffffffffffffffffff1673ffffffffffffffffffffffffffffffffffffffff168152602001600382018054806020026020016040519081016040528092919081815260200182805480156122b557602002820191906000526020600020905b8160009054906101000a900473ffffffffffffffffffffffffffffffffffffffff1673ffffffffffffffffffffffffffffffffffffffff168152602001906001019080831161226b575b505050505081526020016004820154815260200160058201548152602001600682015481526020016007820160009054906101000a900473ffffffffffffffffffffffffffffffffffffffff1673ffffffffffffffffffffffffffffffffffffffff1673ffffffffffffffffffffffffffffffffffffffff1681526020016008820154815260200160098201548152602001600a8201548152602001600b820160009054906101000a900460ff16151515158152505090508061016001516123b2576040517f08c379a00000000000000000000000000000000000000000000000000000000081526004016123a99061479a565b60405180910390fd5b600360003373ffffffffffffffffffffffffffffffffffffffff1673ffffffffffffffffffffffffffffffffffffffff168152602001908152602001600020600085815260200190815260200160002060009054906101000a900460ff1661244f576040517f08c379a00000000000000000000000000000000000000000000000000000000081526004016124469061467a565b60405180910390fd5b600061245b8585610ba9565b90506124728260e001518361010001518384612c6a565b7f856004f39dc959064f79558d5a3bf9eca82ffc182f7541ad8d33032bd1b1afcc85836040015186846040516124ab9493929190614895565b60405180910390a160019250505092915050565b60006124c9611181565b15612509576040517f08c379a00000000000000000000000000000000000000000000000000000000081526004016125009061465a565b60405180910390fd5b848434858560008585905011612554576040517f08c379a000000000000000000000000000000000000000000000000000000000815260040161254b906145fa565b60405180910390fd5b60008311612597576040517f08c379a000000000000000000000000000000000000000000000000000000000815260040161258e9061459a565b60405180910390fd5b428210156125da576040517f08c379a00000000000000000000000000000000000000000000000000000000081526004016125d1906147da565b60405180910390fd5b81811161261c576040517f08c379a00000000000000000000000000000000000000000000000000000000081526004016126139061485a565b60405180910390fd5b6126678c8c8c8c3460008e8e60006001811115612662577f4e487b7100000000000000000000000000000000000000000000000000000000600052602160045260246000fd5b612770565b955050505050509695505050505050565b6126806129a3565b73ffffffffffffffffffffffffffffffffffffffff1661269e611c05565b73ffffffffffffffffffffffffffffffffffffffff16146126f4576040517f08c379a00000000000000000000000000000000000000000000000000000000081526004016126eb906146fa565b60405180910390fd5b600073ffffffffffffffffffffffffffffffffffffffff168173ffffffffffffffffffffffffffffffffffffffff161415612764576040517f08c379a000000000000000000000000000000000000000000000000000000000815260040161275b9061457a565b60405180910390fd5b61276d81612ba5565b50565b6000878760005b828290508110156127ed576127da8383838181106127be577f4e487b7100000000000000000000000000000000000000000000000000000000600052603260045260246000fd5b90506020020160208101906127d391906136ce565b3033612e41565b80806127e590614cf1565b915050612777565b506127f88a8a612f94565b600061280589888861312d565b9050600060405180610180016040528060065481526020018f8f8080601f016020809104026020016040519081016040528093929190818152602001838380828437600081840152601f19601f8201169050808301925050505050505081526020013373ffffffffffffffffffffffffffffffffffffffff1681526020018d8d80806020026020016040519081016040528093929190818152602001838360200280828437600081840152601f19601f8201169050808301925050505050505081526020018b81526020018b81526020018381526020018a73ffffffffffffffffffffffffffffffffffffffff16815260200187815260200189815260200188815260200160011515815250905061291c816131df565b61292889878c3461339f565b7ff8ad82eb99d91f7afc46e04e5f3f6ab3db8ce8f33ae8bae8c60c3b0f3d562105600654338e8e8e8e8e8e8e604051612969999897969594939291906148da565b60405180910390a16001600660008282546129849190614b72565b9250508190555080600001519450505050509998505050505050505050565b600033905090565b6129b3611181565b6129f2576040517f08c379a00000000000000000000000000000000000000000000000000000000081526004016129e99061451a565b60405180910390fd5b60008060006101000a81548160ff0219169083151502179055507f5db9ee0a495bf2e6ff9c91a7834c1ba4fdd244a5e8aa4e537bd38aeae4b073aa612a356129a3565b604051612a42919061446b565b60405180910390a1565b60008161012001514211612a635760009050612aa1565b816101400151421015612a885781610120015142612a819190614bc8565b9050612aa1565b816101200151826101400151612a9e9190614bc8565b90505b919050565b6000806000841415612abf576001600091509150612b19565b6000838502905083858281612afd577f4e487b7100000000000000000000000000000000000000000000000000000000600052601260045260246000fd5b0414612b10576000809250925050612b19565b60018192509250505b9250929050565b6000806000831415612b385760008091509150612b76565b6001838581612b70577f4e487b7100000000000000000000000000000000000000000000000000000000600052601260045260246000fd5b04915091505b9250929050565b60008083831115612b945760008091509150612b9e565b6001838503915091505b9250929050565b60008060019054906101000a900473ffffffffffffffffffffffffffffffffffffffff16905081600060016101000a81548173ffffffffffffffffffffffffffffffffffffffff021916908373ffffffffffffffffffffffffffffffffffffffff1602179055508173ffffffffffffffffffffffffffffffffffffffff168173ffffffffffffffffffffffffffffffffffffffff167f8be0079c531659141344cd1fd0a4f28419497f9722a3daafe3b4186f6b6457e060405160405180910390a35050565b82600180811115612ca4577f4e487b7100000000000000000000000000000000000000000000000000000000600052602160045260246000fd5b1415612cbb57612cb630338685611197565b612cfc565b600073ffffffffffffffffffffffffffffffffffffffff168473ffffffffffffffffffffffffffffffffffffffff161415612cfb57612cfa338261043d565b5b5b50505050565b60005b816060015151811015612d9b576000612d66836000015184606001518481518110612d59577f4e487b7100000000000000000000000000000000000000000000000000000000600052603260045260246000fd5b6020026020010151610ba9565b90506000811115612d8757612d868360e001518461010001518384612c6a565b5b508080612d9390614cf1565b915050612d05565b5050565b612da7611181565b15612de7576040517f08c379a0000000000000000000000000000000000000000000000000000000008152600401612dde9061465a565b60405180910390fd5b60016000806101000a81548160ff0219169083151502179055507f62e78cea01bee320cd4e420270b5ea74000d11b0c9f74754ebdbfc544b05a258612e2a6129a3565b604051612e37919061446b565b60405180910390a1565b600073ffffffffffffffffffffffffffffffffffffffff168373ffffffffffffffffffffffffffffffffffffffff161415612eb1576040517f08c379a0000000000000000000000000000000000000000000000000000000008152600401612ea89061461a565b60405180910390fd5b8173ffffffffffffffffffffffffffffffffffffffff168373ffffffffffffffffffffffffffffffffffffffff161415612f20576040517f08c379a0000000000000000000000000000000000000000000000000000000008152600401612f17906145da565b60405180910390fd5b8073ffffffffffffffffffffffffffffffffffffffff168373ffffffffffffffffffffffffffffffffffffffff161415612f8f576040517f08c379a0000000000000000000000000000000000000000000000000000000008152600401612f86906144fa565b60405180910390fd5b505050565b60005b8282905081101561312857600160036000858585818110612fe1577f4e487b7100000000000000000000000000000000000000000000000000000000600052603260045260246000fd5b9050602002016020810190612ff691906136ce565b73ffffffffffffffffffffffffffffffffffffffff1673ffffffffffffffffffffffffffffffffffffffff1681526020019081526020016000206000600654815260200190815260200160002060006101000a81548160ff021916908315150217905550600060046000858585818110613099577f4e487b7100000000000000000000000000000000000000000000000000000000600052603260045260246000fd5b90506020020160208101906130ae91906136ce565b73ffffffffffffffffffffffffffffffffffffffff1673ffffffffffffffffffffffffffffffffffffffff168152602001908152602001600020905080600654908060018154018082558091505060019003906000526020600020016000909190919091505550808061312090614cf1565b915050612f97565b505050565b600080600061313c8486612b7d565b9150915081613180576040517f08c379a0000000000000000000000000000000000000000000000000000000008152600401613177906147fa565b60405180910390fd5b60008061318d8884612b20565b91509150816131d1576040517f08c379a00000000000000000000000000000000000000000000000000000000081526004016131c8906146ba565b60405180910390fd5b809450505050509392505050565b80600160008360000151815260200190815260200160002060008201518160000155602082015181600101908051906020019061321d9291906134b9565b5060408201518160020160006101000a81548173ffffffffffffffffffffffffffffffffffffffff021916908373ffffffffffffffffffffffffffffffffffffffff160217905550606082015181600301908051906020019061328192919061353f565b506080820151816004015560a0820151816005015560c0820151816006015560e08201518160070160006101000a81548173ffffffffffffffffffffffffffffffffffffffff021916908373ffffffffffffffffffffffffffffffffffffffff1602179055506101008201518160080155610120820151816009015561014082015181600a015561016082015181600b0160006101000a81548160ff0219169083151502179055509050506000600260003373ffffffffffffffffffffffffffffffffffffffff1673ffffffffffffffffffffffffffffffffffffffff168152602001908152602001600020905080826000015190806001815401808255809150506001900390600052602060002001600090919091909150555050565b826001808111156133d9577f4e487b7100000000000000000000000000000000000000000000000000000000600052602160045260246000fd5b14156133f0576133eb33308685611197565b613431565b600073ffffffffffffffffffffffffffffffffffffffff168473ffffffffffffffffffffffffffffffffffffffff1614156134305761342f308261043d565b5b5b50505050565b508054600082559060005260206000209081019061345591906135c9565b50565b50805461346490614cbf565b6000825580601f106134765750613495565b601f01602090049060005260206000209081019061349491906135c9565b5b50565b50805460008255906000526020600020908101906134b691906135c9565b50565b8280546134c590614cbf565b90600052602060002090601f0160209004810192826134e7576000855561352e565b82601f1061350057805160ff191683800117855561352e565b8280016001018555821561352e579182015b8281111561352d578251825591602001919060010190613512565b5b50905061353b91906135c9565b5090565b8280548282559060005260206000209081019282156135b8579160200282015b828111156135b75782518260006101000a81548173ffffffffffffffffffffffffffffffffffffffff021916908373ffffffffffffffffffffffffffffffffffffffff1602179055509160200191906001019061355f565b5b5090506135c591906135c9565b5090565b5b808211156135e25760008160009055506001016135ca565b5090565b6000813590506135f581614da9565b92915050565b60008135905061360a81614dc0565b92915050565b60008083601f84011261362257600080fd5b8235905067ffffffffffffffff81111561363b57600080fd5b60208301915083602082028301111561365357600080fd5b9250929050565b60008151905061366981614dd7565b92915050565b60008083601f84011261368157600080fd5b8235905067ffffffffffffffff81111561369a57600080fd5b6020830191508360018202830111156136b257600080fd5b9250929050565b6000813590506136c881614dee565b92915050565b6000602082840312156136e057600080fd5b60006136ee848285016135e6565b91505092915050565b6000806000806080858703121561370d57600080fd5b600061371b878288016135e6565b945050602061372c878288016135e6565b935050604061373d878288016135e6565b925050606061374e878288016136b9565b91505092959194509250565b6000806040838503121561376d57600080fd5b600061377b858286016135e6565b925050602061378c858286016136b9565b9150509250929050565b6000602082840312156137a857600080fd5b60006137b68482850161365a565b91505092915050565b60008060008060008060008060c0898b0312156137db57600080fd5b600089013567ffffffffffffffff8111156137f557600080fd5b6138018b828c0161366f565b9850985050602089013567ffffffffffffffff81111561382057600080fd5b61382c8b828c01613610565b9650965050604061383f8b828c016136b9565b94505060606138508b828c016135fb565b93505060806138618b828c016136b9565b92505060a06138728b828c016136b9565b9150509295985092959890939650565b6000806000806000806080878903121561389b57600080fd5b600087013567ffffffffffffffff8111156138b557600080fd5b6138c189828a0161366f565b9650965050602087013567ffffffffffffffff8111156138e057600080fd5b6138ec89828a01613610565b945094505060406138ff89828a016136b9565b925050606061391089828a016136b9565b9150509295509295509295565b60006020828403121561392f57600080fd5b600061393d848285016136b9565b91505092915050565b6000806040838503121561395957600080fd5b6000613967858286016136b9565b9250506020613978858286016135e6565b9150509250929050565b6000806040838503121561399557600080fd5b60006139a3858286016136b9565b92505060206139b4858286016136b9565b9150509250929050565b60006139ca83836139fd565b60208301905092915050565b60006139e28383614438565b60208301905092915050565b6139f781614c56565b82525050565b613a0681614bfc565b82525050565b613a1581614bfc565b82525050565b6000613a278385614b1d565b9350613a3282614aab565b8060005b85811015613a6b57613a488284614b5b565b613a5288826139be565b9750613a5d83614af6565b925050600181019050613a36565b5085925050509392505050565b6000613a8382614ad5565b613a8d8185614b1d565b9350613a9883614ab5565b8060005b83811015613ac9578151613ab088826139be565b9750613abb83614b03565b925050600181019050613a9c565b5085935050505092915050565b6000613ae182614ae0565b613aeb8185614b2e565b9350613af683614ac5565b8060005b83811015613b27578151613b0e88826139d6565b9750613b1983614b10565b925050600181019050613afa565b5085935050505092915050565b613b3d81614c20565b82525050565b6000613b4e82614aeb565b613b588185614b4a565b9350613b68818560208601614c8c565b613b7181614d98565b840191505092915050565b6000613b89601e83614b4a565b91507f726563697069656e742073686f756c64206e6f742062652073656e64657200006000830152602082019050919050565b6000613bc9601483614b4a565b91507f5061757361626c653a206e6f74207061757365640000000000000000000000006000830152602082019050919050565b6000613c09602483614b4a565b91507f726563697069656e74206973206e6f74207265676973746572656420696e206460008301527f506f6f6c000000000000000000000000000000000000000000000000000000006020830152604082019050919050565b6000613c6f600e83614b4a565b91507f616d6f756e74206973207a65726f0000000000000000000000000000000000006000830152602082019050919050565b6000613caf602683614b4a565b91507f4f776e61626c653a206e6577206f776e657220697320746865207a65726f206160008301527f64647265737300000000000000000000000000000000000000000000000000006020830152604082019050919050565b6000613d15602083614b4a565b91507f6465706f7369742073686f756c642062652067726561746572207468616e20306000830152602082019050919050565b6000613d55602383614b4a565b91507f70726f626c656d2077697468207265636570746f72732065786163742072657360008301527f756c7400000000000000000000000000000000000000000000000000000000006020830152604082019050919050565b6000613dbb602583614b4a565b91507f726563697069656e742073686f756c64206e6f74206265207468697320636f6e60008301527f74726163740000000000000000000000000000000000000000000000000000006020830152604082019050919050565b6000613e21602683614b4a565b91507f74686572652073686f756c64206265206174206c65617374206f6e652072656360008301527f697069656e7400000000000000000000000000000000000000000000000000006020830152604082019050919050565b6000613e87601d83614b4a565b91507f6e6f20726563697069656e7420616464726573732070726f76696465640000006000830152602082019050919050565b6000613ec7601783614b4a565b91507f657468657220636f756c64206e6f742062652073656e740000000000000000006000830152602082019050919050565b6000613f07601083614b4a565b91507f5061757361626c653a20706175736564000000000000000000000000000000006000830152602082019050919050565b6000613f47602083614b4a565b91507f64656c6574696f6e206f662064506f6f6c206973206e6f7420616c6c6f7765646000830152602082019050919050565b6000613f87602483614b4a565b91507f7265717565737465642068696768657220616d6f756e74207468616e2072656d60008301527f61696e73000000000000000000000000000000000000000000000000000000006020830152604082019050919050565b6000613fed602383614b4a565b91507f6469766973696f6e20627920277a65726f27206d61792068617665206f63637560008301527f72656400000000000000000000000000000000000000000000000000000000006020830152604082019050919050565b6000614053601883614b4a565b91507f746f6b656e7320636f756c64206e6f742062652073656e7400000000000000006000830152602082019050919050565b6000614093602083614b4a565b91507f4f776e61626c653a2063616c6c6572206973206e6f7420746865206f776e65726000830152602082019050919050565b60006140d3601f83614b4a565b91507f62616c616e63654f66206469766973696f6e206e6f7420706f737369626c65006000830152602082019050919050565b6000614113601c83614b4a565b91507f70726f626c656d207769746820776974686472617720726573756c74000000006000830152602082019050919050565b6000614153601c83614b4a565b91507f70726f626c656d20776974682063726561746f727320726573756c74000000006000830152602082019050919050565b6000614193601283614b4a565b91507f64656c7461202a207261746520697373756500000000000000000000000000006000830152602082019050919050565b60006141d3600083614b3f565b9150600082019050919050565b60006141ed601483614b4a565b91507f44506f6f6c20646f6573206e6f742065786973740000000000000000000000006000830152602082019050919050565b600061422d602583614b4a565b91507f72656d61696e67696e672062616c616e63652063616c63756c6174696f6e206660008301527f61696c65640000000000000000000000000000000000000000000000000000006020830152604082019050919050565b6000614293602a83614b4a565b91507f73746172742074696d652073686f756c6420626520616674657220626c6f636b60008301527f2e74696d657374616d70000000000000000000000000000000000000000000006020830152604082019050919050565b60006142f9602283614b4a565b91507f73746f7054696d652069732067726561746572207468616e207374617274546960008301527f6d650000000000000000000000000000000000000000000000000000000000006020830152604082019050919050565b600061435f601d83614b4a565b91507f6e6f2072656d61696e696e672062616c616e636520696e2064506f6f6c0000006000830152602082019050919050565b600061439f601c83614b4a565b91507f62616c616e63654f6620737562737472616374696f6e206973737565000000006000830152602082019050919050565b60006143df602983614b4a565b91507f73746f7054696d652073686f756c642062652067726561746572207468616e2060008301527f737461727454696d6500000000000000000000000000000000000000000000006020830152604082019050919050565b61444181614c4c565b82525050565b61445081614c4c565b82525050565b6000614461826141c6565b9150819050919050565b60006020820190506144806000830184613a0c565b92915050565b600060608201905061449b6000830186613a0c565b6144a86020830185613a0c565b6144b56040830184614447565b949350505050565b600060208201905081810360008301526144d78184613ad6565b905092915050565b60006020820190506144f46000830184613b34565b92915050565b6000602082019050818103600083015261451381613b7c565b9050919050565b6000602082019050818103600083015261453381613bbc565b9050919050565b6000602082019050818103600083015261455381613bfc565b9050919050565b6000602082019050818103600083015261457381613c62565b9050919050565b6000602082019050818103600083015261459381613ca2565b9050919050565b600060208201905081810360008301526145b381613d08565b9050919050565b600060208201905081810360008301526145d381613d48565b9050919050565b600060208201905081810360008301526145f381613dae565b9050919050565b6000602082019050818103600083015261461381613e14565b9050919050565b6000602082019050818103600083015261463381613e7a565b9050919050565b6000602082019050818103600083015261465381613eba565b9050919050565b6000602082019050818103600083015261467381613efa565b9050919050565b6000602082019050818103600083015261469381613f3a565b9050919050565b600060208201905081810360008301526146b381613f7a565b9050919050565b600060208201905081810360008301526146d381613fe0565b9050919050565b600060208201905081810360008301526146f381614046565b9050919050565b6000602082019050818103600083015261471381614086565b9050919050565b60006020820190508181036000830152614733816140c6565b9050919050565b6000602082019050818103600083015261475381614106565b9050919050565b6000602082019050818103600083015261477381614146565b9050919050565b6000602082019050818103600083015261479381614186565b9050919050565b600060208201905081810360008301526147b3816141e0565b9050919050565b600060208201905081810360008301526147d381614220565b9050919050565b600060208201905081810360008301526147f381614286565b9050919050565b60006020820190508181036000830152614813816142ec565b9050919050565b6000602082019050818103600083015261483381614352565b9050919050565b6000602082019050818103600083015261485381614392565b9050919050565b60006020820190508181036000830152614873816143d2565b9050919050565b600060208201905061488f6000830184614447565b92915050565b60006080820190506148aa6000830187614447565b6148b76020830186613a0c565b6148c46040830185613a0c565b6148d16060830184614447565b95945050505050565b6000610100820190506148f0600083018c614447565b6148fd602083018b613a0c565b818103604083015261491081898b613a1b565b905061491f6060830188614447565b61492c60808301876139ee565b61493960a0830186614447565b61494660c0830185614447565b61495360e0830184614447565b9a9950505050505050505050565b60006080820190506149766000830187614447565b6149836020830186613a0c565b81810360408301526149958185613a78565b90506149a46060830184614447565b95945050505050565b60006080820190506149c26000830187614447565b6149cf6020830186613a0c565b6149dc6040830185614447565b6149e96060830184614447565b95945050505050565b600061016082019050614a08600083018e614447565b8181036020830152614a1a818d613b43565b9050614a29604083018c613a0c565b8181036060830152614a3b818b613a78565b9050614a4a608083018a614447565b614a5760a0830189614447565b614a6460c0830188614447565b614a7160e0830187613a0c565b614a7f610100830186614447565b614a8d610120830185614447565b614a9b610140830184614447565b9c9b505050505050505050505050565b6000819050919050565b6000819050602082019050919050565b6000819050602082019050919050565b600081519050919050565b600081519050919050565b600081519050919050565b6000602082019050919050565b6000602082019050919050565b6000602082019050919050565b600082825260208201905092915050565b600082825260208201905092915050565b600081905092915050565b600082825260208201905092915050565b6000614b6a60208401846135e6565b905092915050565b6000614b7d82614c4c565b9150614b8883614c4c565b9250827fffffffffffffffffffffffffffffffffffffffffffffffffffffffffffffffff03821115614bbd57614bbc614d3a565b5b828201905092915050565b6000614bd382614c4c565b9150614bde83614c4c565b925082821015614bf157614bf0614d3a565b5b828203905092915050565b6000614c0782614c2c565b9050919050565b6000614c1982614c2c565b9050919050565b60008115159050919050565b600073ffffffffffffffffffffffffffffffffffffffff82169050919050565b6000819050919050565b6000614c6182614c68565b9050919050565b6000614c7382614c7a565b9050919050565b6000614c8582614c2c565b9050919050565b60005b83811015614caa578082015181840152602081019050614c8f565b83811115614cb9576000848401525b50505050565b60006002820490506001821680614cd757607f821691505b60208210811415614ceb57614cea614d69565b5b50919050565b6000614cfc82614c4c565b91507fffffffffffffffffffffffffffffffffffffffffffffffffffffffffffffffff821415614d2f57614d2e614d3a565b5b600182019050919050565b7f4e487b7100000000000000000000000000000000000000000000000000000000600052601160045260246000fd5b7f4e487b7100000000000000000000000000000000000000000000000000000000600052602260045260246000fd5b6000601f19601f8301169050919050565b614db281614bfc565b8114614dbd57600080fd5b50565b614dc981614c0e565b8114614dd457600080fd5b50565b614de081614c20565b8114614deb57600080fd5b50565b614df781614c4c565b8114614e0257600080fd5b5056fea2646970667358221220609a2e7de185909c4e6de68c058c6bf1700f81556ed8c7da88ca8ff5ba9b808064736f6c63430008000033",
  "immutableReferences": {},
  "source": "// SPDX-License-Identifier: MIT\r\npragma solidity 0.8.0;\r\n\r\nimport \"@openzeppelin/contracts/access/Ownable.sol\";\r\nimport \"@openzeppelin/contracts/utils/math/SafeMath.sol\";\r\nimport \"@openzeppelin/contracts/token/ERC20/IERC20.sol\";\r\nimport \"@openzeppelin/contracts/security/Pausable.sol\";\r\n\r\nimport \"./Stream.sol\";\r\nimport \"./utils/DPoolUtil.sol\";\r\n\r\n/*\r\n * Extended Crypto distribution protocol\r\n */\r\ncontract DecentralizedPools is Pausable, Ownable {\r\n    // -- derived from Pausable\r\n    // emergency switch\r\n\r\n    event CreateDPool(\r\n        uint256 dpId,\r\n        address sender,\r\n        address[] recipients,\r\n        uint256 deposit,\r\n        address tokenAddress,\r\n        uint256 startTime,\r\n        uint256 stopTime,\r\n        uint256 vType\r\n    );\r\n\r\n    event WithdrawFromDPool(\r\n        uint256 dpId,\r\n        address receiver,\r\n        uint256 amount,\r\n        uint256 remainingBalance\r\n    );\r\n\r\n    event DeleteDPool(\r\n        uint256 dpId,\r\n        address sender,\r\n        address[] recipients,\r\n        uint256 dPoolBalance\r\n    );\r\n\r\n    event DeleteRecipientsFromDPool(\r\n        uint256 dpId,\r\n        address sender,\r\n        address recipient,\r\n        uint256 dPoolBalance\r\n    );\r\n\r\n    // different pools by their ids\r\n    mapping(uint256 => Stream.DPool) dPools;\r\n\r\n    // get all pool ids by creator\r\n    mapping(address => uint256[]) dPoolIdsByCreator;\r\n\r\n    // map every existing recipient address by dPoolId\r\n    mapping(address => mapping(uint256 => bool)) recipientsByDPoolId;\r\n\r\n    // get dPool ids by recipient\r\n    mapping(address => uint256[]) recipientDPoolIds;\r\n\r\n    // every recipient has a withdrawnAmount\r\n    mapping(address => uint256) recipientWithdrawnAmount;\r\n\r\n    // ident of every new dPool\r\n    uint256 dPoolIdCounter = 1;\r\n\r\n    // validates inputs for new dPool\r\n    modifier validateInput(\r\n        address[] calldata recipients,\r\n        uint256 deposit,\r\n        uint256 startTime,\r\n        uint256 stopTime\r\n    ) {\r\n        require(\r\n            recipients.length > 0,\r\n            \"there should be at least one recipient\"\r\n        );\r\n        require(deposit > 0, \"deposit should be greater than 0\");\r\n        require(\r\n            startTime >= block.timestamp,\r\n            \"start time should be after block.timestamp\"\r\n        );\r\n        require(\r\n            stopTime > startTime,\r\n            \"stopTime should be greater than startTime\"\r\n        );\r\n        _;\r\n    }\r\n\r\n    // validates and stores recipients in mapping\r\n    modifier validateRecipients(address[] calldata recipients) {\r\n        for (uint256 i = 0; i < recipients.length; i++) {\r\n            DPoolUtil.validateRecipient(\r\n                recipients[i],\r\n                address(this),\r\n                msg.sender\r\n            );\r\n        }\r\n        _;\r\n    }\r\n\r\n    constructor() {}\r\n\r\n    /*\r\n     * @notice Shutdown DPool creation.\r\n     */\r\n    function emergencySwitchOn() public onlyOwner {\r\n        _pause();\r\n    }\r\n\r\n    /*\r\n     * @notice Activate DPool creation.\r\n     */\r\n    function emergencySwitchOff() public onlyOwner {\r\n        _unpause();\r\n    }\r\n\r\n    /*\r\n     * @notice Get all dPoolIds by recipient msg address.\r\n     */\r\n    function getRecipientDPoolIds() external view returns (uint256[] memory) {\r\n        return recipientDPoolIds[msg.sender];\r\n    }\r\n\r\n    /*\r\n     * @notice Get all dPoolIds by creator msg address.\r\n     */\r\n    function getDPoolsCount() external view returns (uint256) {\r\n        uint256[] memory _dPoolIds = dPoolIdsByCreator[msg.sender];\r\n        return _dPoolIds.length;\r\n    }\r\n\r\n    /*\r\n     * @notice Retrieve DPool by given index and the calling address.\r\n     * @param dPoolId\r\n     */\r\n    function getDPool(uint256 index)\r\n        external\r\n        view\r\n        returns (\r\n            uint256,\r\n            string memory,\r\n            address,\r\n            address[] memory,\r\n            uint256,\r\n            uint256,\r\n            uint256,\r\n            address,\r\n            uint256,\r\n            uint256,\r\n            uint256\r\n        )\r\n    {\r\n        uint256 dPoolId = dPoolIdsByCreator[msg.sender][index];\r\n        Stream.DPool memory _dPool = dPools[dPoolId];\r\n        return (\r\n            _dPool.dPoolId,\r\n            _dPool.dPoolName,\r\n            _dPool.creator,\r\n            _dPool.recipients,\r\n            _dPool.deposit,\r\n            _dPool.remainingBalance,\r\n            _dPool.ratePerSecond,\r\n            _dPool.tokenAddress,\r\n            _dPool.startTime,\r\n            _dPool.stopTime,\r\n            _dPool.dVType\r\n        );\r\n    }\r\n\r\n    /*\r\n     * @notice Retrieve DPool by given id.\r\n     * @param dPoolId\r\n     */\r\n    function getDPoolById(uint256 dPId)\r\n        external\r\n        view\r\n        returns (\r\n            uint256,\r\n            string memory,\r\n            address,\r\n            address[] memory,\r\n            uint256,\r\n            uint256,\r\n            uint256,\r\n            address,\r\n            uint256,\r\n            uint256,\r\n            uint256\r\n        )\r\n    {\r\n        Stream.DPool memory _dPool = dPools[dPId];\r\n        return (\r\n            _dPool.dPoolId,\r\n            _dPool.dPoolName,\r\n            _dPool.creator,\r\n            _dPool.recipients,\r\n            _dPool.deposit,\r\n            _dPool.remainingBalance,\r\n            _dPool.ratePerSecond,\r\n            _dPool.tokenAddress,\r\n            _dPool.startTime,\r\n            _dPool.stopTime,\r\n            _dPool.dVType\r\n        );\r\n    }\r\n\r\n    /*\r\n     * @notice Creates a DPool with ETH.\r\n     */\r\n    function createEthDPool(\r\n        string calldata dPoolName,\r\n        address[] calldata recipients,\r\n        uint256 startTime,\r\n        uint256 stopTime\r\n    )\r\n        public\r\n        payable\r\n        whenNotPaused\r\n        validateInput(recipients, msg.value, startTime, stopTime)\r\n        returns (uint256)\r\n    {\r\n        return\r\n            createDPool(\r\n                dPoolName,\r\n                recipients,\r\n                msg.value,\r\n                payable(address(0x0)),\r\n                startTime,\r\n                stopTime,\r\n                uint256(Stream.DValueType.ETH)\r\n            );\r\n    }\r\n\r\n    /*\r\n     * @notice Creates a DPool with tokens.\r\n     */\r\n    function createTokenDPool(\r\n        string calldata dPoolName,\r\n        address[] calldata recipients,\r\n        uint256 deposit,\r\n        address payable tokenAddress,\r\n        uint256 startTime,\r\n        uint256 stopTime\r\n    )\r\n        public\r\n        payable\r\n        whenNotPaused\r\n        validateInput(recipients, deposit, startTime, stopTime)\r\n        returns (uint256)\r\n    {\r\n        return\r\n            createDPool(\r\n                dPoolName,\r\n                recipients,\r\n                deposit,\r\n                tokenAddress,\r\n                startTime,\r\n                stopTime,\r\n                uint256(Stream.DValueType.TOKEN)\r\n            );\r\n    }\r\n\r\n    /*\r\n     * @notice Creates a DPool that starts automatically calculating rates per second\r\n     *  when startTime is reached.\r\n     * @param _recipients - all the recipients who will receive and withdraw from pool\r\n     * @param _deposit - the amount of ether or tokens in pool\r\n     * @param _tokenAddress - ERC20 token address\r\n     * @param _type used value type\r\n     * @param _startTime - of the distribution\r\n     * @param _stopTime - of the distribution\r\n     */\r\n    function createDPool(\r\n        string calldata _dPoolName,\r\n        address[] calldata _recipients,\r\n        uint256 _deposit,\r\n        address payable _tokenAddress,\r\n        uint256 _startTime,\r\n        uint256 _stopTime,\r\n        uint256 _type\r\n    ) internal validateRecipients(_recipients) returns (uint256) {\r\n        mapRecipients(_recipients);\r\n        uint256 _ratePerSecond = DPoolUtil.calculateRPS(\r\n            _deposit,\r\n            _startTime,\r\n            _stopTime\r\n        );\r\n\r\n        Stream.DPool memory dPool = Stream.DPool({\r\n            dPoolId: dPoolIdCounter,\r\n            dPoolName: _dPoolName,\r\n            creator: msg.sender,\r\n            recipients: _recipients,\r\n            deposit: _deposit,\r\n            remainingBalance: _deposit,\r\n            ratePerSecond: _ratePerSecond,\r\n            tokenAddress: _tokenAddress,\r\n            dVType: _type,\r\n            startTime: _startTime,\r\n            stopTime: _stopTime,\r\n            isCreated: true\r\n        });\r\n\r\n        saveDPool(dPool);\r\n        transferToContract(_tokenAddress, _type, _deposit, msg.value);\r\n\r\n        emit CreateDPool(\r\n            dPoolIdCounter,\r\n            msg.sender,\r\n            _recipients,\r\n            _deposit,\r\n            _tokenAddress,\r\n            _startTime,\r\n            _stopTime,\r\n            _type\r\n        );\r\n\r\n        dPoolIdCounter += uint256(1);\r\n\r\n        return dPool.dPoolId;\r\n    }\r\n\r\n    // save given dPool on chain and map dPoolId\r\n    function saveDPool(Stream.DPool memory dPool) private {\r\n        dPools[dPool.dPoolId] = dPool;\r\n        uint256[] storage creatorPoolIds = dPoolIdsByCreator[msg.sender];\r\n        creatorPoolIds.push(dPool.dPoolId);\r\n    }\r\n\r\n    // transfers tokens to contract\r\n    function transferTokens(\r\n        address fromSender,\r\n        address toAddress,\r\n        address tokenAddress,\r\n        uint256 amount\r\n    ) public payable {\r\n        bool sent = IERC20(tokenAddress).transferFrom(\r\n            fromSender,\r\n            toAddress,\r\n            amount\r\n        );\r\n        require(sent, \"tokens could not be sent\");\r\n    }\r\n\r\n    // transfers ether to contract\r\n    function transferEther(address requester, uint256 amount) public payable {\r\n        (bool sent, bytes memory data) = requester.call{value: amount}(\"\");\r\n        require(sent, \"ether could not be sent\");\r\n    }\r\n\r\n    // transfer tokens or ether\r\n    function transferToContract(\r\n        address tokenAddress,\r\n        uint256 dVType,\r\n        uint256 tokenAmount,\r\n        uint256 ethAmount\r\n    ) internal {\r\n        if (uint256(Stream.DValueType.TOKEN) == dVType) {\r\n            transferTokens(\r\n                msg.sender,\r\n                address(this),\r\n                tokenAddress,\r\n                tokenAmount\r\n            );\r\n        } else if (tokenAddress == address(0x0)) {\r\n            transferEther(address(this), ethAmount);\r\n        }\r\n    }\r\n\r\n    // withdraw tokens or ether\r\n    function withdrawFromContract(\r\n        address tokenAddress,\r\n        uint256 dVType,\r\n        uint256 tokenAmount,\r\n        uint256 ethAmount\r\n    ) internal {\r\n        if (uint256(Stream.DValueType.TOKEN) == dVType) {\r\n            transferTokens(\r\n                address(this),\r\n                msg.sender,\r\n                tokenAddress,\r\n                tokenAmount\r\n            );\r\n        } else if (tokenAddress == address(0x0)) {\r\n            transferEther(msg.sender, ethAmount);\r\n        }\r\n    }\r\n\r\n    /*\r\n     * @notice Calculates the accumulated balance for a single address according to passed time.\r\n     * @param dpId - id of a dPool\r\n     * @param requester - address of a single recipient\r\n     * @param recipientSize - the size/length of existing recipients in dPool\r\n     * @returns balance - of the recipient or the sender/creator of dPool\r\n     */\r\n    function balanceOf(uint256 dpId, address requester)\r\n        public\r\n        view\r\n        returns (uint256)\r\n    {\r\n        Stream.DPool memory dPool = dPools[dpId];\r\n        uint256 delta = DPoolUtil.deltaOf(dPool);\r\n\r\n        (bool totalResult, uint256 totalRecipientBalance) = SafeMath.tryMul(\r\n            delta,\r\n            dPool.ratePerSecond\r\n        );\r\n        require(totalResult, \"delta * rate issue\");\r\n\r\n        if (totalRecipientBalance == 0) {\r\n            return 0;\r\n        }\r\n\r\n        (bool currentResult, uint256 individualRecipientBalance) = SafeMath\r\n            .tryDiv(totalRecipientBalance, dPool.recipients.length);\r\n        require(currentResult, \"balanceOf division not possible\");\r\n\r\n        uint256 receptorWithdrawnAmount = recipientWithdrawnAmount[requester];\r\n\r\n        if (receptorWithdrawnAmount > 0) {\r\n            (bool withdrawResult, uint256 withdrawn) = SafeMath.trySub(\r\n                dPool.deposit,\r\n                dPool.remainingBalance\r\n            );\r\n            require(withdrawResult, \"problem with withdraw result\");\r\n            if (requester == dPool.creator) {\r\n                (\r\n                    bool exactResultCreator,\r\n                    uint256 exactRemainsCreator\r\n                ) = SafeMath.trySub(totalRecipientBalance, withdrawn);\r\n                require(exactResultCreator, \"problem with creators result\");\r\n                totalRecipientBalance = exactRemainsCreator;\r\n            } else {\r\n                (bool exactResult, uint256 exactRemains) = SafeMath.trySub(\r\n                    individualRecipientBalance,\r\n                    withdrawn\r\n                );\r\n                require(exactResult, \"problem with receptors exact result\");\r\n                individualRecipientBalance = exactRemains;\r\n            }\r\n        }\r\n\r\n        if (recipientsByDPoolId[requester][dPool.dPoolId]) {\r\n            return individualRecipientBalance;\r\n        }\r\n\r\n        if (requester == dPool.creator) {\r\n            (bool senderResult, uint256 senderBalance) = SafeMath.trySub(\r\n                dPool.remainingBalance,\r\n                totalRecipientBalance\r\n            );\r\n            require(senderResult, \"balanceOf substraction issue\");\r\n\r\n            return senderBalance;\r\n        }\r\n\r\n        return 0;\r\n    }\r\n\r\n    event Logger(string txt, address sender, address spender, uint256 l);\r\n\r\n    /*\r\n     * @notice Sender will receive requested amount, if the registered address is in dPool\r\n     *  and remaingBalance of dPool is greater zero.\r\n     * @param dpId - identification of dPool\r\n     * @param amount - requested from sender\r\n     * @returns true - if function executes fantastically\r\n     */\r\n    function withdrawFromDPool(uint256 dpId, uint256 amount)\r\n        public\r\n        payable\r\n        returns (bool)\r\n    {\r\n        /* To safe transaction cost some call constraints are deliberately inside the function\r\n            and not in modifiers.\r\n        */\r\n        require(amount > 0, \"amount is zero\");\r\n        Stream.DPool storage dPool = dPools[dpId];\r\n        require(dPool.isCreated, \"DPool does not exist\");\r\n        require(dPool.remainingBalance > 0, \"no remaining balance in dPool\");\r\n        require(\r\n            msg.sender == dPool.creator ||\r\n                recipientsByDPoolId[msg.sender][dpId],\r\n            \"recipient is not registered in dPool\"\r\n        );\r\n\r\n        uint256 cBalance = balanceOf(dpId, msg.sender);\r\n\r\n        require(cBalance >= amount, \"requested higher amount than remains\");\r\n\r\n        (bool result, uint256 newRemainingBalance) = SafeMath.trySub(\r\n            dPool.remainingBalance,\r\n            amount\r\n        );\r\n        require(result, \"remainging balance calculation failed\");\r\n\r\n        dPool.remainingBalance = newRemainingBalance;\r\n\r\n        withdrawFromContract(dPool.tokenAddress, dPool.dVType, amount, amount);\r\n\r\n        uint256 receptorWithdrawnAmount = recipientWithdrawnAmount[msg.sender];\r\n        recipientWithdrawnAmount[msg.sender] = receptorWithdrawnAmount + amount;\r\n\r\n        if (dPool.remainingBalance == 0) {\r\n            delete dPools[dpId];\r\n            delete recipientsByDPoolId[msg.sender][dpId];\r\n        }\r\n\r\n        emit WithdrawFromDPool(\r\n            dpId,\r\n            msg.sender,\r\n            amount,\r\n            dPool.remainingBalance\r\n        );\r\n\r\n        return true;\r\n    }\r\n\r\n    /*\r\n     * @notice Deletes dPool for given dpId and send remaining balance to creator\r\n     */\r\n    function deleteDPool(uint256 dpId) external returns (bool) {\r\n        Stream.DPool memory dPool = dPools[dpId];\r\n        require(dPool.isCreated, \"DPool does not exist\");\r\n        require(\r\n            msg.sender == dPool.creator ||\r\n                recipientsByDPoolId[msg.sender][dpId],\r\n            \"deletion of dPool is not allowed\"\r\n        );\r\n\r\n        uint256 dPoolBalance = balanceOf(dpId, dPool.creator);\r\n\r\n        if (dPoolBalance > 0) {\r\n            withdrawFromContract(\r\n                dPool.tokenAddress,\r\n                dPool.dVType,\r\n                dPoolBalance,\r\n                dPoolBalance\r\n            );\r\n        }\r\n\r\n        transferRecipientBalances(dPool);\r\n\r\n        // TODO delete creator pool id !!!!\r\n\r\n        uint256[] storage creatorPoolIds = dPoolIdsByCreator[msg.sender];\r\n\r\n        if (creatorPoolIds.length == 0) {\r\n            delete dPoolIdsByCreator[msg.sender];\r\n        }\r\n        delete dPools[dpId];\r\n        delete recipientsByDPoolId[msg.sender][dpId];\r\n\r\n        emit DeleteDPool(dpId, dPool.creator, dPool.recipients, dPoolBalance);\r\n\r\n        return true;\r\n    }\r\n\r\n    function deleteRecipientFromDPool(uint256 dpId, address recipient)\r\n        external\r\n        returns (bool)\r\n    {\r\n        Stream.DPool memory dPool = dPools[dpId];\r\n        require(dPool.isCreated, \"DPool does not exist\");\r\n        require(\r\n            recipientsByDPoolId[msg.sender][dpId],\r\n            \"deletion of dPool is not allowed\"\r\n        );\r\n\r\n        uint256 dPoolBalance = balanceOf(dpId, recipient);\r\n        withdrawFromContract(\r\n            dPool.tokenAddress,\r\n            dPool.dVType,\r\n            dPoolBalance,\r\n            dPoolBalance\r\n        );\r\n\r\n        emit DeleteRecipientsFromDPool(\r\n            dpId,\r\n            dPool.creator,\r\n            recipient,\r\n            dPoolBalance\r\n        );\r\n\r\n        return true;\r\n    }\r\n\r\n    function transferRecipientBalances(Stream.DPool memory dPool) internal {\r\n        for (uint256 i = 0; i < dPool.recipients.length; i++) {\r\n            uint256 recipientBalance = balanceOf(\r\n                dPool.dPoolId,\r\n                dPool.recipients[i]\r\n            );\r\n\r\n            if (recipientBalance > 0) {\r\n                withdrawFromContract(\r\n                    dPool.tokenAddress,\r\n                    dPool.dVType,\r\n                    recipientBalance,\r\n                    recipientBalance\r\n                );\r\n            }\r\n        }\r\n    }\r\n\r\n    // maps given recipients by dPoolId\r\n    function mapRecipients(address[] calldata recipients) internal {\r\n        for (uint256 i = 0; i < recipients.length; i++) {\r\n            recipientsByDPoolId[recipients[i]][dPoolIdCounter] = true;\r\n            uint256[] storage dPIds = recipientDPoolIds[recipients[i]];\r\n            dPIds.push(dPoolIdCounter);\r\n        }\r\n    }\r\n\r\n    fallback() external payable {}\r\n\r\n    receive() external payable {}\r\n}\r\n",
  "sourcePath": "C:\\Users\\Magomed\\Desktop\\Test_blockchain_Project\\consensys_projects\\blockchain-developer-bootcamp-final-project\\contracts\\DecentralizedPools.sol",
  "compiler": {
    "name": "solc",
    "version": "0.8.0+commit.c7dfd78e.Emscripten.clang"
  },
  "schemaVersion": "3.4.3",
  "updatedAt": "2021-11-19T15:05:01.636Z",
  "networkType": "ethereum",
  "devdoc": {
    "kind": "dev",
    "methods": {
      "owner()": {
        "details": "Returns the address of the current owner."
      },
      "paused()": {
        "details": "Returns true if the contract is paused, and false otherwise."
      },
      "renounceOwnership()": {
        "details": "Leaves the contract without owner. It will not be possible to call `onlyOwner` functions anymore. Can only be called by the current owner. NOTE: Renouncing ownership will leave the contract without an owner, thereby removing any functionality that is only available to the owner."
      },
      "transferOwnership(address)": {
        "details": "Transfers ownership of the contract to a new account (`newOwner`). Can only be called by the current owner."
      }
    },
    "version": 1
  },
  "userdoc": {
    "kind": "user",
    "methods": {},
    "version": 1
  }
}