{
  "contractName": "DecentralizedPools",
  "abi": [
    {
      "inputs": [],
      "stateMutability": "nonpayable",
      "type": "constructor"
    },
    {
      "anonymous": false,
      "inputs": [
        {
          "indexed": false,
          "internalType": "uint256",
          "name": "dpId",
          "type": "uint256"
        },
        {
          "indexed": false,
          "internalType": "address",
          "name": "sender",
          "type": "address"
        },
        {
          "indexed": false,
          "internalType": "address[]",
          "name": "recipients",
          "type": "address[]"
        },
        {
          "indexed": false,
          "internalType": "uint256",
          "name": "deposit",
          "type": "uint256"
        },
        {
          "indexed": false,
          "internalType": "uint256",
          "name": "ratePerSecond",
          "type": "uint256"
        },
        {
          "indexed": false,
          "internalType": "address",
          "name": "tokenAddress",
          "type": "address"
        },
        {
          "indexed": false,
          "internalType": "uint256",
          "name": "startTime",
          "type": "uint256"
        },
        {
          "indexed": false,
          "internalType": "uint256",
          "name": "stopTime",
          "type": "uint256"
        },
        {
          "indexed": false,
          "internalType": "uint256",
          "name": "vType",
          "type": "uint256"
        }
      ],
      "name": "CreateDPool",
      "type": "event"
    },
    {
      "anonymous": false,
      "inputs": [
        {
          "indexed": false,
          "internalType": "uint256",
          "name": "dpId",
          "type": "uint256"
        },
        {
          "indexed": false,
          "internalType": "address",
          "name": "sender",
          "type": "address"
        },
        {
          "indexed": false,
          "internalType": "address[]",
          "name": "recipients",
          "type": "address[]"
        },
        {
          "indexed": false,
          "internalType": "uint256",
          "name": "dPoolBalance",
          "type": "uint256"
        }
      ],
      "name": "DeleteDPool",
      "type": "event"
    },
    {
      "anonymous": false,
      "inputs": [
        {
          "indexed": false,
          "internalType": "uint256",
          "name": "dpId",
          "type": "uint256"
        },
        {
          "indexed": false,
          "internalType": "address",
          "name": "sender",
          "type": "address"
        },
        {
          "indexed": false,
          "internalType": "address",
          "name": "recipient",
          "type": "address"
        },
        {
          "indexed": false,
          "internalType": "uint256",
          "name": "dPoolBalance",
          "type": "uint256"
        }
      ],
      "name": "DeleteRecipientsFromDPool",
      "type": "event"
    },
    {
      "anonymous": false,
      "inputs": [
        {
          "indexed": false,
          "internalType": "string",
          "name": "txt",
          "type": "string"
        },
        {
          "indexed": false,
          "internalType": "address",
          "name": "sender",
          "type": "address"
        },
        {
          "indexed": false,
          "internalType": "address",
          "name": "spender",
          "type": "address"
        },
        {
          "indexed": false,
          "internalType": "uint256",
          "name": "l",
          "type": "uint256"
        }
      ],
      "name": "Logger",
      "type": "event"
    },
    {
      "anonymous": false,
      "inputs": [
        {
          "indexed": false,
          "internalType": "uint256",
          "name": "dpId",
          "type": "uint256"
        },
        {
          "indexed": false,
          "internalType": "address",
          "name": "receiver",
          "type": "address"
        },
        {
          "indexed": false,
          "internalType": "uint256",
          "name": "amount",
          "type": "uint256"
        },
        {
          "indexed": false,
          "internalType": "uint256",
          "name": "remainingBalance",
          "type": "uint256"
        }
      ],
      "name": "WithdrawFromDPool",
      "type": "event"
    },
    {
      "stateMutability": "payable",
      "type": "fallback",
      "payable": true
    },
    {
      "inputs": [],
      "name": "owner",
      "outputs": [
        {
          "internalType": "address",
          "name": "",
          "type": "address"
        }
      ],
      "stateMutability": "view",
      "type": "function",
      "constant": true
    },
    {
      "stateMutability": "payable",
      "type": "receive",
      "payable": true
    },
    {
      "inputs": [
        {
          "internalType": "uint256",
          "name": "dpId",
          "type": "uint256"
        }
      ],
      "name": "getDPool",
      "outputs": [
        {
          "internalType": "uint256",
          "name": "",
          "type": "uint256"
        },
        {
          "internalType": "address",
          "name": "",
          "type": "address"
        },
        {
          "internalType": "address[]",
          "name": "",
          "type": "address[]"
        },
        {
          "internalType": "uint256",
          "name": "",
          "type": "uint256"
        },
        {
          "internalType": "uint256",
          "name": "",
          "type": "uint256"
        },
        {
          "internalType": "uint256",
          "name": "",
          "type": "uint256"
        },
        {
          "internalType": "address",
          "name": "",
          "type": "address"
        },
        {
          "internalType": "uint256",
          "name": "",
          "type": "uint256"
        },
        {
          "internalType": "uint256",
          "name": "",
          "type": "uint256"
        },
        {
          "internalType": "bool",
          "name": "",
          "type": "bool"
        },
        {
          "internalType": "uint256",
          "name": "",
          "type": "uint256"
        }
      ],
      "stateMutability": "view",
      "type": "function",
      "constant": true
    },
    {
      "inputs": [
        {
          "internalType": "address[]",
          "name": "recipients",
          "type": "address[]"
        },
        {
          "internalType": "uint256",
          "name": "startTime",
          "type": "uint256"
        },
        {
          "internalType": "uint256",
          "name": "stopTime",
          "type": "uint256"
        }
      ],
      "name": "createEthDPool",
      "outputs": [
        {
          "internalType": "uint256",
          "name": "",
          "type": "uint256"
        }
      ],
      "stateMutability": "payable",
      "type": "function",
      "payable": true
    },
    {
      "inputs": [
        {
          "internalType": "address[]",
          "name": "recipients",
          "type": "address[]"
        },
        {
          "internalType": "uint256",
          "name": "deposit",
          "type": "uint256"
        },
        {
          "internalType": "address payable",
          "name": "tokenAddress",
          "type": "address"
        },
        {
          "internalType": "uint256",
          "name": "startTime",
          "type": "uint256"
        },
        {
          "internalType": "uint256",
          "name": "stopTime",
          "type": "uint256"
        }
      ],
      "name": "createTokenDPool",
      "outputs": [
        {
          "internalType": "uint256",
          "name": "",
          "type": "uint256"
        }
      ],
      "stateMutability": "payable",
      "type": "function",
      "payable": true
    },
    {
      "inputs": [
        {
          "internalType": "address",
          "name": "fromSender",
          "type": "address"
        },
        {
          "internalType": "address",
          "name": "toAddress",
          "type": "address"
        },
        {
          "internalType": "address",
          "name": "tokenAddress",
          "type": "address"
        },
        {
          "internalType": "uint256",
          "name": "amount",
          "type": "uint256"
        }
      ],
      "name": "transferTokens",
      "outputs": [],
      "stateMutability": "payable",
      "type": "function",
      "payable": true
    },
    {
      "inputs": [
        {
          "internalType": "address",
          "name": "requester",
          "type": "address"
        },
        {
          "internalType": "uint256",
          "name": "amount",
          "type": "uint256"
        }
      ],
      "name": "transferEther",
      "outputs": [],
      "stateMutability": "payable",
      "type": "function",
      "payable": true
    },
    {
      "inputs": [
        {
          "internalType": "uint256",
          "name": "dpId",
          "type": "uint256"
        },
        {
          "internalType": "address",
          "name": "requester",
          "type": "address"
        }
      ],
      "name": "balanceOf",
      "outputs": [
        {
          "internalType": "uint256",
          "name": "",
          "type": "uint256"
        }
      ],
      "stateMutability": "view",
      "type": "function",
      "constant": true
    },
    {
      "inputs": [
        {
          "internalType": "uint256",
          "name": "dpId",
          "type": "uint256"
        },
        {
          "internalType": "uint256",
          "name": "amount",
          "type": "uint256"
        }
      ],
      "name": "withdrawFromDPool",
      "outputs": [
        {
          "internalType": "bool",
          "name": "",
          "type": "bool"
        }
      ],
      "stateMutability": "payable",
      "type": "function",
      "payable": true
    },
    {
      "inputs": [
        {
          "internalType": "uint256",
          "name": "dpId",
          "type": "uint256"
        }
      ],
      "name": "deleteDPool",
      "outputs": [
        {
          "internalType": "bool",
          "name": "",
          "type": "bool"
        }
      ],
      "stateMutability": "nonpayable",
      "type": "function"
    },
    {
      "inputs": [
        {
          "internalType": "uint256",
          "name": "dpId",
          "type": "uint256"
        },
        {
          "internalType": "address",
          "name": "recipient",
          "type": "address"
        }
      ],
      "name": "deleteRecipientFromDPool",
      "outputs": [
        {
          "internalType": "bool",
          "name": "",
          "type": "bool"
        }
      ],
      "stateMutability": "nonpayable",
      "type": "function"
    }
  ],
  "bytecode": "0x6080604052600160035534801561001557600080fd5b50336000806101000a81548173ffffffffffffffffffffffffffffffffffffffff021916908373ffffffffffffffffffffffffffffffffffffffff160217905550613afd806100656000396000f3fe6080604052600436106100955760003560e01c806368155ec11161005957806368155ec11461019e5780637f6482f0146101ba5780638da5cb5b146101f7578063d4cc4a5f14610222578063dfd51670146102525761009c565b806305b1137b1461009e5780630965644f146100ba57806314006d24146100ea5780633656eec214610131578063456705ee1461016e5761009c565b3661009c57005b005b6100b860048036038101906100b39190612763565b61028f565b005b6100d460048036038101906100cf9190612831565b610343565b6040516100e19190613619565b60405180910390f35b3480156100f657600080fd5b50610111600480360381019061010c91906128c6565b610645565b6040516101289b9a9998979695949392919061375b565b60405180910390f35b34801561013d57600080fd5b5061015860048036038101906101539190612918565b610874565b6040516101659190613619565b60405180910390f35b6101886004803603810190610183919061279f565b610c22565b6040516101959190613619565b60405180910390f35b6101b860048036038101906101b39190612700565b610f2d565b005b3480156101c657600080fd5b506101e160048036038101906101dc91906128c6565b611007565b6040516101ee91906132d4565b60405180910390f35b34801561020357600080fd5b5061020c61148b565b6040516102199190613259565b60405180910390f35b61023c60048036038101906102379190612954565b6114af565b60405161024991906132d4565b60405180910390f35b34801561025e57600080fd5b5061027960048036038101906102749190612918565b6119fd565b60405161028691906132d4565b60405180910390f35b6000808373ffffffffffffffffffffffffffffffffffffffff16836040516102b690613244565b60006040518083038185875af1925050503d80600081146102f3576040519150601f19603f3d011682016040523d82523d6000602084013e6102f8565b606091505b50915091508161033d576040517f08c379a000000000000000000000000000000000000000000000000000000000815260040161033490613439565b60405180910390fd5b50505050565b6000848480806020026020016040519081016040528093929190818152602001838360200280828437600081840152601f19601f8201169050808301925050505050505034848460008451116103ce576040517f08c379a00000000000000000000000000000000000000000000000000000000081526004016103c5906133f9565b60405180910390fd5b60008311610411576040517f08c379a00000000000000000000000000000000000000000000000000000000081526004016104089061336f565b60405180910390fd5b42821015610454576040517f08c379a000000000000000000000000000000000000000000000000000000000815260040161044b90613579565b60405180910390fd5b818111610496576040517f08c379a000000000000000000000000000000000000000000000000000000000815260040161048d906135f9565b60405180910390fd5b888880806020026020016040519081016040528093929190818152602001838360200280828437600081840152601f19601f8201169050808301925050505050505060005b81518110156105ed5761052f828281518110610520577f4e487b7100000000000000000000000000000000000000000000000000000000600052603260045260246000fd5b60200260200101513033611d0d565b60016002600084848151811061056e577f4e487b7100000000000000000000000000000000000000000000000000000000600052603260045260246000fd5b602002602001015173ffffffffffffffffffffffffffffffffffffffff1673ffffffffffffffffffffffffffffffffffffffff1681526020019081526020016000206000600354815260200190815260200160002060006101000a81548160ff02191690831515021790555080806105e5906139f3565b9150506104db565b506106368a8a34600080600181111561062f577f4e487b7100000000000000000000000000000000000000000000000000000000600052602160045260246000fd5b8d8d611e60565b95505050505050949350505050565b60008060606000806000806000806000806000600160008e815260200190815260200160002060405180610160016040529081600082015481526020016001820160009054906101000a900473ffffffffffffffffffffffffffffffffffffffff1673ffffffffffffffffffffffffffffffffffffffff1673ffffffffffffffffffffffffffffffffffffffff1681526020016002820180548060200260200160405190810160405280929190818152602001828054801561075c57602002820191906000526020600020905b8160009054906101000a900473ffffffffffffffffffffffffffffffffffffffff1673ffffffffffffffffffffffffffffffffffffffff1681526020019060010190808311610712575b505050505081526020016003820154815260200160048201548152602001600582015481526020016006820160009054906101000a900473ffffffffffffffffffffffffffffffffffffffff1673ffffffffffffffffffffffffffffffffffffffff1673ffffffffffffffffffffffffffffffffffffffff168152602001600782015481526020016008820154815260200160098201548152602001600a820160009054906101000a900460ff1615151515815250509050806000015181602001518260400151836060015184608001518560a001518660c001518761010001518861012001518961014001518a60e001519b509b509b509b509b509b509b509b509b509b509b505091939597999b90929496989a50565b6000806001600085815260200190815260200160002060405180610160016040529081600082015481526020016001820160009054906101000a900473ffffffffffffffffffffffffffffffffffffffff1673ffffffffffffffffffffffffffffffffffffffff1673ffffffffffffffffffffffffffffffffffffffff1681526020016002820180548060200260200160405190810160405280929190818152602001828054801561097b57602002820191906000526020600020905b8160009054906101000a900473ffffffffffffffffffffffffffffffffffffffff1673ffffffffffffffffffffffffffffffffffffffff1681526020019060010190808311610931575b505050505081526020016003820154815260200160048201548152602001600582015481526020016006820160009054906101000a900473ffffffffffffffffffffffffffffffffffffffff1673ffffffffffffffffffffffffffffffffffffffff1673ffffffffffffffffffffffffffffffffffffffff168152602001600782015481526020016008820154815260200160098201548152602001600a820160009054906101000a900460ff16151515158152505090506000610a3e82612120565b9050600080610a51838560a0015161217a565b9150915081610a95576040517f08c379a0000000000000000000000000000000000000000000000000000000008152600401610a8c906134f9565b60405180910390fd5b6000811415610aab576000945050505050610c1c565b836020015173ffffffffffffffffffffffffffffffffffffffff168673ffffffffffffffffffffffffffffffffffffffff161415610b4657600080610af48660800151846121f4565b9150915081610b38576040517f08c379a0000000000000000000000000000000000000000000000000000000008152600401610b2f906135d9565b60405180910390fd5b809650505050505050610c1c565b600080610b588387604001515161221c565b9150915081610b9c576040517f08c379a0000000000000000000000000000000000000000000000000000000008152600401610b93906134d9565b60405180910390fd5b600260008973ffffffffffffffffffffffffffffffffffffffff1673ffffffffffffffffffffffffffffffffffffffff16815260200190815260200160002060008760000151815260200190815260200160002060009054906101000a900460ff1615610c1157809650505050505050610c1c565b600096505050505050505b92915050565b6000868680806020026020016040519081016040528093929190818152602001838360200280828437600081840152601f19601f820116905080830192505050505050508584846000845111610cad576040517f08c379a0000000000000000000000000000000000000000000000000000000008152600401610ca4906133f9565b60405180910390fd5b60008311610cf0576040517f08c379a0000000000000000000000000000000000000000000000000000000008152600401610ce79061336f565b60405180910390fd5b42821015610d33576040517f08c379a0000000000000000000000000000000000000000000000000000000008152600401610d2a90613579565b60405180910390fd5b818111610d75576040517f08c379a0000000000000000000000000000000000000000000000000000000008152600401610d6c906135f9565b60405180910390fd5b8a8a80806020026020016040519081016040528093929190818152602001838360200280828437600081840152601f19601f8201169050808301925050505050505060005b8151811015610ecc57610e0e828281518110610dff577f4e487b7100000000000000000000000000000000000000000000000000000000600052603260045260246000fd5b60200260200101513033611d0d565b600160026000848481518110610e4d577f4e487b7100000000000000000000000000000000000000000000000000000000600052603260045260246000fd5b602002602001015173ffffffffffffffffffffffffffffffffffffffff1673ffffffffffffffffffffffffffffffffffffffff1681526020019081526020016000206000600354815260200190815260200160002060006101000a81548160ff0219169083151502179055508080610ec4906139f3565b915050610dba565b50610f1c8c8c610edb8d612279565b8c600180811115610f15577f4e487b7100000000000000000000000000000000000000000000000000000000600052602160045260246000fd5b8d8d611e60565b955050505050509695505050505050565b60008273ffffffffffffffffffffffffffffffffffffffff166323b872dd8686856040518463ffffffff1660e01b8152600401610f6c9392919061329d565b602060405180830381600087803b158015610f8657600080fd5b505af1158015610f9a573d6000803e3d6000fd5b505050506040513d601f19601f82011682018060405250810190610fbe919061289d565b905080611000576040517f08c379a0000000000000000000000000000000000000000000000000000000008152600401610ff7906134b9565b60405180910390fd5b5050505050565b6000806001600084815260200190815260200160002060405180610160016040529081600082015481526020016001820160009054906101000a900473ffffffffffffffffffffffffffffffffffffffff1673ffffffffffffffffffffffffffffffffffffffff1673ffffffffffffffffffffffffffffffffffffffff1681526020016002820180548060200260200160405190810160405280929190818152602001828054801561110e57602002820191906000526020600020905b8160009054906101000a900473ffffffffffffffffffffffffffffffffffffffff1673ffffffffffffffffffffffffffffffffffffffff16815260200190600101908083116110c4575b505050505081526020016003820154815260200160048201548152602001600582015481526020016006820160009054906101000a900473ffffffffffffffffffffffffffffffffffffffff1673ffffffffffffffffffffffffffffffffffffffff1673ffffffffffffffffffffffffffffffffffffffff168152602001600782015481526020016008820154815260200160098201548152602001600a820160009054906101000a900460ff161515151581525050905080610140015161120b576040517f08c379a000000000000000000000000000000000000000000000000000000000815260040161120290613539565b60405180910390fd5b806020015173ffffffffffffffffffffffffffffffffffffffff163373ffffffffffffffffffffffffffffffffffffffff1614806112a35750600260003373ffffffffffffffffffffffffffffffffffffffff1673ffffffffffffffffffffffffffffffffffffffff168152602001908152602001600020600084815260200190815260200160002060009054906101000a900460ff165b6112e2576040517f08c379a00000000000000000000000000000000000000000000000000000000081526004016112d990613459565b60405180910390fd5b60006112f2848360200151610874565b90506000811115611312576113118260c001518360e001518384612296565b5b61131b8261232e565b600160008581526020019081526020016000206000808201600090556001820160006101000a81549073ffffffffffffffffffffffffffffffffffffffff021916905560028201600061136e9190612585565b6003820160009055600482016000905560058201600090556006820160006101000a81549073ffffffffffffffffffffffffffffffffffffffff0219169055600782016000905560088201600090556009820160009055600a820160006101000a81549060ff02191690555050600260003373ffffffffffffffffffffffffffffffffffffffff1673ffffffffffffffffffffffffffffffffffffffff168152602001908152602001600020600085815260200190815260200160002060006101000a81549060ff02191690557faac53f188a8d770c87ec98b5328fc3545884d401b3aec76b69310e44ce09de5c848360200151846040015184604051611478949392919061370f565b60405180910390a1600192505050919050565b60008054906101000a900473ffffffffffffffffffffffffffffffffffffffff1681565b60008082116114f3576040517f08c379a00000000000000000000000000000000000000000000000000000000081526004016114ea9061332f565b60405180910390fd5b600060016000858152602001908152602001600020905080600a0160009054906101000a900460ff1661155b576040517f08c379a000000000000000000000000000000000000000000000000000000000815260040161155290613539565b60405180910390fd5b60008160040154116115a2576040517f08c379a0000000000000000000000000000000000000000000000000000000008152600401611599906135b9565b60405180910390fd5b8060010160009054906101000a900473ffffffffffffffffffffffffffffffffffffffff1673ffffffffffffffffffffffffffffffffffffffff163373ffffffffffffffffffffffffffffffffffffffff16148061165a5750600260003373ffffffffffffffffffffffffffffffffffffffff1673ffffffffffffffffffffffffffffffffffffffff168152602001908152602001600020600085815260200190815260200160002060009054906101000a900460ff165b611699576040517f08c379a00000000000000000000000000000000000000000000000000000000081526004016116909061330f565b60405180910390fd5b60008160060160009054906101000a900473ffffffffffffffffffffffffffffffffffffffff1673ffffffffffffffffffffffffffffffffffffffff1663dd62ed3e30336040518363ffffffff1660e01b81526004016116fa929190613274565b60206040518083038186803b15801561171257600080fd5b505afa158015611726573d6000803e3d6000fd5b505050506040513d601f19601f8201168201806040525081019061174a91906128ef565b90507f8505bd1226695547d532999c85425af6ae227b5bcef6a2685211ba42b086d27c30338360405161177f939291906133af565b60405180910390a1600084111561179b576000925050506119f7565b60006117a78633610874565b9050848110156117ec576040517f08c379a00000000000000000000000000000000000000000000000000000000081526004016117e390613479565b60405180910390fd5b6000806117fd8560040154886121f4565b9150915081611841576040517f08c379a000000000000000000000000000000000000000000000000000000000815260040161183890613559565b60405180910390fd5b80856004018190555061187e8560060160009054906101000a900473ffffffffffffffffffffffffffffffffffffffff168660070154898a612296565b6000856004015414156119ac57600160008981526020019081526020016000206000808201600090556001820160006101000a81549073ffffffffffffffffffffffffffffffffffffffff02191690556002820160006118de9190612585565b6003820160009055600482016000905560058201600090556006820160006101000a81549073ffffffffffffffffffffffffffffffffffffffff0219169055600782016000905560088201600090556009820160009055600a820160006101000a81549060ff02191690555050600260003373ffffffffffffffffffffffffffffffffffffffff1673ffffffffffffffffffffffffffffffffffffffff168152602001908152602001600020600089815260200190815260200160002060006101000a81549060ff02191690555b7f8a8a39e28f42c452d33cea4d81386872966d236e3f5da3e2156efb9d69e5ad6d88338988600401546040516119e5949392919061380d565b60405180910390a16001955050505050505b92915050565b6000806001600085815260200190815260200160002060405180610160016040529081600082015481526020016001820160009054906101000a900473ffffffffffffffffffffffffffffffffffffffff1673ffffffffffffffffffffffffffffffffffffffff1673ffffffffffffffffffffffffffffffffffffffff16815260200160028201805480602002602001604051908101604052809291908181526020018280548015611b0457602002820191906000526020600020905b8160009054906101000a900473ffffffffffffffffffffffffffffffffffffffff1673ffffffffffffffffffffffffffffffffffffffff1681526020019060010190808311611aba575b505050505081526020016003820154815260200160048201548152602001600582015481526020016006820160009054906101000a900473ffffffffffffffffffffffffffffffffffffffff1673ffffffffffffffffffffffffffffffffffffffff1673ffffffffffffffffffffffffffffffffffffffff168152602001600782015481526020016008820154815260200160098201548152602001600a820160009054906101000a900460ff1615151515815250509050806101400151611c01576040517f08c379a0000000000000000000000000000000000000000000000000000000008152600401611bf890613539565b60405180910390fd5b600260003373ffffffffffffffffffffffffffffffffffffffff1673ffffffffffffffffffffffffffffffffffffffff168152602001908152602001600020600085815260200190815260200160002060009054906101000a900460ff16611c9e576040517f08c379a0000000000000000000000000000000000000000000000000000000008152600401611c9590613459565b60405180910390fd5b6000611caa8585610874565b9050611cc08260c001518360e001518384612296565b7f856004f39dc959064f79558d5a3bf9eca82ffc182f7541ad8d33032bd1b1afcc8583602001518684604051611cf99493929190613634565b60405180910390a160019250505092915050565b600073ffffffffffffffffffffffffffffffffffffffff168373ffffffffffffffffffffffffffffffffffffffff161415611d7d576040517f08c379a0000000000000000000000000000000000000000000000000000000008152600401611d7490613419565b60405180910390fd5b8173ffffffffffffffffffffffffffffffffffffffff168373ffffffffffffffffffffffffffffffffffffffff161415611dec576040517f08c379a0000000000000000000000000000000000000000000000000000000008152600401611de39061338f565b60405180910390fd5b8073ffffffffffffffffffffffffffffffffffffffff168373ffffffffffffffffffffffffffffffffffffffff161415611e5b576040517f08c379a0000000000000000000000000000000000000000000000000000000008152600401611e52906132ef565b60405180910390fd5b505050565b600080611e6e8785856123ca565b9050600060405180610160016040528060035481526020013373ffffffffffffffffffffffffffffffffffffffff1681526020018b8b80806020026020016040519081016040528093929190818152602001838360200280828437600081840152601f19601f8201169050808301925050505050505081526020018981526020018981526020018381526020018873ffffffffffffffffffffffffffffffffffffffff168152602001878152602001868152602001858152602001600115158152509050806001600060035481526020019081526020016000206000820151816000015560208201518160010160006101000a81548173ffffffffffffffffffffffffffffffffffffffff021916908373ffffffffffffffffffffffffffffffffffffffff1602179055506040820151816002019080519060200190611fb59291906125a6565b50606082015181600301556080820151816004015560a0820151816005015560c08201518160060160006101000a81548173ffffffffffffffffffffffffffffffffffffffff021916908373ffffffffffffffffffffffffffffffffffffffff16021790555060e082015181600701556101008201518160080155610120820151816009015561014082015181600a0160006101000a81548160ff02191690831515021790555090505061206b87878a346124be565b7fa96c23bf2b1c32a922f98cb35ce0ff8447b6eafe02e540392015fb52da0f8610600354338c8c8c878d8c8c8f6040516120ae9a99989796959493929190613679565b60405180910390a16000806120c66003546001612556565b915091508161210a576040517f08c379a000000000000000000000000000000000000000000000000000000000815260040161210190613519565b60405180910390fd5b8260000151945050505050979650505050505050565b600081610100015142116121375760009050612175565b81610120015142101561215c5781610100015142612155919061392f565b9050612175565b816101000151826101200151612172919061392f565b90505b919050565b60008060008414156121935760016000915091506121ed565b60008385029050838582816121d1577f4e487b7100000000000000000000000000000000000000000000000000000000600052601260045260246000fd5b04146121e45760008092509250506121ed565b60018192509250505b9250929050565b6000808383111561220b5760008091509150612215565b6001838503915091505b9250929050565b60008060008314156122345760008091509150612272565b600183858161226c577f4e487b7100000000000000000000000000000000000000000000000000000000600052601260045260246000fd5b04915091505b9250929050565b6000670de0b6b3a76400008261228f91906138d5565b9050919050565b826001808111156122d0577f4e487b7100000000000000000000000000000000000000000000000000000000600052602160045260246000fd5b14156122e7576122e230338685610f2d565b612328565b600073ffffffffffffffffffffffffffffffffffffffff168473ffffffffffffffffffffffffffffffffffffffff16141561232757612326338261028f565b5b5b50505050565b60005b8160400151518110156123c6576000612392836000015184604001518481518110612385577f4e487b7100000000000000000000000000000000000000000000000000000000600052603260045260246000fd5b6020026020010151610874565b905060008111156123b2576123b18360c001518460e001518384612296565b5b5080806123be906139f3565b915050612331565b5050565b60008060006123d984866121f4565b915091508161241d576040517f08c379a000000000000000000000000000000000000000000000000000000000815260040161241490613599565b60405180910390fd5b80861161245f576040517f08c379a00000000000000000000000000000000000000000000000000000000081526004016124569061334f565b60405180910390fd5b60008061246c888461221c565b91509150816124b0576040517f08c379a00000000000000000000000000000000000000000000000000000000081526004016124a790613499565b60405180910390fd5b809450505050509392505050565b826001808111156124f8577f4e487b7100000000000000000000000000000000000000000000000000000000600052602160045260246000fd5b141561250f5761250a33308685610f2d565b612550565b600073ffffffffffffffffffffffffffffffffffffffff168473ffffffffffffffffffffffffffffffffffffffff16141561254f5761254e308261028f565b5b5b50505050565b600080600083850190508481101561257557600080925092505061257e565b60018192509250505b9250929050565b50805460008255906000526020600020908101906125a39190612630565b50565b82805482825590600052602060002090810192821561261f579160200282015b8281111561261e5782518260006101000a81548173ffffffffffffffffffffffffffffffffffffffff021916908373ffffffffffffffffffffffffffffffffffffffff160217905550916020019190600101906125c6565b5b50905061262c9190612630565b5090565b5b80821115612649576000816000905550600101612631565b5090565b60008135905061265c81613a6b565b92915050565b60008135905061267181613a82565b92915050565b60008083601f84011261268957600080fd5b8235905067ffffffffffffffff8111156126a257600080fd5b6020830191508360208202830111156126ba57600080fd5b9250929050565b6000815190506126d081613a99565b92915050565b6000813590506126e581613ab0565b92915050565b6000815190506126fa81613ab0565b92915050565b6000806000806080858703121561271657600080fd5b60006127248782880161264d565b94505060206127358782880161264d565b93505060406127468782880161264d565b9250506060612757878288016126d6565b91505092959194509250565b6000806040838503121561277657600080fd5b60006127848582860161264d565b9250506020612795858286016126d6565b9150509250929050565b60008060008060008060a087890312156127b857600080fd5b600087013567ffffffffffffffff8111156127d257600080fd5b6127de89828a01612677565b965096505060206127f189828a016126d6565b945050604061280289828a01612662565b935050606061281389828a016126d6565b925050608061282489828a016126d6565b9150509295509295509295565b6000806000806060858703121561284757600080fd5b600085013567ffffffffffffffff81111561286157600080fd5b61286d87828801612677565b94509450506020612880878288016126d6565b9250506040612891878288016126d6565b91505092959194509250565b6000602082840312156128af57600080fd5b60006128bd848285016126c1565b91505092915050565b6000602082840312156128d857600080fd5b60006128e6848285016126d6565b91505092915050565b60006020828403121561290157600080fd5b600061290f848285016126eb565b91505092915050565b6000806040838503121561292b57600080fd5b6000612939858286016126d6565b925050602061294a8582860161264d565b9150509250929050565b6000806040838503121561296757600080fd5b6000612975858286016126d6565b9250506020612986858286016126d6565b9150509250929050565b600061299c83836129b7565b60208301905092915050565b6129b1816139bd565b82525050565b6129c081613963565b82525050565b6129cf81613963565b82525050565b60006129e18385613891565b93506129ec82613852565b8060005b85811015612a2557612a0282846138be565b612a0c8882612990565b9750612a1783613877565b9250506001810190506129f0565b5085925050509392505050565b6000612a3d8261386c565b612a478185613891565b9350612a528361385c565b8060005b83811015612a83578151612a6a8882612990565b9750612a7583613884565b925050600181019050612a56565b5085935050505092915050565b612a9981613987565b82525050565b6000612aac601e836138ad565b91507f726563697069656e742073686f756c64206e6f742062652073656e64657200006000830152602082019050919050565b6000612aec6024836138ad565b91507f726563697069656e74206973206e6f74207265676973746572656420696e206460008301527f506f6f6c000000000000000000000000000000000000000000000000000000006020830152604082019050919050565b6000612b52600e836138ad565b91507f616d6f756e74206973207a65726f0000000000000000000000000000000000006000830152602082019050919050565b6000612b926025836138ad565b91507f6465706f736974206d7573742062652067726561746572207468616e2064757260008301527f6174696f6e0000000000000000000000000000000000000000000000000000006020830152604082019050919050565b6000612bf86020836138ad565b91507f6465706f7369742073686f756c642062652067726561746572207468616e20306000830152602082019050919050565b6000612c386025836138ad565b91507f726563697069656e742073686f756c64206e6f74206265207468697320636f6e60008301527f74726163740000000000000000000000000000000000000000000000000000006020830152604082019050919050565b6000612c9e6018836138ad565b91507f616c6c6f77616e636520746f2073656e6420746f6b656e7300000000000000006000830152602082019050919050565b6000612cde6026836138ad565b91507f74686572652073686f756c64206265206174206c65617374206f6e652072656360008301527f697069656e7400000000000000000000000000000000000000000000000000006020830152604082019050919050565b6000612d44601d836138ad565b91507f6e6f20726563697069656e7420616464726573732070726f76696465640000006000830152602082019050919050565b6000612d846017836138ad565b91507f657468657220636f756c64206e6f742062652073656e740000000000000000006000830152602082019050919050565b6000612dc46020836138ad565b91507f64656c6574696f6e206f662064506f6f6c206973206e6f7420616c6c6f7765646000830152602082019050919050565b6000612e046024836138ad565b91507f7265717565737465642068696768657220616d6f756e74207468616e2072656d60008301527f61696e73000000000000000000000000000000000000000000000000000000006020830152604082019050919050565b6000612e6a6023836138ad565b91507f6469766973696f6e20627920277a65726f27206d61792068617665206f63637560008301527f72656400000000000000000000000000000000000000000000000000000000006020830152604082019050919050565b6000612ed06018836138ad565b91507f746f6b656e7320636f756c64206e6f742062652073656e7400000000000000006000830152602082019050919050565b6000612f10601f836138ad565b91507f62616c616e63654f66206469766973696f6e206e6f7420706f737369626c65006000830152602082019050919050565b6000612f506012836138ad565b91507f64656c7461202a207261746520697373756500000000000000000000000000006000830152602082019050919050565b6000612f906017836138ad565b91507f64506f6f6c4964206e6f7420696e6372656d656e7465640000000000000000006000830152602082019050919050565b6000612fd06000836138a2565b9150600082019050919050565b6000612fea6014836138ad565b91507f44506f6f6c20646f6573206e6f742065786973740000000000000000000000006000830152602082019050919050565b600061302a6025836138ad565b91507f72656d61696e67696e672062616c616e63652063616c63756c6174696f6e206660008301527f61696c65640000000000000000000000000000000000000000000000000000006020830152604082019050919050565b6000613090602a836138ad565b91507f73746172742074696d652073686f756c6420626520616674657220626c6f636b60008301527f2e74696d657374616d70000000000000000000000000000000000000000000006020830152604082019050919050565b60006130f66022836138ad565b91507f73746f7054696d652069732067726561746572207468616e207374617274546960008301527f6d650000000000000000000000000000000000000000000000000000000000006020830152604082019050919050565b600061315c601d836138ad565b91507f6e6f2072656d61696e696e672062616c616e636520696e2064506f6f6c0000006000830152602082019050919050565b600061319c601c836138ad565b91507f62616c616e63654f6620737562737472616374696f6e206973737565000000006000830152602082019050919050565b60006131dc6029836138ad565b91507f73746f7054696d652073686f756c642062652067726561746572207468616e2060008301527f737461727454696d6500000000000000000000000000000000000000000000006020830152604082019050919050565b61323e816139b3565b82525050565b600061324f82612fc3565b9150819050919050565b600060208201905061326e60008301846129c6565b92915050565b600060408201905061328960008301856129c6565b61329660208301846129c6565b9392505050565b60006060820190506132b260008301866129c6565b6132bf60208301856129c6565b6132cc6040830184613235565b949350505050565b60006020820190506132e96000830184612a90565b92915050565b6000602082019050818103600083015261330881612a9f565b9050919050565b6000602082019050818103600083015261332881612adf565b9050919050565b6000602082019050818103600083015261334881612b45565b9050919050565b6000602082019050818103600083015261336881612b85565b9050919050565b6000602082019050818103600083015261338881612beb565b9050919050565b600060208201905081810360008301526133a881612c2b565b9050919050565b600060808201905081810360008301526133c881612c91565b90506133d760208301866129c6565b6133e460408301856129c6565b6133f16060830184613235565b949350505050565b6000602082019050818103600083015261341281612cd1565b9050919050565b6000602082019050818103600083015261343281612d37565b9050919050565b6000602082019050818103600083015261345281612d77565b9050919050565b6000602082019050818103600083015261347281612db7565b9050919050565b6000602082019050818103600083015261349281612df7565b9050919050565b600060208201905081810360008301526134b281612e5d565b9050919050565b600060208201905081810360008301526134d281612ec3565b9050919050565b600060208201905081810360008301526134f281612f03565b9050919050565b6000602082019050818103600083015261351281612f43565b9050919050565b6000602082019050818103600083015261353281612f83565b9050919050565b6000602082019050818103600083015261355281612fdd565b9050919050565b600060208201905081810360008301526135728161301d565b9050919050565b6000602082019050818103600083015261359281613083565b9050919050565b600060208201905081810360008301526135b2816130e9565b9050919050565b600060208201905081810360008301526135d28161314f565b9050919050565b600060208201905081810360008301526135f28161318f565b9050919050565b60006020820190508181036000830152613612816131cf565b9050919050565b600060208201905061362e6000830184613235565b92915050565b60006080820190506136496000830187613235565b61365660208301866129c6565b61366360408301856129c6565b6136706060830184613235565b95945050505050565b60006101208201905061368f600083018d613235565b61369c602083018c6129c6565b81810360408301526136af818a8c6129d5565b90506136be6060830189613235565b6136cb6080830188613235565b6136d860a08301876129a8565b6136e560c0830186613235565b6136f260e0830185613235565b613700610100830184613235565b9b9a5050505050505050505050565b60006080820190506137246000830187613235565b61373160208301866129c6565b81810360408301526137438185612a32565b90506137526060830184613235565b95945050505050565b600061016082019050613771600083018e613235565b61377e602083018d6129c6565b8181036040830152613790818c612a32565b905061379f606083018b613235565b6137ac608083018a613235565b6137b960a0830189613235565b6137c660c08301886129c6565b6137d360e0830187613235565b6137e1610100830186613235565b6137ef610120830185612a90565b6137fd610140830184613235565b9c9b505050505050505050505050565b60006080820190506138226000830187613235565b61382f60208301866129c6565b61383c6040830185613235565b6138496060830184613235565b95945050505050565b6000819050919050565b6000819050602082019050919050565b600081519050919050565b6000602082019050919050565b6000602082019050919050565b600082825260208201905092915050565b600081905092915050565b600082825260208201905092915050565b60006138cd602084018461264d565b905092915050565b60006138e0826139b3565b91506138eb836139b3565b9250817fffffffffffffffffffffffffffffffffffffffffffffffffffffffffffffffff048311821515161561392457613923613a3c565b5b828202905092915050565b600061393a826139b3565b9150613945836139b3565b92508282101561395857613957613a3c565b5b828203905092915050565b600061396e82613993565b9050919050565b600061398082613993565b9050919050565b60008115159050919050565b600073ffffffffffffffffffffffffffffffffffffffff82169050919050565b6000819050919050565b60006139c8826139cf565b9050919050565b60006139da826139e1565b9050919050565b60006139ec82613993565b9050919050565b60006139fe826139b3565b91507fffffffffffffffffffffffffffffffffffffffffffffffffffffffffffffffff821415613a3157613a30613a3c565b5b600182019050919050565b7f4e487b7100000000000000000000000000000000000000000000000000000000600052601160045260246000fd5b613a7481613963565b8114613a7f57600080fd5b50565b613a8b81613975565b8114613a9657600080fd5b50565b613aa281613987565b8114613aad57600080fd5b50565b613ab9816139b3565b8114613ac457600080fd5b5056fea2646970667358221220b33b44f26a9c1a643bcff0632d240c9416cf4006d64ad24257b76cebaf0c77e264736f6c63430008000033",
  "immutableReferences": {},
  "source": "// SPDX-License-Identifier: MIT\r\npragma solidity 0.8.0;\r\n\r\nimport \"@openzeppelin/contracts/access/Ownable.sol\";\r\nimport \"@openzeppelin/contracts/utils/math/SafeMath.sol\";\r\nimport \"@openzeppelin/contracts/token/ERC20/IERC20.sol\";\r\n\r\nimport \"./Stream.sol\";\r\nimport \"./utils/DPoolUtil.sol\";\r\n\r\n/*\r\n * Extended Streaming protocol\r\n */\r\ncontract DecentralizedPools {\r\n    // --\r\n\r\n    // contract owner\r\n    address public owner;\r\n\r\n    event CreateDPool(\r\n        uint256 dpId,\r\n        address sender,\r\n        address[] recipients,\r\n        uint256 deposit,\r\n        uint256 ratePerSecond,\r\n        address tokenAddress,\r\n        uint256 startTime,\r\n        uint256 stopTime,\r\n        uint256 vType\r\n    );\r\n\r\n    event WithdrawFromDPool(\r\n        uint256 dpId,\r\n        address receiver,\r\n        uint256 amount,\r\n        uint256 remainingBalance\r\n    );\r\n\r\n    event DeleteDPool(\r\n        uint256 dpId,\r\n        address sender,\r\n        address[] recipients,\r\n        uint256 dPoolBalance\r\n    );\r\n\r\n    event DeleteRecipientsFromDPool(\r\n        uint256 dpId,\r\n        address sender,\r\n        address recipient,\r\n        uint256 dPoolBalance\r\n    );\r\n\r\n    // different pools by their ids\r\n    mapping(uint256 => Stream.DPool) dPools;\r\n\r\n    // every recipient address by dPoolId\r\n    mapping(address => mapping(uint256 => bool)) recipientsByDPoolId;\r\n\r\n    // ident of every new dPool\r\n    uint256 dPoolIdCounter = 1;\r\n\r\n    // validates inputs for new dPool\r\n    modifier validateInput(\r\n        address[] memory recipients,\r\n        uint256 deposit,\r\n        uint256 startTime,\r\n        uint256 stopTime\r\n    ) {\r\n        require(\r\n            recipients.length > 0,\r\n            \"there should be at least one recipient\"\r\n        );\r\n        require(deposit > 0, \"deposit should be greater than 0\");\r\n        require(\r\n            startTime >= block.timestamp,\r\n            \"start time should be after block.timestamp\"\r\n        );\r\n        require(\r\n            stopTime > startTime,\r\n            \"stopTime should be greater than startTime\"\r\n        );\r\n        _;\r\n    }\r\n\r\n    // validates and stores recipients in mapping\r\n    modifier validateAndMapRecipients(address[] memory recipients) {\r\n        for (uint256 i = 0; i < recipients.length; i++) {\r\n            DPoolUtil.validateRecipient(\r\n                recipients[i],\r\n                address(this),\r\n                msg.sender\r\n            );\r\n\r\n            /*\r\n            TODO Use modifiers only for checks\r\n            move to function\r\n            */\r\n            // map recipients by dPoolId for convinient access\r\n            recipientsByDPoolId[recipients[i]][dPoolIdCounter] = true;\r\n        }\r\n        _;\r\n    }\r\n\r\n    constructor() {\r\n        owner = msg.sender;\r\n    }\r\n\r\n    function getDPool(uint256 dpId)\r\n        public\r\n        view\r\n        returns (\r\n            uint256,\r\n            address,\r\n            address[] memory,\r\n            uint256,\r\n            uint256,\r\n            uint256,\r\n            address,\r\n            uint256,\r\n            uint256,\r\n            bool,\r\n            uint256\r\n        )\r\n    {\r\n        Stream.DPool memory dPool = dPools[dpId];\r\n        return (\r\n            dPool.dPoolId,\r\n            dPool.creator,\r\n            dPool.recipients,\r\n            dPool.deposit,\r\n            dPool.remainingBalance,\r\n            dPool.ratePerSecond,\r\n            dPool.tokenAddress,\r\n            dPool.startTime,\r\n            dPool.stopTime,\r\n            dPool.isCreated,\r\n            dPool.dVType\r\n        );\r\n    }\r\n\r\n    /*\r\n     * @notice Creates a DPool that starts automatically calculating rates per second\r\n     *  when startTime is reached.\r\n     */\r\n    function createEthDPool(\r\n        address[] calldata recipients,\r\n        uint256 startTime,\r\n        uint256 stopTime\r\n    )\r\n        public\r\n        payable\r\n        validateInput(recipients, msg.value, startTime, stopTime)\r\n        validateAndMapRecipients(recipients)\r\n        returns (uint256)\r\n    {\r\n        return\r\n            createDPool(\r\n                recipients,\r\n                msg.value,\r\n                payable(address(0x0)),\r\n                uint256(Stream.DValueType.ETH),\r\n                startTime,\r\n                stopTime\r\n            );\r\n    }\r\n\r\n    /*\r\n     * @notice Creates a DPool with a manual starter switch before calculating rates per second.\r\n     */\r\n    function createTokenDPool(\r\n        address[] calldata recipients,\r\n        uint256 deposit,\r\n        address payable tokenAddress,\r\n        uint256 startTime,\r\n        uint256 stopTime\r\n    )\r\n        public\r\n        payable\r\n        validateInput(recipients, deposit, startTime, stopTime)\r\n        validateAndMapRecipients(recipients)\r\n        returns (uint256)\r\n    {\r\n        return\r\n            createDPool(\r\n                recipients,\r\n                toWei(deposit),\r\n                tokenAddress,\r\n                uint256(Stream.DValueType.TOKEN),\r\n                startTime,\r\n                stopTime\r\n            );\r\n    }\r\n\r\n    /*\r\n     * @notice Creates a DPool that starts automatically calculating rates per second\r\n     *  when startTime is reached.\r\n     * @param _recipients - all the recipients who will receive and withdraw from pool\r\n     * @param _deposit - the amount of ether or tokens in pool\r\n     * @param _tokenAddress - ERC20 token address\r\n     * @param _type used value type\r\n     * @param _startTime - of the distribution\r\n     * @param _stopTime - of the distribution\r\n     */\r\n    function createDPool(\r\n        address[] calldata _recipients,\r\n        uint256 _deposit,\r\n        address payable _tokenAddress,\r\n        uint256 _type,\r\n        uint256 _startTime,\r\n        uint256 _stopTime\r\n    ) internal returns (uint256) {\r\n        uint256 _ratePerSecond = DPoolUtil.calculateRPS(\r\n            _deposit,\r\n            _startTime,\r\n            _stopTime\r\n        );\r\n\r\n        Stream.DPool memory dPool = Stream.DPool({\r\n            dPoolId: dPoolIdCounter,\r\n            creator: msg.sender,\r\n            recipients: _recipients,\r\n            deposit: _deposit,\r\n            remainingBalance: _deposit,\r\n            ratePerSecond: _ratePerSecond,\r\n            tokenAddress: _tokenAddress,\r\n            dVType: _type,\r\n            startTime: _startTime,\r\n            stopTime: _stopTime,\r\n            isCreated: true\r\n        });\r\n        dPools[dPoolIdCounter] = dPool;\r\n\r\n        transferToContract(_tokenAddress, _type, _deposit, msg.value);\r\n\r\n        emit CreateDPool(\r\n            dPoolIdCounter,\r\n            msg.sender,\r\n            _recipients,\r\n            _deposit,\r\n            _ratePerSecond,\r\n            _tokenAddress,\r\n            _startTime,\r\n            _stopTime,\r\n            _type\r\n        );\r\n\r\n        (bool incremented, uint256 nextId) = SafeMath.tryAdd(\r\n            dPoolIdCounter,\r\n            uint256(1)\r\n        );\r\n        require(incremented, \"dPoolId not incremented\");\r\n\r\n        return dPool.dPoolId;\r\n    }\r\n\r\n    // transfers tokens to contract\r\n    function transferTokens(\r\n        address fromSender,\r\n        address toAddress,\r\n        address tokenAddress,\r\n        uint256 amount\r\n    ) public payable {\r\n        bool sent = IERC20(tokenAddress).transferFrom(\r\n            fromSender,\r\n            toAddress,\r\n            amount\r\n        );\r\n        require(sent, \"tokens could not be sent\");\r\n    }\r\n\r\n    // transfers ether to contract\r\n    function transferEther(address requester, uint256 amount) public payable {\r\n        (bool sent, bytes memory data) = requester.call{value: amount}(\"\");\r\n        require(sent, \"ether could not be sent\");\r\n    }\r\n\r\n    // transfer tokens or ether\r\n    function transferToContract(\r\n        address tokenAddress,\r\n        uint256 dVType,\r\n        uint256 tokenAmount,\r\n        uint256 ethAmount\r\n    ) internal {\r\n        if (uint256(Stream.DValueType.TOKEN) == dVType) {\r\n            transferTokens(\r\n                msg.sender,\r\n                address(this),\r\n                tokenAddress,\r\n                tokenAmount\r\n            );\r\n        } else if (tokenAddress == address(0x0)) {\r\n            transferEther(address(this), ethAmount);\r\n        }\r\n    }\r\n\r\n    // withdraw tokens or ether\r\n    function withdrawFromContract(\r\n        address tokenAddress,\r\n        uint256 dVType,\r\n        uint256 tokenAmount,\r\n        uint256 ethAmount\r\n    ) internal {\r\n        if (uint256(Stream.DValueType.TOKEN) == dVType) {\r\n            transferTokens(\r\n                address(this),\r\n                msg.sender,\r\n                tokenAddress,\r\n                tokenAmount\r\n            );\r\n        } else if (tokenAddress == address(0x0)) {\r\n            transferEther(msg.sender, ethAmount);\r\n        }\r\n    }\r\n\r\n    /*\r\n     * @notice Calculates the accumulated balance for a single address according to passed time.\r\n     * @param dpId - id of a dPool\r\n     * @param requester - address of a single recipient\r\n     * @param recipientSize - the size/length of existing recipients in dPool\r\n     * @returns balance - of the recipient or the sender/creator of dPool\r\n     */\r\n    function balanceOf(uint256 dpId, address requester)\r\n        public\r\n        view\r\n        returns (uint256)\r\n    {\r\n        Stream.DPool memory dPool = dPools[dpId];\r\n        uint256 delta = DPoolUtil.deltaOf(dPool);\r\n\r\n        (bool totalResult, uint256 totalRecipientBalance) = SafeMath.tryMul(\r\n            delta,\r\n            dPool.ratePerSecond\r\n        );\r\n        require(totalResult, \"delta * rate issue\");\r\n\r\n        if (totalRecipientBalance == 0) {\r\n            return 0;\r\n        }\r\n\r\n        if (requester == dPool.creator) {\r\n            (bool senderResult, uint256 senderBalance) = SafeMath.trySub(\r\n                dPool.remainingBalance,\r\n                totalRecipientBalance\r\n            );\r\n            require(senderResult, \"balanceOf substraction issue\");\r\n\r\n            return senderBalance;\r\n        }\r\n\r\n        (bool currentResult, uint256 individualRecipientBalance) = SafeMath\r\n            .tryDiv(totalRecipientBalance, dPool.recipients.length);\r\n        require(currentResult, \"balanceOf division not possible\");\r\n\r\n        if (recipientsByDPoolId[requester][dPool.dPoolId]) {\r\n            return individualRecipientBalance;\r\n        }\r\n\r\n        return 0;\r\n    }\r\n\r\n    event Logger(string txt, address sender, address spender, uint256 l);\r\n\r\n    /*\r\n     * @notice Sender will receive requested amount, if the registered address is in dPool\r\n     *  and remaingBalance of dPool is greater zero.\r\n     * @param dpId - identification of dPool\r\n     * @param amount - requested from sender\r\n     * @returns true - if function executes fantastically\r\n     */\r\n    function withdrawFromDPool(uint256 dpId, uint256 amount)\r\n        public\r\n        payable\r\n        returns (bool)\r\n    {\r\n        /* To safe transaction cost some call constraints are deliberately inside the function\r\n            and not in modifiers.\r\n        */\r\n        require(amount > 0, \"amount is zero\");\r\n        Stream.DPool storage dPool = dPools[dpId];\r\n        require(dPool.isCreated, \"DPool does not exist\");\r\n        require(dPool.remainingBalance > 0, \"no remaining balance in dPool\");\r\n        require(\r\n            msg.sender == dPool.creator ||\r\n                recipientsByDPoolId[msg.sender][dpId],\r\n            \"recipient is not registered in dPool\"\r\n        );\r\n\r\n        uint256 amt = IERC20(dPool.tokenAddress).allowance(\r\n            address(this),\r\n            msg.sender\r\n        );\r\n        emit Logger(\"allowance to send tokens\", address(this), msg.sender, amt);\r\n        if (amount > 0) {\r\n            return false;\r\n        }\r\n        uint256 cBalance = balanceOf(dpId, msg.sender);\r\n\r\n        require(cBalance >= amount, \"requested higher amount than remains\");\r\n\r\n        (bool result, uint256 newRemainingBalance) = SafeMath.trySub(\r\n            dPool.remainingBalance,\r\n            amount\r\n        );\r\n        require(result, \"remainging balance calculation failed\");\r\n\r\n        dPool.remainingBalance = newRemainingBalance;\r\n\r\n        withdrawFromContract(dPool.tokenAddress, dPool.dVType, amount, amount);\r\n\r\n        if (dPool.remainingBalance == 0) {\r\n            delete dPools[dpId];\r\n            delete recipientsByDPoolId[msg.sender][dpId];\r\n        }\r\n\r\n        emit WithdrawFromDPool(\r\n            dpId,\r\n            msg.sender,\r\n            amount,\r\n            dPool.remainingBalance\r\n        );\r\n\r\n        return true;\r\n    }\r\n\r\n    /*\r\n     * @notice Deletes dPool for given dpId and send remaining balance to creator\r\n     */\r\n    function deleteDPool(uint256 dpId) external returns (bool) {\r\n        Stream.DPool memory dPool = dPools[dpId];\r\n        require(dPool.isCreated, \"DPool does not exist\");\r\n        require(\r\n            msg.sender == dPool.creator ||\r\n                recipientsByDPoolId[msg.sender][dpId],\r\n            \"deletion of dPool is not allowed\"\r\n        );\r\n\r\n        uint256 dPoolBalance = balanceOf(dpId, dPool.creator);\r\n\r\n        if (dPoolBalance > 0) {\r\n            withdrawFromContract(\r\n                dPool.tokenAddress,\r\n                dPool.dVType,\r\n                dPoolBalance,\r\n                dPoolBalance\r\n            );\r\n        }\r\n\r\n        transferRecipientBalances(dPool);\r\n\r\n        delete dPools[dpId];\r\n        delete recipientsByDPoolId[msg.sender][dpId];\r\n\r\n        emit DeleteDPool(dpId, dPool.creator, dPool.recipients, dPoolBalance);\r\n\r\n        return true;\r\n    }\r\n\r\n    function deleteRecipientFromDPool(uint256 dpId, address recipient)\r\n        external\r\n        returns (bool)\r\n    {\r\n        Stream.DPool memory dPool = dPools[dpId];\r\n        require(dPool.isCreated, \"DPool does not exist\");\r\n        require(\r\n            recipientsByDPoolId[msg.sender][dpId],\r\n            \"deletion of dPool is not allowed\"\r\n        );\r\n\r\n        uint256 dPoolBalance = balanceOf(dpId, recipient);\r\n        withdrawFromContract(\r\n            dPool.tokenAddress,\r\n            dPool.dVType,\r\n            dPoolBalance,\r\n            dPoolBalance\r\n        );\r\n\r\n        emit DeleteRecipientsFromDPool(\r\n            dpId,\r\n            dPool.creator,\r\n            recipient,\r\n            dPoolBalance\r\n        );\r\n\r\n        return true;\r\n    }\r\n\r\n    function transferRecipientBalances(Stream.DPool memory dPool) internal {\r\n        for (uint256 i = 0; i < dPool.recipients.length; i++) {\r\n            uint256 recipientBalance = balanceOf(\r\n                dPool.dPoolId,\r\n                dPool.recipients[i]\r\n            );\r\n\r\n            if (recipientBalance > 0) {\r\n                withdrawFromContract(\r\n                    dPool.tokenAddress,\r\n                    dPool.dVType,\r\n                    recipientBalance,\r\n                    recipientBalance\r\n                );\r\n            }\r\n        }\r\n    }\r\n\r\n    function toWei(uint256 balance) internal pure returns (uint256) {\r\n        return balance * 10**18;\r\n    }\r\n\r\n    fallback() external payable {}\r\n\r\n    receive() external payable {}\r\n}\r\n",
  "sourcePath": "C:\\Users\\Magomed\\Desktop\\Test_blockchain_Project\\consensys_projects\\blockchain-developer-bootcamp-final-project\\contracts\\DecentralizedPools.sol",
  "compiler": {
    "name": "solc",
    "version": "0.8.0+commit.c7dfd78e.Emscripten.clang"
  },
  "schemaVersion": "3.4.3",
  "updatedAt": "2021-10-30T21:49:47.875Z",
  "networkType": "ethereum",
  "devdoc": {
    "kind": "dev",
    "methods": {},
    "version": 1
  },
  "userdoc": {
    "kind": "user",
    "methods": {},
    "version": 1
  }
}