{
  "contractName": "DecentralizedPools",
  "abi": [
    {
      "inputs": [],
      "stateMutability": "nonpayable",
      "type": "constructor"
    },
    {
      "anonymous": false,
      "inputs": [
        {
          "indexed": false,
          "internalType": "uint256",
          "name": "dpId",
          "type": "uint256"
        },
        {
          "indexed": false,
          "internalType": "address",
          "name": "sender",
          "type": "address"
        },
        {
          "indexed": false,
          "internalType": "address[]",
          "name": "recipients",
          "type": "address[]"
        },
        {
          "indexed": false,
          "internalType": "uint256",
          "name": "deposit",
          "type": "uint256"
        },
        {
          "indexed": false,
          "internalType": "address",
          "name": "tokenAddress",
          "type": "address"
        },
        {
          "indexed": false,
          "internalType": "uint256",
          "name": "startTime",
          "type": "uint256"
        },
        {
          "indexed": false,
          "internalType": "uint256",
          "name": "stopTime",
          "type": "uint256"
        },
        {
          "indexed": false,
          "internalType": "uint256",
          "name": "vType",
          "type": "uint256"
        }
      ],
      "name": "CreateDPool",
      "type": "event"
    },
    {
      "anonymous": false,
      "inputs": [
        {
          "indexed": false,
          "internalType": "uint256",
          "name": "dpId",
          "type": "uint256"
        },
        {
          "indexed": false,
          "internalType": "address",
          "name": "sender",
          "type": "address"
        },
        {
          "indexed": false,
          "internalType": "address[]",
          "name": "recipients",
          "type": "address[]"
        },
        {
          "indexed": false,
          "internalType": "uint256",
          "name": "dPoolBalance",
          "type": "uint256"
        }
      ],
      "name": "DeleteDPool",
      "type": "event"
    },
    {
      "anonymous": false,
      "inputs": [
        {
          "indexed": false,
          "internalType": "uint256",
          "name": "dpId",
          "type": "uint256"
        },
        {
          "indexed": false,
          "internalType": "address",
          "name": "sender",
          "type": "address"
        },
        {
          "indexed": false,
          "internalType": "address",
          "name": "recipient",
          "type": "address"
        },
        {
          "indexed": false,
          "internalType": "uint256",
          "name": "dPoolBalance",
          "type": "uint256"
        }
      ],
      "name": "DeleteRecipientsFromDPool",
      "type": "event"
    },
    {
      "anonymous": false,
      "inputs": [
        {
          "indexed": false,
          "internalType": "string",
          "name": "txt",
          "type": "string"
        },
        {
          "indexed": false,
          "internalType": "address",
          "name": "sender",
          "type": "address"
        },
        {
          "indexed": false,
          "internalType": "address",
          "name": "spender",
          "type": "address"
        },
        {
          "indexed": false,
          "internalType": "uint256",
          "name": "l",
          "type": "uint256"
        }
      ],
      "name": "Logger",
      "type": "event"
    },
    {
      "anonymous": false,
      "inputs": [
        {
          "indexed": false,
          "internalType": "uint256",
          "name": "dpId",
          "type": "uint256"
        },
        {
          "indexed": false,
          "internalType": "address",
          "name": "receiver",
          "type": "address"
        },
        {
          "indexed": false,
          "internalType": "uint256",
          "name": "amount",
          "type": "uint256"
        },
        {
          "indexed": false,
          "internalType": "uint256",
          "name": "remainingBalance",
          "type": "uint256"
        }
      ],
      "name": "WithdrawFromDPool",
      "type": "event"
    },
    {
      "stateMutability": "payable",
      "type": "fallback"
    },
    {
      "inputs": [],
      "name": "owner",
      "outputs": [
        {
          "internalType": "address",
          "name": "",
          "type": "address"
        }
      ],
      "stateMutability": "view",
      "type": "function"
    },
    {
      "stateMutability": "payable",
      "type": "receive"
    },
    {
      "inputs": [],
      "name": "getRecipientDPoolIds",
      "outputs": [
        {
          "internalType": "uint256[]",
          "name": "",
          "type": "uint256[]"
        }
      ],
      "stateMutability": "view",
      "type": "function"
    },
    {
      "inputs": [],
      "name": "getDPoolsCount",
      "outputs": [
        {
          "internalType": "uint256",
          "name": "",
          "type": "uint256"
        }
      ],
      "stateMutability": "view",
      "type": "function"
    },
    {
      "inputs": [
        {
          "internalType": "uint256",
          "name": "index",
          "type": "uint256"
        }
      ],
      "name": "getDPool",
      "outputs": [
        {
          "internalType": "uint256",
          "name": "",
          "type": "uint256"
        },
        {
          "internalType": "string",
          "name": "",
          "type": "string"
        },
        {
          "internalType": "address",
          "name": "",
          "type": "address"
        },
        {
          "internalType": "address[]",
          "name": "",
          "type": "address[]"
        },
        {
          "internalType": "uint256",
          "name": "",
          "type": "uint256"
        },
        {
          "internalType": "uint256",
          "name": "",
          "type": "uint256"
        },
        {
          "internalType": "uint256",
          "name": "",
          "type": "uint256"
        },
        {
          "internalType": "address",
          "name": "",
          "type": "address"
        },
        {
          "internalType": "uint256",
          "name": "",
          "type": "uint256"
        },
        {
          "internalType": "uint256",
          "name": "",
          "type": "uint256"
        },
        {
          "internalType": "uint256",
          "name": "",
          "type": "uint256"
        }
      ],
      "stateMutability": "view",
      "type": "function"
    },
    {
      "inputs": [
        {
          "internalType": "uint256",
          "name": "dPId",
          "type": "uint256"
        }
      ],
      "name": "getDPoolById",
      "outputs": [
        {
          "internalType": "uint256",
          "name": "",
          "type": "uint256"
        },
        {
          "internalType": "string",
          "name": "",
          "type": "string"
        },
        {
          "internalType": "address",
          "name": "",
          "type": "address"
        },
        {
          "internalType": "address[]",
          "name": "",
          "type": "address[]"
        },
        {
          "internalType": "uint256",
          "name": "",
          "type": "uint256"
        },
        {
          "internalType": "uint256",
          "name": "",
          "type": "uint256"
        },
        {
          "internalType": "uint256",
          "name": "",
          "type": "uint256"
        },
        {
          "internalType": "address",
          "name": "",
          "type": "address"
        },
        {
          "internalType": "uint256",
          "name": "",
          "type": "uint256"
        },
        {
          "internalType": "uint256",
          "name": "",
          "type": "uint256"
        },
        {
          "internalType": "uint256",
          "name": "",
          "type": "uint256"
        }
      ],
      "stateMutability": "view",
      "type": "function"
    },
    {
      "inputs": [
        {
          "internalType": "string",
          "name": "dPoolName",
          "type": "string"
        },
        {
          "internalType": "address[]",
          "name": "recipients",
          "type": "address[]"
        },
        {
          "internalType": "uint256",
          "name": "startTime",
          "type": "uint256"
        },
        {
          "internalType": "uint256",
          "name": "stopTime",
          "type": "uint256"
        }
      ],
      "name": "createEthDPool",
      "outputs": [
        {
          "internalType": "uint256",
          "name": "",
          "type": "uint256"
        }
      ],
      "stateMutability": "payable",
      "type": "function"
    },
    {
      "inputs": [
        {
          "internalType": "string",
          "name": "dPoolName",
          "type": "string"
        },
        {
          "internalType": "address[]",
          "name": "recipients",
          "type": "address[]"
        },
        {
          "internalType": "uint256",
          "name": "deposit",
          "type": "uint256"
        },
        {
          "internalType": "address payable",
          "name": "tokenAddress",
          "type": "address"
        },
        {
          "internalType": "uint256",
          "name": "startTime",
          "type": "uint256"
        },
        {
          "internalType": "uint256",
          "name": "stopTime",
          "type": "uint256"
        }
      ],
      "name": "createTokenDPool",
      "outputs": [
        {
          "internalType": "uint256",
          "name": "",
          "type": "uint256"
        }
      ],
      "stateMutability": "payable",
      "type": "function"
    },
    {
      "inputs": [
        {
          "internalType": "address",
          "name": "fromSender",
          "type": "address"
        },
        {
          "internalType": "address",
          "name": "toAddress",
          "type": "address"
        },
        {
          "internalType": "address",
          "name": "tokenAddress",
          "type": "address"
        },
        {
          "internalType": "uint256",
          "name": "amount",
          "type": "uint256"
        }
      ],
      "name": "transferTokens",
      "outputs": [],
      "stateMutability": "payable",
      "type": "function"
    },
    {
      "inputs": [
        {
          "internalType": "address",
          "name": "requester",
          "type": "address"
        },
        {
          "internalType": "uint256",
          "name": "amount",
          "type": "uint256"
        }
      ],
      "name": "transferEther",
      "outputs": [],
      "stateMutability": "payable",
      "type": "function"
    },
    {
      "inputs": [
        {
          "internalType": "uint256",
          "name": "dpId",
          "type": "uint256"
        },
        {
          "internalType": "address",
          "name": "requester",
          "type": "address"
        }
      ],
      "name": "balanceOf",
      "outputs": [
        {
          "internalType": "uint256",
          "name": "",
          "type": "uint256"
        }
      ],
      "stateMutability": "view",
      "type": "function"
    },
    {
      "inputs": [
        {
          "internalType": "uint256",
          "name": "dpId",
          "type": "uint256"
        },
        {
          "internalType": "uint256",
          "name": "amount",
          "type": "uint256"
        }
      ],
      "name": "withdrawFromDPool",
      "outputs": [
        {
          "internalType": "bool",
          "name": "",
          "type": "bool"
        }
      ],
      "stateMutability": "payable",
      "type": "function"
    },
    {
      "inputs": [
        {
          "internalType": "uint256",
          "name": "dpId",
          "type": "uint256"
        }
      ],
      "name": "deleteDPool",
      "outputs": [
        {
          "internalType": "bool",
          "name": "",
          "type": "bool"
        }
      ],
      "stateMutability": "nonpayable",
      "type": "function"
    },
    {
      "inputs": [
        {
          "internalType": "uint256",
          "name": "dpId",
          "type": "uint256"
        },
        {
          "internalType": "address",
          "name": "recipient",
          "type": "address"
        }
      ],
      "name": "deleteRecipientFromDPool",
      "outputs": [
        {
          "internalType": "bool",
          "name": "",
          "type": "bool"
        }
      ],
      "stateMutability": "nonpayable",
      "type": "function"
    }
  ],
  "bytecode": "0x6080604052600160055534801561001557600080fd5b50336000806101000a81548173ffffffffffffffffffffffffffffffffffffffff021916908373ffffffffffffffffffffffffffffffffffffffff16021790555061467b806100656000396000f3fe6080604052600436106100c65760003560e01c806368155ec11161007f5780638da5cb5b116100595780638da5cb5b14610295578063d4cc4a5f146102c0578063dfd51670146102f0578063e92042ce1461032d576100cd565b806368155ec1146101f557806377b314d0146102115780637f6482f014610258576100cd565b806305b1137b146100cf5780630f08e26a146100eb57806314006d241461011657806316825cf01461015d57806330fc51381461018d5780633656eec2146101b8576100cd565b366100cd57005b005b6100e960048036038101906100e491906130ca565b61035d565b005b3480156100f757600080fd5b50610100610411565b60405161010d9190613d19565b60405180910390f35b34801561012257600080fd5b5061013d6004803603810190610138919061328d565b6104a6565b6040516101549b9a999897969594939291906141d8565b60405180910390f35b6101776004803603810190610172919061312f565b6107ef565b6040516101849190614060565b60405180910390f35b34801561019957600080fd5b506101a26109a5565b6040516101af9190614060565b60405180910390f35b3480156101c457600080fd5b506101df60048036038101906101da91906132df565b610a40565b6040516101ec9190614060565b60405180910390f35b61020f600480360381019061020a9190613067565b610e80565b005b34801561021d57600080fd5b506102386004803603810190610233919061328d565b610f5a565b60405161024f9b9a999897969594939291906141d8565b60405180910390f35b34801561026457600080fd5b5061027f600480360381019061027a919061328d565b61121c565b60405161028c9190613d3b565b60405180910390f35b3480156102a157600080fd5b506102aa6117e0565b6040516102b79190613c9e565b60405180910390f35b6102da60048036038101906102d5919061331b565b611804565b6040516102e79190613d3b565b60405180910390f35b3480156102fc57600080fd5b50610317600480360381019061031291906132df565b611d62565b6040516103249190613d3b565b60405180910390f35b610347600480360381019061034291906131f2565b612105565b6040516103549190614060565b60405180910390f35b6000808373ffffffffffffffffffffffffffffffffffffffff168360405161038490613c89565b60006040518083038185875af1925050503d80600081146103c1576040519150601f19603f3d011682016040523d82523d6000602084013e6103c6565b606091505b50915091508161040b576040517f08c379a000000000000000000000000000000000000000000000000000000000815260040161040290613ea0565b60405180910390fd5b50505050565b6060600460003373ffffffffffffffffffffffffffffffffffffffff1673ffffffffffffffffffffffffffffffffffffffff16815260200190815260200160002080548060200260200160405190810160405280929190818152602001828054801561049c57602002820191906000526020600020905b815481526020019060010190808311610488575b5050505050905090565b6000606060006060600080600080600080600080600260003373ffffffffffffffffffffffffffffffffffffffff1673ffffffffffffffffffffffffffffffffffffffff1681526020019081526020016000208d81548110610531577f4e487b7100000000000000000000000000000000000000000000000000000000600052603260045260246000fd5b906000526020600020015490506000600160008381526020019081526020016000206040518061018001604052908160008201548152602001600182018054610579906144ff565b80601f01602080910402602001604051908101604052809291908181526020018280546105a5906144ff565b80156105f25780601f106105c7576101008083540402835291602001916105f2565b820191906000526020600020905b8154815290600101906020018083116105d557829003601f168201915b505050505081526020016002820160009054906101000a900473ffffffffffffffffffffffffffffffffffffffff1673ffffffffffffffffffffffffffffffffffffffff1673ffffffffffffffffffffffffffffffffffffffff168152602001600382018054806020026020016040519081016040528092919081815260200182805480156106d657602002820191906000526020600020905b8160009054906101000a900473ffffffffffffffffffffffffffffffffffffffff1673ffffffffffffffffffffffffffffffffffffffff168152602001906001019080831161068c575b505050505081526020016004820154815260200160058201548152602001600682015481526020016007820160009054906101000a900473ffffffffffffffffffffffffffffffffffffffff1673ffffffffffffffffffffffffffffffffffffffff1673ffffffffffffffffffffffffffffffffffffffff1681526020016008820154815260200160098201548152602001600a8201548152602001600b820160009054906101000a900460ff1615151515815250509050806000015181602001518260400151836060015184608001518560a001518660c001518760e001518861012001518961014001518a61010001519c509c509c509c509c509c509c509c509c509c509c50505091939597999b90929496989a50565b6000868680806020026020016040519081016040528093929190818152602001838360200280828437600081840152601f19601f82011690508083019250505050505050858484600084511161087a576040517f08c379a000000000000000000000000000000000000000000000000000000000815260040161087190613e60565b60405180910390fd5b600083116108bd576040517f08c379a00000000000000000000000000000000000000000000000000000000081526004016108b490613dd6565b60405180910390fd5b42821015610900576040517f08c379a00000000000000000000000000000000000000000000000000000000081526004016108f790613fc0565b60405180910390fd5b818111610942576040517f08c379a000000000000000000000000000000000000000000000000000000000815260040161093990614040565b60405180910390fd5b6109938d8d8d8d6109528e6122b3565b8d8d8d60018081111561098e577f4e487b7100000000000000000000000000000000000000000000000000000000600052602160045260246000fd5b6122d0565b94505050505098975050505050505050565b600080600260003373ffffffffffffffffffffffffffffffffffffffff1673ffffffffffffffffffffffffffffffffffffffff168152602001908152602001600020805480602002602001604051908101604052809291908181526020018280548015610a3157602002820191906000526020600020905b815481526020019060010190808311610a1d575b50505050509050805191505090565b600080600160008581526020019081526020016000206040518061018001604052908160008201548152602001600182018054610a7c906144ff565b80601f0160208091040260200160405190810160405280929190818152602001828054610aa8906144ff565b8015610af55780601f10610aca57610100808354040283529160200191610af5565b820191906000526020600020905b815481529060010190602001808311610ad857829003601f168201915b505050505081526020016002820160009054906101000a900473ffffffffffffffffffffffffffffffffffffffff1673ffffffffffffffffffffffffffffffffffffffff1673ffffffffffffffffffffffffffffffffffffffff16815260200160038201805480602002602001604051908101604052809291908181526020018280548015610bd957602002820191906000526020600020905b8160009054906101000a900473ffffffffffffffffffffffffffffffffffffffff1673ffffffffffffffffffffffffffffffffffffffff1681526020019060010190808311610b8f575b505050505081526020016004820154815260200160058201548152602001600682015481526020016007820160009054906101000a900473ffffffffffffffffffffffffffffffffffffffff1673ffffffffffffffffffffffffffffffffffffffff1673ffffffffffffffffffffffffffffffffffffffff1681526020016008820154815260200160098201548152602001600a8201548152602001600b820160009054906101000a900460ff16151515158152505090506000610c9c82612682565b9050600080610caf838560c001516126dc565b9150915081610cf3576040517f08c379a0000000000000000000000000000000000000000000000000000000008152600401610cea90613f60565b60405180910390fd5b6000811415610d09576000945050505050610e7a565b836040015173ffffffffffffffffffffffffffffffffffffffff168673ffffffffffffffffffffffffffffffffffffffff161415610da457600080610d528660a0015184612756565b9150915081610d96576040517f08c379a0000000000000000000000000000000000000000000000000000000008152600401610d8d90614020565b60405180910390fd5b809650505050505050610e7a565b600080610db68387606001515161277e565b9150915081610dfa576040517f08c379a0000000000000000000000000000000000000000000000000000000008152600401610df190613f40565b60405180910390fd5b600360008973ffffffffffffffffffffffffffffffffffffffff1673ffffffffffffffffffffffffffffffffffffffff16815260200190815260200160002060008760000151815260200190815260200160002060009054906101000a900460ff1615610e6f57809650505050505050610e7a565b600096505050505050505b92915050565b60008273ffffffffffffffffffffffffffffffffffffffff166323b872dd8686856040518463ffffffff1660e01b8152600401610ebf93929190613ce2565b602060405180830381600087803b158015610ed957600080fd5b505af1158015610eed573d6000803e3d6000fd5b505050506040513d601f19601f82011682018060405250810190610f119190613106565b905080610f53576040517f08c379a0000000000000000000000000000000000000000000000000000000008152600401610f4a90613f20565b60405180910390fd5b5050505050565b6000606060006060600080600080600080600080600160008e81526020019081526020016000206040518061018001604052908160008201548152602001600182018054610fa7906144ff565b80601f0160208091040260200160405190810160405280929190818152602001828054610fd3906144ff565b80156110205780601f10610ff557610100808354040283529160200191611020565b820191906000526020600020905b81548152906001019060200180831161100357829003601f168201915b505050505081526020016002820160009054906101000a900473ffffffffffffffffffffffffffffffffffffffff1673ffffffffffffffffffffffffffffffffffffffff1673ffffffffffffffffffffffffffffffffffffffff1681526020016003820180548060200260200160405190810160405280929190818152602001828054801561110457602002820191906000526020600020905b8160009054906101000a900473ffffffffffffffffffffffffffffffffffffffff1673ffffffffffffffffffffffffffffffffffffffff16815260200190600101908083116110ba575b505050505081526020016004820154815260200160058201548152602001600682015481526020016007820160009054906101000a900473ffffffffffffffffffffffffffffffffffffffff1673ffffffffffffffffffffffffffffffffffffffff1673ffffffffffffffffffffffffffffffffffffffff1681526020016008820154815260200160098201548152602001600a8201548152602001600b820160009054906101000a900460ff1615151515815250509050806000015181602001518260400151836060015184608001518560a001518660c001518760e001518861012001518961014001518a61010001519b509b509b509b509b509b509b509b509b509b509b505091939597999b90929496989a50565b600080600160008481526020019081526020016000206040518061018001604052908160008201548152602001600182018054611258906144ff565b80601f0160208091040260200160405190810160405280929190818152602001828054611284906144ff565b80156112d15780601f106112a6576101008083540402835291602001916112d1565b820191906000526020600020905b8154815290600101906020018083116112b457829003601f168201915b505050505081526020016002820160009054906101000a900473ffffffffffffffffffffffffffffffffffffffff1673ffffffffffffffffffffffffffffffffffffffff1673ffffffffffffffffffffffffffffffffffffffff168152602001600382018054806020026020016040519081016040528092919081815260200182805480156113b557602002820191906000526020600020905b8160009054906101000a900473ffffffffffffffffffffffffffffffffffffffff1673ffffffffffffffffffffffffffffffffffffffff168152602001906001019080831161136b575b505050505081526020016004820154815260200160058201548152602001600682015481526020016007820160009054906101000a900473ffffffffffffffffffffffffffffffffffffffff1673ffffffffffffffffffffffffffffffffffffffff1673ffffffffffffffffffffffffffffffffffffffff1681526020016008820154815260200160098201548152602001600a8201548152602001600b820160009054906101000a900460ff16151515158152505090508061016001516114b2576040517f08c379a00000000000000000000000000000000000000000000000000000000081526004016114a990613f80565b60405180910390fd5b806040015173ffffffffffffffffffffffffffffffffffffffff163373ffffffffffffffffffffffffffffffffffffffff16148061154a5750600360003373ffffffffffffffffffffffffffffffffffffffff1673ffffffffffffffffffffffffffffffffffffffff168152602001908152602001600020600084815260200190815260200160002060009054906101000a900460ff165b611589576040517f08c379a000000000000000000000000000000000000000000000000000000000815260040161158090613ec0565b60405180910390fd5b6000611599848360400151610a40565b905060008111156115ba576115b98260e0015183610100015183846127db565b5b6115c382612873565b6000600260003373ffffffffffffffffffffffffffffffffffffffff1673ffffffffffffffffffffffffffffffffffffffff168152602001908152602001600020905060008180549050141561165f57600260003373ffffffffffffffffffffffffffffffffffffffff1673ffffffffffffffffffffffffffffffffffffffff168152602001908152602001600020600061165e9190612dbb565b5b6001600086815260200190815260200160002060008082016000905560018201600061168b9190612ddc565b6002820160006101000a81549073ffffffffffffffffffffffffffffffffffffffff02191690556003820160006116c29190612e1c565b6004820160009055600582016000905560068201600090556007820160006101000a81549073ffffffffffffffffffffffffffffffffffffffff021916905560088201600090556009820160009055600a820160009055600b820160006101000a81549060ff02191690555050600360003373ffffffffffffffffffffffffffffffffffffffff1673ffffffffffffffffffffffffffffffffffffffff168152602001908152602001600020600086815260200190815260200160002060006101000a81549060ff02191690557faac53f188a8d770c87ec98b5328fc3545884d401b3aec76b69310e44ce09de5c8584604001518560600151856040516117cc9493929190614147565b60405180910390a160019350505050919050565b60008054906101000a900473ffffffffffffffffffffffffffffffffffffffff1681565b6000808211611848576040517f08c379a000000000000000000000000000000000000000000000000000000000815260040161183f90613d96565b60405180910390fd5b600060016000858152602001908152602001600020905080600b0160009054906101000a900460ff166118b0576040517f08c379a00000000000000000000000000000000000000000000000000000000081526004016118a790613f80565b60405180910390fd5b60008160050154116118f7576040517f08c379a00000000000000000000000000000000000000000000000000000000081526004016118ee90614000565b60405180910390fd5b8060020160009054906101000a900473ffffffffffffffffffffffffffffffffffffffff1673ffffffffffffffffffffffffffffffffffffffff163373ffffffffffffffffffffffffffffffffffffffff1614806119af5750600360003373ffffffffffffffffffffffffffffffffffffffff1673ffffffffffffffffffffffffffffffffffffffff168152602001908152602001600020600085815260200190815260200160002060009054906101000a900460ff165b6119ee576040517f08c379a00000000000000000000000000000000000000000000000000000000081526004016119e590613d76565b60405180910390fd5b60008160070160009054906101000a900473ffffffffffffffffffffffffffffffffffffffff1673ffffffffffffffffffffffffffffffffffffffff1663dd62ed3e30336040518363ffffffff1660e01b8152600401611a4f929190613cb9565b60206040518083038186803b158015611a6757600080fd5b505afa158015611a7b573d6000803e3d6000fd5b505050506040513d601f19601f82011682018060405250810190611a9f91906132b6565b90507f8505bd1226695547d532999c85425af6ae227b5bcef6a2685211ba42b086d27c303383604051611ad493929190613e16565b60405180910390a16000841115611af057600092505050611d5c565b6000611afc8633610a40565b905084811015611b41576040517f08c379a0000000000000000000000000000000000000000000000000000000008152600401611b3890613ee0565b60405180910390fd5b600080611b52856005015488612756565b9150915081611b96576040517f08c379a0000000000000000000000000000000000000000000000000000000008152600401611b8d90613fa0565b60405180910390fd5b808560050181905550611bd38560070160009054906101000a900473ffffffffffffffffffffffffffffffffffffffff168660080154898a6127db565b600085600501541415611d115760016000898152602001908152602001600020600080820160009055600182016000611c0c9190612ddc565b6002820160006101000a81549073ffffffffffffffffffffffffffffffffffffffff0219169055600382016000611c439190612e1c565b6004820160009055600582016000905560068201600090556007820160006101000a81549073ffffffffffffffffffffffffffffffffffffffff021916905560088201600090556009820160009055600a820160009055600b820160006101000a81549060ff02191690555050600360003373ffffffffffffffffffffffffffffffffffffffff1673ffffffffffffffffffffffffffffffffffffffff168152602001908152602001600020600089815260200190815260200160002060006101000a81549060ff02191690555b7f8a8a39e28f42c452d33cea4d81386872966d236e3f5da3e2156efb9d69e5ad6d8833898860050154604051611d4a9493929190614193565b60405180910390a16001955050505050505b92915050565b600080600160008581526020019081526020016000206040518061018001604052908160008201548152602001600182018054611d9e906144ff565b80601f0160208091040260200160405190810160405280929190818152602001828054611dca906144ff565b8015611e175780601f10611dec57610100808354040283529160200191611e17565b820191906000526020600020905b815481529060010190602001808311611dfa57829003601f168201915b505050505081526020016002820160009054906101000a900473ffffffffffffffffffffffffffffffffffffffff1673ffffffffffffffffffffffffffffffffffffffff1673ffffffffffffffffffffffffffffffffffffffff16815260200160038201805480602002602001604051908101604052809291908181526020018280548015611efb57602002820191906000526020600020905b8160009054906101000a900473ffffffffffffffffffffffffffffffffffffffff1673ffffffffffffffffffffffffffffffffffffffff1681526020019060010190808311611eb1575b505050505081526020016004820154815260200160058201548152602001600682015481526020016007820160009054906101000a900473ffffffffffffffffffffffffffffffffffffffff1673ffffffffffffffffffffffffffffffffffffffff1673ffffffffffffffffffffffffffffffffffffffff1681526020016008820154815260200160098201548152602001600a8201548152602001600b820160009054906101000a900460ff1615151515815250509050806101600151611ff8576040517f08c379a0000000000000000000000000000000000000000000000000000000008152600401611fef90613f80565b60405180910390fd5b600360003373ffffffffffffffffffffffffffffffffffffffff1673ffffffffffffffffffffffffffffffffffffffff168152602001908152602001600020600085815260200190815260200160002060009054906101000a900460ff16612095576040517f08c379a000000000000000000000000000000000000000000000000000000000815260040161208c90613ec0565b60405180910390fd5b60006120a18585610a40565b90506120b88260e0015183610100015183846127db565b7f856004f39dc959064f79558d5a3bf9eca82ffc182f7541ad8d33032bd1b1afcc85836040015186846040516120f1949392919061407b565b60405180910390a160019250505092915050565b6000848480806020026020016040519081016040528093929190818152602001838360200280828437600081840152601f19601f820116905080830192505050505050503484846000845111612190576040517f08c379a000000000000000000000000000000000000000000000000000000000815260040161218790613e60565b60405180910390fd5b600083116121d3576040517f08c379a00000000000000000000000000000000000000000000000000000000081526004016121ca90613dd6565b60405180910390fd5b42821015612216576040517f08c379a000000000000000000000000000000000000000000000000000000000815260040161220d90613fc0565b60405180910390fd5b818111612258576040517f08c379a000000000000000000000000000000000000000000000000000000000815260040161224f90614040565b60405180910390fd5b6122a38b8b8b8b3460008d8d6000600181111561229e577f4e487b7100000000000000000000000000000000000000000000000000000000600052602160045260246000fd5b6122d0565b9450505050509695505050505050565b6000670de0b6b3a7640000826122c991906143ae565b9050919050565b6000878780806020026020016040519081016040528093929190818152602001838360200280828437600081840152601f19601f8201169050808301925050505050505060005b81518110156124d75761236b82828151811061235c577f4e487b7100000000000000000000000000000000000000000000000000000000600052603260045260246000fd5b60200260200101513033612910565b6001600360008484815181106123aa577f4e487b7100000000000000000000000000000000000000000000000000000000600052603260045260246000fd5b602002602001015173ffffffffffffffffffffffffffffffffffffffff1673ffffffffffffffffffffffffffffffffffffffff1681526020019081526020016000206000600554815260200190815260200160002060006101000a81548160ff021916908315150217905550600060046000848481518110612455577f4e487b7100000000000000000000000000000000000000000000000000000000600052603260045260246000fd5b602002602001015173ffffffffffffffffffffffffffffffffffffffff1673ffffffffffffffffffffffffffffffffffffffff16815260200190815260200160002090508060055490806001815401808255809150506001900390600052602060002001600090919091909150555080806124cf90614531565b915050612317565b5060006124e5888787612a63565b9050600060405180610180016040528060055481526020018e8e8080601f016020809104026020016040519081016040528093929190818152602001838380828437600081840152601f19601f8201169050808301925050505050505081526020013373ffffffffffffffffffffffffffffffffffffffff1681526020018c8c80806020026020016040519081016040528093929190818152602001838360200280828437600081840152601f19601f8201169050808301925050505050505081526020018a81526020018a81526020018381526020018973ffffffffffffffffffffffffffffffffffffffff1681526020018681526020018881526020018781526020016001151581525090506125fc81612b57565b61260888868b34612d20565b7ff8ad82eb99d91f7afc46e04e5f3f6ab3db8ce8f33ae8bae8c60c3b0f3d562105600554338d8d8d8d8d8d8d604051612649999897969594939291906140c0565b60405180910390a16001600560008282546126649190614358565b92505081905550806000015193505050509998505050505050505050565b6000816101200151421161269957600090506126d7565b8161014001514210156126be57816101200151426126b79190614408565b90506126d7565b8161012001518261014001516126d49190614408565b90505b919050565b60008060008414156126f557600160009150915061274f565b6000838502905083858281612733577f4e487b7100000000000000000000000000000000000000000000000000000000600052601260045260246000fd5b041461274657600080925092505061274f565b60018192509250505b9250929050565b6000808383111561276d5760008091509150612777565b6001838503915091505b9250929050565b600080600083141561279657600080915091506127d4565b60018385816127ce577f4e487b7100000000000000000000000000000000000000000000000000000000600052601260045260246000fd5b04915091505b9250929050565b82600180811115612815577f4e487b7100000000000000000000000000000000000000000000000000000000600052602160045260246000fd5b141561282c5761282730338685610e80565b61286d565b600073ffffffffffffffffffffffffffffffffffffffff168473ffffffffffffffffffffffffffffffffffffffff16141561286c5761286b338261035d565b5b5b50505050565b60005b81606001515181101561290c5760006128d78360000151846060015184815181106128ca577f4e487b7100000000000000000000000000000000000000000000000000000000600052603260045260246000fd5b6020026020010151610a40565b905060008111156128f8576128f78360e0015184610100015183846127db565b5b50808061290490614531565b915050612876565b5050565b600073ffffffffffffffffffffffffffffffffffffffff168373ffffffffffffffffffffffffffffffffffffffff161415612980576040517f08c379a000000000000000000000000000000000000000000000000000000000815260040161297790613e80565b60405180910390fd5b8173ffffffffffffffffffffffffffffffffffffffff168373ffffffffffffffffffffffffffffffffffffffff1614156129ef576040517f08c379a00000000000000000000000000000000000000000000000000000000081526004016129e690613df6565b60405180910390fd5b8073ffffffffffffffffffffffffffffffffffffffff168373ffffffffffffffffffffffffffffffffffffffff161415612a5e576040517f08c379a0000000000000000000000000000000000000000000000000000000008152600401612a5590613d56565b60405180910390fd5b505050565b6000806000612a728486612756565b9150915081612ab6576040517f08c379a0000000000000000000000000000000000000000000000000000000008152600401612aad90613fe0565b60405180910390fd5b808611612af8576040517f08c379a0000000000000000000000000000000000000000000000000000000008152600401612aef90613db6565b60405180910390fd5b600080612b05888461277e565b9150915081612b49576040517f08c379a0000000000000000000000000000000000000000000000000000000008152600401612b4090613f00565b60405180910390fd5b809450505050509392505050565b612b6081612db8565b806001600083600001518152602001908152602001600020600082015181600001556020820151816001019080519060200190612b9e929190612e3d565b5060408201518160020160006101000a81548173ffffffffffffffffffffffffffffffffffffffff021916908373ffffffffffffffffffffffffffffffffffffffff1602179055506060820151816003019080519060200190612c02929190612ec3565b506080820151816004015560a0820151816005015560c0820151816006015560e08201518160070160006101000a81548173ffffffffffffffffffffffffffffffffffffffff021916908373ffffffffffffffffffffffffffffffffffffffff1602179055506101008201518160080155610120820151816009015561014082015181600a015561016082015181600b0160006101000a81548160ff0219169083151502179055509050506000600260003373ffffffffffffffffffffffffffffffffffffffff1673ffffffffffffffffffffffffffffffffffffffff168152602001908152602001600020905080826000015190806001815401808255809150506001900390600052602060002001600090919091909150555050565b82600180811115612d5a577f4e487b7100000000000000000000000000000000000000000000000000000000600052602160045260246000fd5b1415612d7157612d6c33308685610e80565b612db2565b600073ffffffffffffffffffffffffffffffffffffffff168473ffffffffffffffffffffffffffffffffffffffff161415612db157612db0308261035d565b5b5b50505050565b50565b5080546000825590600052602060002090810190612dd99190612f4d565b50565b508054612de8906144ff565b6000825580601f10612dfa5750612e19565b601f016020900490600052602060002090810190612e189190612f4d565b5b50565b5080546000825590600052602060002090810190612e3a9190612f4d565b50565b828054612e49906144ff565b90600052602060002090601f016020900481019282612e6b5760008555612eb2565b82601f10612e8457805160ff1916838001178555612eb2565b82800160010185558215612eb2579182015b82811115612eb1578251825591602001919060010190612e96565b5b509050612ebf9190612f4d565b5090565b828054828255906000526020600020908101928215612f3c579160200282015b82811115612f3b5782518260006101000a81548173ffffffffffffffffffffffffffffffffffffffff021916908373ffffffffffffffffffffffffffffffffffffffff16021790555091602001919060010190612ee3565b5b509050612f499190612f4d565b5090565b5b80821115612f66576000816000905550600101612f4e565b5090565b600081359050612f79816145e9565b92915050565b600081359050612f8e81614600565b92915050565b60008083601f840112612fa657600080fd5b8235905067ffffffffffffffff811115612fbf57600080fd5b602083019150836020820283011115612fd757600080fd5b9250929050565b600081519050612fed81614617565b92915050565b60008083601f84011261300557600080fd5b8235905067ffffffffffffffff81111561301e57600080fd5b60208301915083600182028301111561303657600080fd5b9250929050565b60008135905061304c8161462e565b92915050565b6000815190506130618161462e565b92915050565b6000806000806080858703121561307d57600080fd5b600061308b87828801612f6a565b945050602061309c87828801612f6a565b93505060406130ad87828801612f6a565b92505060606130be8782880161303d565b91505092959194509250565b600080604083850312156130dd57600080fd5b60006130eb85828601612f6a565b92505060206130fc8582860161303d565b9150509250929050565b60006020828403121561311857600080fd5b600061312684828501612fde565b91505092915050565b60008060008060008060008060c0898b03121561314b57600080fd5b600089013567ffffffffffffffff81111561316557600080fd5b6131718b828c01612ff3565b9850985050602089013567ffffffffffffffff81111561319057600080fd5b61319c8b828c01612f94565b965096505060406131af8b828c0161303d565b94505060606131c08b828c01612f7f565b93505060806131d18b828c0161303d565b92505060a06131e28b828c0161303d565b9150509295985092959890939650565b6000806000806000806080878903121561320b57600080fd5b600087013567ffffffffffffffff81111561322557600080fd5b61323189828a01612ff3565b9650965050602087013567ffffffffffffffff81111561325057600080fd5b61325c89828a01612f94565b9450945050604061326f89828a0161303d565b925050606061328089828a0161303d565b9150509295509295509295565b60006020828403121561329f57600080fd5b60006132ad8482850161303d565b91505092915050565b6000602082840312156132c857600080fd5b60006132d684828501613052565b91505092915050565b600080604083850312156132f257600080fd5b60006133008582860161303d565b925050602061331185828601612f6a565b9150509250929050565b6000806040838503121561332e57600080fd5b600061333c8582860161303d565b925050602061334d8582860161303d565b9150509250929050565b60006133638383613396565b60208301905092915050565b600061337b8383613c6b565b60208301905092915050565b61339081614496565b82525050565b61339f8161443c565b82525050565b6133ae8161443c565b82525050565b60006133c08385614303565b93506133cb82614291565b8060005b85811015613404576133e18284614341565b6133eb8882613357565b97506133f6836142dc565b9250506001810190506133cf565b5085925050509392505050565b600061341c826142bb565b6134268185614303565b93506134318361429b565b8060005b838110156134625781516134498882613357565b9750613454836142e9565b925050600181019050613435565b5085935050505092915050565b600061347a826142c6565b6134848185614314565b935061348f836142ab565b8060005b838110156134c05781516134a7888261336f565b97506134b2836142f6565b925050600181019050613493565b5085935050505092915050565b6134d681614460565b82525050565b60006134e7826142d1565b6134f18185614330565b93506135018185602086016144cc565b61350a816145d8565b840191505092915050565b6000613522601e83614330565b91507f726563697069656e742073686f756c64206e6f742062652073656e64657200006000830152602082019050919050565b6000613562602483614330565b91507f726563697069656e74206973206e6f74207265676973746572656420696e206460008301527f506f6f6c000000000000000000000000000000000000000000000000000000006020830152604082019050919050565b60006135c8600e83614330565b91507f616d6f756e74206973207a65726f0000000000000000000000000000000000006000830152602082019050919050565b6000613608602583614330565b91507f6465706f736974206d7573742062652067726561746572207468616e2064757260008301527f6174696f6e0000000000000000000000000000000000000000000000000000006020830152604082019050919050565b600061366e602083614330565b91507f6465706f7369742073686f756c642062652067726561746572207468616e20306000830152602082019050919050565b60006136ae602583614330565b91507f726563697069656e742073686f756c64206e6f74206265207468697320636f6e60008301527f74726163740000000000000000000000000000000000000000000000000000006020830152604082019050919050565b6000613714601883614330565b91507f616c6c6f77616e636520746f2073656e6420746f6b656e7300000000000000006000830152602082019050919050565b6000613754602683614330565b91507f74686572652073686f756c64206265206174206c65617374206f6e652072656360008301527f697069656e7400000000000000000000000000000000000000000000000000006020830152604082019050919050565b60006137ba601d83614330565b91507f6e6f20726563697069656e7420616464726573732070726f76696465640000006000830152602082019050919050565b60006137fa601783614330565b91507f657468657220636f756c64206e6f742062652073656e740000000000000000006000830152602082019050919050565b600061383a602083614330565b91507f64656c6574696f6e206f662064506f6f6c206973206e6f7420616c6c6f7765646000830152602082019050919050565b600061387a602483614330565b91507f7265717565737465642068696768657220616d6f756e74207468616e2072656d60008301527f61696e73000000000000000000000000000000000000000000000000000000006020830152604082019050919050565b60006138e0602383614330565b91507f6469766973696f6e20627920277a65726f27206d61792068617665206f63637560008301527f72656400000000000000000000000000000000000000000000000000000000006020830152604082019050919050565b6000613946601883614330565b91507f746f6b656e7320636f756c64206e6f742062652073656e7400000000000000006000830152602082019050919050565b6000613986601f83614330565b91507f62616c616e63654f66206469766973696f6e206e6f7420706f737369626c65006000830152602082019050919050565b60006139c6601283614330565b91507f64656c7461202a207261746520697373756500000000000000000000000000006000830152602082019050919050565b6000613a06600083614325565b9150600082019050919050565b6000613a20601483614330565b91507f44506f6f6c20646f6573206e6f742065786973740000000000000000000000006000830152602082019050919050565b6000613a60602583614330565b91507f72656d61696e67696e672062616c616e63652063616c63756c6174696f6e206660008301527f61696c65640000000000000000000000000000000000000000000000000000006020830152604082019050919050565b6000613ac6602a83614330565b91507f73746172742074696d652073686f756c6420626520616674657220626c6f636b60008301527f2e74696d657374616d70000000000000000000000000000000000000000000006020830152604082019050919050565b6000613b2c602283614330565b91507f73746f7054696d652069732067726561746572207468616e207374617274546960008301527f6d650000000000000000000000000000000000000000000000000000000000006020830152604082019050919050565b6000613b92601d83614330565b91507f6e6f2072656d61696e696e672062616c616e636520696e2064506f6f6c0000006000830152602082019050919050565b6000613bd2601c83614330565b91507f62616c616e63654f6620737562737472616374696f6e206973737565000000006000830152602082019050919050565b6000613c12602983614330565b91507f73746f7054696d652073686f756c642062652067726561746572207468616e2060008301527f737461727454696d6500000000000000000000000000000000000000000000006020830152604082019050919050565b613c748161448c565b82525050565b613c838161448c565b82525050565b6000613c94826139f9565b9150819050919050565b6000602082019050613cb360008301846133a5565b92915050565b6000604082019050613cce60008301856133a5565b613cdb60208301846133a5565b9392505050565b6000606082019050613cf760008301866133a5565b613d0460208301856133a5565b613d116040830184613c7a565b949350505050565b60006020820190508181036000830152613d33818461346f565b905092915050565b6000602082019050613d5060008301846134cd565b92915050565b60006020820190508181036000830152613d6f81613515565b9050919050565b60006020820190508181036000830152613d8f81613555565b9050919050565b60006020820190508181036000830152613daf816135bb565b9050919050565b60006020820190508181036000830152613dcf816135fb565b9050919050565b60006020820190508181036000830152613def81613661565b9050919050565b60006020820190508181036000830152613e0f816136a1565b9050919050565b60006080820190508181036000830152613e2f81613707565b9050613e3e60208301866133a5565b613e4b60408301856133a5565b613e586060830184613c7a565b949350505050565b60006020820190508181036000830152613e7981613747565b9050919050565b60006020820190508181036000830152613e99816137ad565b9050919050565b60006020820190508181036000830152613eb9816137ed565b9050919050565b60006020820190508181036000830152613ed98161382d565b9050919050565b60006020820190508181036000830152613ef98161386d565b9050919050565b60006020820190508181036000830152613f19816138d3565b9050919050565b60006020820190508181036000830152613f3981613939565b9050919050565b60006020820190508181036000830152613f5981613979565b9050919050565b60006020820190508181036000830152613f79816139b9565b9050919050565b60006020820190508181036000830152613f9981613a13565b9050919050565b60006020820190508181036000830152613fb981613a53565b9050919050565b60006020820190508181036000830152613fd981613ab9565b9050919050565b60006020820190508181036000830152613ff981613b1f565b9050919050565b6000602082019050818103600083015261401981613b85565b9050919050565b6000602082019050818103600083015261403981613bc5565b9050919050565b6000602082019050818103600083015261405981613c05565b9050919050565b60006020820190506140756000830184613c7a565b92915050565b60006080820190506140906000830187613c7a565b61409d60208301866133a5565b6140aa60408301856133a5565b6140b76060830184613c7a565b95945050505050565b6000610100820190506140d6600083018c613c7a565b6140e3602083018b6133a5565b81810360408301526140f681898b6133b4565b90506141056060830188613c7a565b6141126080830187613387565b61411f60a0830186613c7a565b61412c60c0830185613c7a565b61413960e0830184613c7a565b9a9950505050505050505050565b600060808201905061415c6000830187613c7a565b61416960208301866133a5565b818103604083015261417b8185613411565b905061418a6060830184613c7a565b95945050505050565b60006080820190506141a86000830187613c7a565b6141b560208301866133a5565b6141c26040830185613c7a565b6141cf6060830184613c7a565b95945050505050565b6000610160820190506141ee600083018e613c7a565b8181036020830152614200818d6134dc565b905061420f604083018c6133a5565b8181036060830152614221818b613411565b9050614230608083018a613c7a565b61423d60a0830189613c7a565b61424a60c0830188613c7a565b61425760e08301876133a5565b614265610100830186613c7a565b614273610120830185613c7a565b614281610140830184613c7a565b9c9b505050505050505050505050565b6000819050919050565b6000819050602082019050919050565b6000819050602082019050919050565b600081519050919050565b600081519050919050565b600081519050919050565b6000602082019050919050565b6000602082019050919050565b6000602082019050919050565b600082825260208201905092915050565b600082825260208201905092915050565b600081905092915050565b600082825260208201905092915050565b60006143506020840184612f6a565b905092915050565b60006143638261448c565b915061436e8361448c565b9250827fffffffffffffffffffffffffffffffffffffffffffffffffffffffffffffffff038211156143a3576143a261457a565b5b828201905092915050565b60006143b98261448c565b91506143c48361448c565b9250817fffffffffffffffffffffffffffffffffffffffffffffffffffffffffffffffff04831182151516156143fd576143fc61457a565b5b828202905092915050565b60006144138261448c565b915061441e8361448c565b9250828210156144315761443061457a565b5b828203905092915050565b60006144478261446c565b9050919050565b60006144598261446c565b9050919050565b60008115159050919050565b600073ffffffffffffffffffffffffffffffffffffffff82169050919050565b6000819050919050565b60006144a1826144a8565b9050919050565b60006144b3826144ba565b9050919050565b60006144c58261446c565b9050919050565b60005b838110156144ea5780820151818401526020810190506144cf565b838111156144f9576000848401525b50505050565b6000600282049050600182168061451757607f821691505b6020821081141561452b5761452a6145a9565b5b50919050565b600061453c8261448c565b91507fffffffffffffffffffffffffffffffffffffffffffffffffffffffffffffffff82141561456f5761456e61457a565b5b600182019050919050565b7f4e487b7100000000000000000000000000000000000000000000000000000000600052601160045260246000fd5b7f4e487b7100000000000000000000000000000000000000000000000000000000600052602260045260246000fd5b6000601f19601f8301169050919050565b6145f28161443c565b81146145fd57600080fd5b50565b6146098161444e565b811461461457600080fd5b50565b61462081614460565b811461462b57600080fd5b50565b6146378161448c565b811461464257600080fd5b5056fea2646970667358221220b6d2a28b6886b18a0fc73d72de1c92884fca1e8be315dcafa93f93701a20211b64736f6c63430008000033",
  "immutableReferences": {},
  "source": "// SPDX-License-Identifier: MIT\r\npragma solidity 0.8.0;\r\n\r\nimport \"@openzeppelin/contracts/access/Ownable.sol\";\r\nimport \"@openzeppelin/contracts/utils/math/SafeMath.sol\";\r\nimport \"@openzeppelin/contracts/token/ERC20/IERC20.sol\";\r\n\r\nimport \"./Stream.sol\";\r\nimport \"./utils/DPoolUtil.sol\";\r\n\r\n/*\r\n * Extended Streaming protocol\r\n */\r\ncontract DecentralizedPools {\r\n    // --\r\n\r\n    // contract owner\r\n    address public owner;\r\n\r\n    event CreateDPool(\r\n        uint256 dpId,\r\n        address sender,\r\n        address[] recipients,\r\n        uint256 deposit,\r\n        address tokenAddress,\r\n        uint256 startTime,\r\n        uint256 stopTime,\r\n        uint256 vType\r\n    );\r\n\r\n    event WithdrawFromDPool(\r\n        uint256 dpId,\r\n        address receiver,\r\n        uint256 amount,\r\n        uint256 remainingBalance\r\n    );\r\n\r\n    event DeleteDPool(\r\n        uint256 dpId,\r\n        address sender,\r\n        address[] recipients,\r\n        uint256 dPoolBalance\r\n    );\r\n\r\n    event DeleteRecipientsFromDPool(\r\n        uint256 dpId,\r\n        address sender,\r\n        address recipient,\r\n        uint256 dPoolBalance\r\n    );\r\n\r\n    // different pools by their ids\r\n    mapping(uint256 => Stream.DPool) dPools;\r\n\r\n    // get all pool ids by creator\r\n    mapping(address => uint256[]) dPoolIdsByCreator;\r\n\r\n    // every recipient address by dPoolId\r\n    mapping(address => mapping(uint256 => bool)) recipientsByDPoolId;\r\n    // get dPool ids by recipient\r\n    mapping(address => uint256[]) recipientDPoolIds;\r\n\r\n    // ident of every new dPool\r\n    uint256 dPoolIdCounter = 1;\r\n\r\n    // validates inputs for new dPool\r\n    modifier validateInput(\r\n        address[] memory recipients,\r\n        uint256 deposit,\r\n        uint256 startTime,\r\n        uint256 stopTime\r\n    ) {\r\n        require(\r\n            recipients.length > 0,\r\n            \"there should be at least one recipient\"\r\n        );\r\n        require(deposit > 0, \"deposit should be greater than 0\");\r\n        require(\r\n            startTime >= block.timestamp,\r\n            \"start time should be after block.timestamp\"\r\n        );\r\n        require(\r\n            stopTime > startTime,\r\n            \"stopTime should be greater than startTime\"\r\n        );\r\n        _;\r\n    }\r\n\r\n    // validates and stores recipients in mapping\r\n    modifier validateAndMapRecipients(address[] memory recipients) {\r\n        for (uint256 i = 0; i < recipients.length; i++) {\r\n            DPoolUtil.validateRecipient(\r\n                recipients[i],\r\n                address(this),\r\n                msg.sender\r\n            );\r\n\r\n            /*\r\n            TODO Use modifiers only for checks - \r\n            move to function\r\n            */\r\n            // map recipients by dPoolId for convinient access\r\n            recipientsByDPoolId[recipients[i]][dPoolIdCounter] = true;\r\n            uint256[] storage dPIds = recipientDPoolIds[recipients[i]];\r\n            dPIds.push(dPoolIdCounter);\r\n        }\r\n        _;\r\n    }\r\n\r\n    constructor() {\r\n        owner = msg.sender;\r\n    }\r\n\r\n    function getRecipientDPoolIds() external view returns (uint256[] memory) {\r\n        return recipientDPoolIds[msg.sender];\r\n    }\r\n\r\n    function getDPoolsCount() external view returns (uint256) {\r\n        uint256[] memory _dPoolIds = dPoolIdsByCreator[msg.sender];\r\n        return _dPoolIds.length;\r\n    }\r\n\r\n    function getDPool(uint256 index)\r\n        external\r\n        view\r\n        returns (\r\n            uint256,\r\n            string memory,\r\n            address,\r\n            address[] memory,\r\n            uint256,\r\n            uint256,\r\n            uint256,\r\n            address,\r\n            uint256,\r\n            uint256,\r\n            uint256\r\n        )\r\n    {\r\n        uint256 dPoolId = dPoolIdsByCreator[msg.sender][index];\r\n        Stream.DPool memory _dPool = dPools[dPoolId];\r\n        return (\r\n            _dPool.dPoolId,\r\n            _dPool.dPoolName,\r\n            _dPool.creator,\r\n            _dPool.recipients,\r\n            _dPool.deposit,\r\n            _dPool.remainingBalance,\r\n            _dPool.ratePerSecond,\r\n            _dPool.tokenAddress,\r\n            _dPool.startTime,\r\n            _dPool.stopTime,\r\n            _dPool.dVType\r\n        );\r\n    }\r\n\r\n    function getDPoolById(uint256 dPId)\r\n        external\r\n        view\r\n        returns (\r\n            uint256,\r\n            string memory,\r\n            address,\r\n            address[] memory,\r\n            uint256,\r\n            uint256,\r\n            uint256,\r\n            address,\r\n            uint256,\r\n            uint256,\r\n            uint256\r\n        )\r\n    {\r\n        Stream.DPool memory _dPool = dPools[dPId];\r\n        return (\r\n            _dPool.dPoolId,\r\n            _dPool.dPoolName,\r\n            _dPool.creator,\r\n            _dPool.recipients,\r\n            _dPool.deposit,\r\n            _dPool.remainingBalance,\r\n            _dPool.ratePerSecond,\r\n            _dPool.tokenAddress,\r\n            _dPool.startTime,\r\n            _dPool.stopTime,\r\n            _dPool.dVType\r\n        );\r\n    }\r\n\r\n    /*\r\n     * @notice Creates a DPool that starts automatically calculating rates per second\r\n     *  when startTime is reached.\r\n     */\r\n    function createEthDPool(\r\n        string calldata dPoolName,\r\n        address[] calldata recipients,\r\n        uint256 startTime,\r\n        uint256 stopTime\r\n    )\r\n        public\r\n        payable\r\n        validateInput(recipients, msg.value, startTime, stopTime)\r\n        returns (uint256)\r\n    {\r\n        return\r\n            createDPool(\r\n                dPoolName,\r\n                recipients,\r\n                msg.value,\r\n                payable(address(0x0)),\r\n                startTime,\r\n                stopTime,\r\n                uint256(Stream.DValueType.ETH)\r\n            );\r\n    }\r\n\r\n    /*\r\n     * @notice Creates a DPool with a manual starter switch before calculating rates per second.\r\n     */\r\n    function createTokenDPool(\r\n        string calldata dPoolName,\r\n        address[] calldata recipients,\r\n        uint256 deposit,\r\n        address payable tokenAddress,\r\n        uint256 startTime,\r\n        uint256 stopTime\r\n    )\r\n        public\r\n        payable\r\n        validateInput(recipients, deposit, startTime, stopTime)\r\n        returns (uint256)\r\n    {\r\n        return\r\n            createDPool(\r\n                dPoolName,\r\n                recipients,\r\n                toWei(deposit),\r\n                tokenAddress,\r\n                startTime,\r\n                stopTime,\r\n                uint256(Stream.DValueType.TOKEN)\r\n            );\r\n    }\r\n\r\n    /*\r\n     * @notice Creates a DPool that starts automatically calculating rates per second\r\n     *  when startTime is reached.\r\n     * @param _recipients - all the recipients who will receive and withdraw from pool\r\n     * @param _deposit - the amount of ether or tokens in pool\r\n     * @param _tokenAddress - ERC20 token address\r\n     * @param _type used value type\r\n     * @param _startTime - of the distribution\r\n     * @param _stopTime - of the distribution\r\n     */\r\n    function createDPool(\r\n        string calldata _dPoolName,\r\n        address[] calldata _recipients,\r\n        uint256 _deposit,\r\n        address payable _tokenAddress,\r\n        uint256 _startTime,\r\n        uint256 _stopTime,\r\n        uint256 _type\r\n    ) internal validateAndMapRecipients(_recipients) returns (uint256) {\r\n        uint256 _ratePerSecond = DPoolUtil.calculateRPS(\r\n            _deposit,\r\n            _startTime,\r\n            _stopTime\r\n        );\r\n\r\n        Stream.DPool memory dPool = Stream.DPool({\r\n            dPoolId: dPoolIdCounter,\r\n            dPoolName: _dPoolName,\r\n            creator: msg.sender,\r\n            recipients: _recipients,\r\n            deposit: _deposit,\r\n            remainingBalance: _deposit,\r\n            ratePerSecond: _ratePerSecond,\r\n            tokenAddress: _tokenAddress,\r\n            dVType: _type,\r\n            startTime: _startTime,\r\n            stopTime: _stopTime,\r\n            isCreated: true\r\n        });\r\n\r\n        saveDPool(dPool);\r\n        transferToContract(_tokenAddress, _type, _deposit, msg.value);\r\n\r\n        emit CreateDPool(\r\n            dPoolIdCounter,\r\n            msg.sender,\r\n            _recipients,\r\n            _deposit,\r\n            _tokenAddress,\r\n            _startTime,\r\n            _stopTime,\r\n            _type\r\n        );\r\n\r\n        dPoolIdCounter += uint256(1);\r\n\r\n        return dPool.dPoolId;\r\n    }\r\n\r\n    // save given dPool on chain and map dPoolId\r\n    function saveDPool(Stream.DPool memory dPool) private {\r\n        registerDPoolIdsToRecipients(dPool);\r\n        dPools[dPool.dPoolId] = dPool;\r\n        uint256[] storage creatorPoolIds = dPoolIdsByCreator[msg.sender];\r\n        creatorPoolIds.push(dPool.dPoolId);\r\n    }\r\n\r\n    function registerDPoolIdsToRecipients(Stream.DPool memory dPool) private {}\r\n\r\n    // transfers tokens to contract\r\n    function transferTokens(\r\n        address fromSender,\r\n        address toAddress,\r\n        address tokenAddress,\r\n        uint256 amount\r\n    ) public payable {\r\n        bool sent = IERC20(tokenAddress).transferFrom(\r\n            fromSender,\r\n            toAddress,\r\n            amount\r\n        );\r\n        require(sent, \"tokens could not be sent\");\r\n    }\r\n\r\n    // transfers ether to contract\r\n    function transferEther(address requester, uint256 amount) public payable {\r\n        (bool sent, bytes memory data) = requester.call{value: amount}(\"\");\r\n        require(sent, \"ether could not be sent\");\r\n    }\r\n\r\n    // transfer tokens or ether\r\n    function transferToContract(\r\n        address tokenAddress,\r\n        uint256 dVType,\r\n        uint256 tokenAmount,\r\n        uint256 ethAmount\r\n    ) internal {\r\n        if (uint256(Stream.DValueType.TOKEN) == dVType) {\r\n            transferTokens(\r\n                msg.sender,\r\n                address(this),\r\n                tokenAddress,\r\n                tokenAmount\r\n            );\r\n        } else if (tokenAddress == address(0x0)) {\r\n            transferEther(address(this), ethAmount);\r\n        }\r\n    }\r\n\r\n    // withdraw tokens or ether\r\n    function withdrawFromContract(\r\n        address tokenAddress,\r\n        uint256 dVType,\r\n        uint256 tokenAmount,\r\n        uint256 ethAmount\r\n    ) internal {\r\n        if (uint256(Stream.DValueType.TOKEN) == dVType) {\r\n            transferTokens(\r\n                address(this),\r\n                msg.sender,\r\n                tokenAddress,\r\n                tokenAmount\r\n            );\r\n        } else if (tokenAddress == address(0x0)) {\r\n            transferEther(msg.sender, ethAmount);\r\n        }\r\n    }\r\n\r\n    /*\r\n     * @notice Calculates the accumulated balance for a single address according to passed time.\r\n     * @param dpId - id of a dPool\r\n     * @param requester - address of a single recipient\r\n     * @param recipientSize - the size/length of existing recipients in dPool\r\n     * @returns balance - of the recipient or the sender/creator of dPool\r\n     */\r\n    function balanceOf(uint256 dpId, address requester)\r\n        public\r\n        view\r\n        returns (uint256)\r\n    {\r\n        Stream.DPool memory dPool = dPools[dpId];\r\n        uint256 delta = DPoolUtil.deltaOf(dPool);\r\n\r\n        (bool totalResult, uint256 totalRecipientBalance) = SafeMath.tryMul(\r\n            delta,\r\n            dPool.ratePerSecond\r\n        );\r\n        require(totalResult, \"delta * rate issue\");\r\n\r\n        if (totalRecipientBalance == 0) {\r\n            return 0;\r\n        }\r\n\r\n        if (requester == dPool.creator) {\r\n            (bool senderResult, uint256 senderBalance) = SafeMath.trySub(\r\n                dPool.remainingBalance,\r\n                totalRecipientBalance\r\n            );\r\n            require(senderResult, \"balanceOf substraction issue\");\r\n\r\n            return senderBalance;\r\n        }\r\n\r\n        (bool currentResult, uint256 individualRecipientBalance) = SafeMath\r\n            .tryDiv(totalRecipientBalance, dPool.recipients.length);\r\n        require(currentResult, \"balanceOf division not possible\");\r\n\r\n        if (recipientsByDPoolId[requester][dPool.dPoolId]) {\r\n            return individualRecipientBalance;\r\n        }\r\n\r\n        return 0;\r\n    }\r\n\r\n    event Logger(string txt, address sender, address spender, uint256 l);\r\n\r\n    /*\r\n     * @notice Sender will receive requested amount, if the registered address is in dPool\r\n     *  and remaingBalance of dPool is greater zero.\r\n     * @param dpId - identification of dPool\r\n     * @param amount - requested from sender\r\n     * @returns true - if function executes fantastically\r\n     */\r\n    function withdrawFromDPool(uint256 dpId, uint256 amount)\r\n        public\r\n        payable\r\n        returns (bool)\r\n    {\r\n        /* To safe transaction cost some call constraints are deliberately inside the function\r\n            and not in modifiers.\r\n        */\r\n        require(amount > 0, \"amount is zero\");\r\n        Stream.DPool storage dPool = dPools[dpId];\r\n        require(dPool.isCreated, \"DPool does not exist\");\r\n        require(dPool.remainingBalance > 0, \"no remaining balance in dPool\");\r\n        require(\r\n            msg.sender == dPool.creator ||\r\n                recipientsByDPoolId[msg.sender][dpId],\r\n            \"recipient is not registered in dPool\"\r\n        );\r\n\r\n        uint256 amt = IERC20(dPool.tokenAddress).allowance(\r\n            address(this),\r\n            msg.sender\r\n        );\r\n        emit Logger(\"allowance to send tokens\", address(this), msg.sender, amt);\r\n        if (amount > 0) {\r\n            return false;\r\n        }\r\n        uint256 cBalance = balanceOf(dpId, msg.sender);\r\n\r\n        require(cBalance >= amount, \"requested higher amount than remains\");\r\n\r\n        (bool result, uint256 newRemainingBalance) = SafeMath.trySub(\r\n            dPool.remainingBalance,\r\n            amount\r\n        );\r\n        require(result, \"remainging balance calculation failed\");\r\n\r\n        dPool.remainingBalance = newRemainingBalance;\r\n\r\n        withdrawFromContract(dPool.tokenAddress, dPool.dVType, amount, amount);\r\n\r\n        if (dPool.remainingBalance == 0) {\r\n            delete dPools[dpId];\r\n            delete recipientsByDPoolId[msg.sender][dpId];\r\n        }\r\n\r\n        emit WithdrawFromDPool(\r\n            dpId,\r\n            msg.sender,\r\n            amount,\r\n            dPool.remainingBalance\r\n        );\r\n\r\n        return true;\r\n    }\r\n\r\n    /*\r\n     * @notice Deletes dPool for given dpId and send remaining balance to creator\r\n     */\r\n    function deleteDPool(uint256 dpId) external returns (bool) {\r\n        Stream.DPool memory dPool = dPools[dpId];\r\n        require(dPool.isCreated, \"DPool does not exist\");\r\n        require(\r\n            msg.sender == dPool.creator ||\r\n                recipientsByDPoolId[msg.sender][dpId],\r\n            \"deletion of dPool is not allowed\"\r\n        );\r\n\r\n        uint256 dPoolBalance = balanceOf(dpId, dPool.creator);\r\n\r\n        if (dPoolBalance > 0) {\r\n            withdrawFromContract(\r\n                dPool.tokenAddress,\r\n                dPool.dVType,\r\n                dPoolBalance,\r\n                dPoolBalance\r\n            );\r\n        }\r\n\r\n        transferRecipientBalances(dPool);\r\n\r\n        // TODO delete creator pool id !!!!\r\n\r\n        uint256[] storage creatorPoolIds = dPoolIdsByCreator[msg.sender];\r\n\r\n        if (creatorPoolIds.length == 0) {\r\n            delete dPoolIdsByCreator[msg.sender];\r\n        }\r\n        delete dPools[dpId];\r\n        delete recipientsByDPoolId[msg.sender][dpId];\r\n\r\n        emit DeleteDPool(dpId, dPool.creator, dPool.recipients, dPoolBalance);\r\n\r\n        return true;\r\n    }\r\n\r\n    function deleteRecipientFromDPool(uint256 dpId, address recipient)\r\n        external\r\n        returns (bool)\r\n    {\r\n        Stream.DPool memory dPool = dPools[dpId];\r\n        require(dPool.isCreated, \"DPool does not exist\");\r\n        require(\r\n            recipientsByDPoolId[msg.sender][dpId],\r\n            \"deletion of dPool is not allowed\"\r\n        );\r\n\r\n        uint256 dPoolBalance = balanceOf(dpId, recipient);\r\n        withdrawFromContract(\r\n            dPool.tokenAddress,\r\n            dPool.dVType,\r\n            dPoolBalance,\r\n            dPoolBalance\r\n        );\r\n\r\n        emit DeleteRecipientsFromDPool(\r\n            dpId,\r\n            dPool.creator,\r\n            recipient,\r\n            dPoolBalance\r\n        );\r\n\r\n        return true;\r\n    }\r\n\r\n    function transferRecipientBalances(Stream.DPool memory dPool) internal {\r\n        for (uint256 i = 0; i < dPool.recipients.length; i++) {\r\n            uint256 recipientBalance = balanceOf(\r\n                dPool.dPoolId,\r\n                dPool.recipients[i]\r\n            );\r\n\r\n            if (recipientBalance > 0) {\r\n                withdrawFromContract(\r\n                    dPool.tokenAddress,\r\n                    dPool.dVType,\r\n                    recipientBalance,\r\n                    recipientBalance\r\n                );\r\n            }\r\n        }\r\n    }\r\n\r\n    function toWei(uint256 balance) internal pure returns (uint256) {\r\n        return balance * 10**18;\r\n    }\r\n\r\n    fallback() external payable {}\r\n\r\n    receive() external payable {}\r\n}\r\n",
  "sourcePath": "C:\\Users\\Magomed\\Desktop\\Test_blockchain_Project\\consensys_projects\\blockchain-developer-bootcamp-final-project\\contracts\\DecentralizedPools.sol",
  "compiler": {
    "name": "solc",
    "version": "0.8.0+commit.c7dfd78e.Emscripten.clang"
  },
  "schemaVersion": "3.4.3",
  "updatedAt": "2021-11-13T13:11:22.305Z",
  "devdoc": {
    "kind": "dev",
    "methods": {},
    "version": 1
  },
  "userdoc": {
    "kind": "user",
    "methods": {},
    "version": 1
  }
}