{
  "contractName": "DecentralizedPools",
  "abi": [
    {
      "inputs": [],
      "stateMutability": "nonpayable",
      "type": "constructor"
    },
    {
      "anonymous": false,
      "inputs": [
        {
          "indexed": false,
          "internalType": "uint256",
          "name": "dpId",
          "type": "uint256"
        },
        {
          "indexed": false,
          "internalType": "address",
          "name": "sender",
          "type": "address"
        },
        {
          "indexed": false,
          "internalType": "address[]",
          "name": "recipients",
          "type": "address[]"
        },
        {
          "indexed": false,
          "internalType": "uint256",
          "name": "deposit",
          "type": "uint256"
        },
        {
          "indexed": false,
          "internalType": "address",
          "name": "tokenAddress",
          "type": "address"
        },
        {
          "indexed": false,
          "internalType": "uint256",
          "name": "startTime",
          "type": "uint256"
        },
        {
          "indexed": false,
          "internalType": "uint256",
          "name": "stopTime",
          "type": "uint256"
        },
        {
          "indexed": false,
          "internalType": "uint256",
          "name": "vType",
          "type": "uint256"
        }
      ],
      "name": "CreateDPool",
      "type": "event"
    },
    {
      "anonymous": false,
      "inputs": [
        {
          "indexed": false,
          "internalType": "uint256",
          "name": "dpId",
          "type": "uint256"
        },
        {
          "indexed": false,
          "internalType": "address",
          "name": "sender",
          "type": "address"
        },
        {
          "indexed": false,
          "internalType": "address[]",
          "name": "recipients",
          "type": "address[]"
        },
        {
          "indexed": false,
          "internalType": "uint256",
          "name": "dPoolBalance",
          "type": "uint256"
        }
      ],
      "name": "DeleteDPool",
      "type": "event"
    },
    {
      "anonymous": false,
      "inputs": [
        {
          "indexed": false,
          "internalType": "uint256",
          "name": "dpId",
          "type": "uint256"
        },
        {
          "indexed": false,
          "internalType": "address",
          "name": "sender",
          "type": "address"
        },
        {
          "indexed": false,
          "internalType": "address",
          "name": "recipient",
          "type": "address"
        },
        {
          "indexed": false,
          "internalType": "uint256",
          "name": "dPoolBalance",
          "type": "uint256"
        }
      ],
      "name": "DeleteRecipientsFromDPool",
      "type": "event"
    },
    {
      "anonymous": false,
      "inputs": [
        {
          "indexed": false,
          "internalType": "string",
          "name": "txt",
          "type": "string"
        },
        {
          "indexed": false,
          "internalType": "address",
          "name": "sender",
          "type": "address"
        },
        {
          "indexed": false,
          "internalType": "address",
          "name": "spender",
          "type": "address"
        },
        {
          "indexed": false,
          "internalType": "uint256",
          "name": "l",
          "type": "uint256"
        }
      ],
      "name": "Logger",
      "type": "event"
    },
    {
      "anonymous": false,
      "inputs": [
        {
          "indexed": false,
          "internalType": "uint256",
          "name": "dpId",
          "type": "uint256"
        },
        {
          "indexed": false,
          "internalType": "address",
          "name": "receiver",
          "type": "address"
        },
        {
          "indexed": false,
          "internalType": "uint256",
          "name": "amount",
          "type": "uint256"
        },
        {
          "indexed": false,
          "internalType": "uint256",
          "name": "remainingBalance",
          "type": "uint256"
        }
      ],
      "name": "WithdrawFromDPool",
      "type": "event"
    },
    {
      "stateMutability": "payable",
      "type": "fallback"
    },
    {
      "inputs": [],
      "name": "owner",
      "outputs": [
        {
          "internalType": "address",
          "name": "",
          "type": "address"
        }
      ],
      "stateMutability": "view",
      "type": "function"
    },
    {
      "stateMutability": "payable",
      "type": "receive"
    },
    {
      "inputs": [],
      "name": "getRecipientDPoolIds",
      "outputs": [
        {
          "internalType": "uint256[]",
          "name": "",
          "type": "uint256[]"
        }
      ],
      "stateMutability": "view",
      "type": "function"
    },
    {
      "inputs": [],
      "name": "getDPoolsCount",
      "outputs": [
        {
          "internalType": "uint256",
          "name": "",
          "type": "uint256"
        }
      ],
      "stateMutability": "view",
      "type": "function"
    },
    {
      "inputs": [
        {
          "internalType": "uint256",
          "name": "index",
          "type": "uint256"
        }
      ],
      "name": "getDPool",
      "outputs": [
        {
          "internalType": "uint256",
          "name": "",
          "type": "uint256"
        },
        {
          "internalType": "string",
          "name": "",
          "type": "string"
        },
        {
          "internalType": "address",
          "name": "",
          "type": "address"
        },
        {
          "internalType": "address[]",
          "name": "",
          "type": "address[]"
        },
        {
          "internalType": "uint256",
          "name": "",
          "type": "uint256"
        },
        {
          "internalType": "uint256",
          "name": "",
          "type": "uint256"
        },
        {
          "internalType": "uint256",
          "name": "",
          "type": "uint256"
        },
        {
          "internalType": "address",
          "name": "",
          "type": "address"
        },
        {
          "internalType": "uint256",
          "name": "",
          "type": "uint256"
        },
        {
          "internalType": "uint256",
          "name": "",
          "type": "uint256"
        },
        {
          "internalType": "uint256",
          "name": "",
          "type": "uint256"
        }
      ],
      "stateMutability": "view",
      "type": "function"
    },
    {
      "inputs": [
        {
          "internalType": "uint256",
          "name": "dPId",
          "type": "uint256"
        }
      ],
      "name": "getDPoolById",
      "outputs": [
        {
          "internalType": "uint256",
          "name": "",
          "type": "uint256"
        },
        {
          "internalType": "string",
          "name": "",
          "type": "string"
        },
        {
          "internalType": "address",
          "name": "",
          "type": "address"
        },
        {
          "internalType": "address[]",
          "name": "",
          "type": "address[]"
        },
        {
          "internalType": "uint256",
          "name": "",
          "type": "uint256"
        },
        {
          "internalType": "uint256",
          "name": "",
          "type": "uint256"
        },
        {
          "internalType": "uint256",
          "name": "",
          "type": "uint256"
        },
        {
          "internalType": "address",
          "name": "",
          "type": "address"
        },
        {
          "internalType": "uint256",
          "name": "",
          "type": "uint256"
        },
        {
          "internalType": "uint256",
          "name": "",
          "type": "uint256"
        },
        {
          "internalType": "uint256",
          "name": "",
          "type": "uint256"
        }
      ],
      "stateMutability": "view",
      "type": "function"
    },
    {
      "inputs": [
        {
          "internalType": "string",
          "name": "dPoolName",
          "type": "string"
        },
        {
          "internalType": "address[]",
          "name": "recipients",
          "type": "address[]"
        },
        {
          "internalType": "uint256",
          "name": "startTime",
          "type": "uint256"
        },
        {
          "internalType": "uint256",
          "name": "stopTime",
          "type": "uint256"
        }
      ],
      "name": "createEthDPool",
      "outputs": [
        {
          "internalType": "uint256",
          "name": "",
          "type": "uint256"
        }
      ],
      "stateMutability": "payable",
      "type": "function"
    },
    {
      "inputs": [
        {
          "internalType": "string",
          "name": "dPoolName",
          "type": "string"
        },
        {
          "internalType": "address[]",
          "name": "recipients",
          "type": "address[]"
        },
        {
          "internalType": "uint256",
          "name": "deposit",
          "type": "uint256"
        },
        {
          "internalType": "address payable",
          "name": "tokenAddress",
          "type": "address"
        },
        {
          "internalType": "uint256",
          "name": "startTime",
          "type": "uint256"
        },
        {
          "internalType": "uint256",
          "name": "stopTime",
          "type": "uint256"
        }
      ],
      "name": "createTokenDPool",
      "outputs": [
        {
          "internalType": "uint256",
          "name": "",
          "type": "uint256"
        }
      ],
      "stateMutability": "payable",
      "type": "function"
    },
    {
      "inputs": [
        {
          "internalType": "address",
          "name": "fromSender",
          "type": "address"
        },
        {
          "internalType": "address",
          "name": "toAddress",
          "type": "address"
        },
        {
          "internalType": "address",
          "name": "tokenAddress",
          "type": "address"
        },
        {
          "internalType": "uint256",
          "name": "amount",
          "type": "uint256"
        }
      ],
      "name": "transferTokens",
      "outputs": [],
      "stateMutability": "payable",
      "type": "function"
    },
    {
      "inputs": [
        {
          "internalType": "address",
          "name": "requester",
          "type": "address"
        },
        {
          "internalType": "uint256",
          "name": "amount",
          "type": "uint256"
        }
      ],
      "name": "transferEther",
      "outputs": [],
      "stateMutability": "payable",
      "type": "function"
    },
    {
      "inputs": [
        {
          "internalType": "uint256",
          "name": "dpId",
          "type": "uint256"
        },
        {
          "internalType": "address",
          "name": "requester",
          "type": "address"
        }
      ],
      "name": "balanceOf",
      "outputs": [
        {
          "internalType": "uint256",
          "name": "",
          "type": "uint256"
        }
      ],
      "stateMutability": "view",
      "type": "function"
    },
    {
      "inputs": [
        {
          "internalType": "uint256",
          "name": "dpId",
          "type": "uint256"
        },
        {
          "internalType": "uint256",
          "name": "amount",
          "type": "uint256"
        }
      ],
      "name": "withdrawFromDPool",
      "outputs": [
        {
          "internalType": "bool",
          "name": "",
          "type": "bool"
        }
      ],
      "stateMutability": "payable",
      "type": "function"
    },
    {
      "inputs": [
        {
          "internalType": "uint256",
          "name": "dpId",
          "type": "uint256"
        }
      ],
      "name": "deleteDPool",
      "outputs": [
        {
          "internalType": "bool",
          "name": "",
          "type": "bool"
        }
      ],
      "stateMutability": "nonpayable",
      "type": "function"
    },
    {
      "inputs": [
        {
          "internalType": "uint256",
          "name": "dpId",
          "type": "uint256"
        },
        {
          "internalType": "address",
          "name": "recipient",
          "type": "address"
        }
      ],
      "name": "deleteRecipientFromDPool",
      "outputs": [
        {
          "internalType": "bool",
          "name": "",
          "type": "bool"
        }
      ],
      "stateMutability": "nonpayable",
      "type": "function"
    }
  ],
  "bytecode": "0x6080604052600160055534801561001557600080fd5b50336000806101000a81548173ffffffffffffffffffffffffffffffffffffffff021916908373ffffffffffffffffffffffffffffffffffffffff160217905550614486806100656000396000f3fe6080604052600436106100c65760003560e01c806368155ec11161007f5780638da5cb5b116100595780638da5cb5b14610295578063d4cc4a5f146102c0578063dfd51670146102f0578063e92042ce1461032d576100cd565b806368155ec1146101f557806377b314d0146102115780637f6482f014610258576100cd565b806305b1137b146100cf5780630f08e26a146100eb57806314006d241461011657806316825cf01461015d57806330fc51381461018d5780633656eec2146101b8576100cd565b366100cd57005b005b6100e960048036038101906100e49190612fb1565b61035d565b005b3480156100f757600080fd5b50610100610411565b60405161010d9190613b6e565b60405180910390f35b34801561012257600080fd5b5061013d60048036038101906101389190613174565b6104a6565b6040516101549b9a99989796959493929190613fe3565b60405180910390f35b61017760048036038101906101729190613016565b6107ef565b6040516101849190613e6b565b60405180910390f35b34801561019957600080fd5b506101a26109a5565b6040516101af9190613e6b565b60405180910390f35b3480156101c457600080fd5b506101df60048036038101906101da919061319d565b610a40565b6040516101ec9190613e6b565b60405180910390f35b61020f600480360381019061020a9190612f4e565b610e80565b005b34801561021d57600080fd5b5061023860048036038101906102339190613174565b610f5a565b60405161024f9b9a99989796959493929190613fe3565b60405180910390f35b34801561026457600080fd5b5061027f600480360381019061027a9190613174565b61121c565b60405161028c9190613b90565b60405180910390f35b3480156102a157600080fd5b506102aa6117e0565b6040516102b79190613b1c565b60405180910390f35b6102da60048036038101906102d591906131d9565b611804565b6040516102e79190613b90565b60405180910390f35b3480156102fc57600080fd5b506103176004803603810190610312919061319d565b611c5e565b6040516103249190613b90565b60405180910390f35b610347600480360381019061034291906130d9565b612001565b6040516103549190613e6b565b60405180910390f35b6000808373ffffffffffffffffffffffffffffffffffffffff168360405161038490613b07565b60006040518083038185875af1925050503d80600081146103c1576040519150601f19603f3d011682016040523d82523d6000602084013e6103c6565b606091505b50915091508161040b576040517f08c379a000000000000000000000000000000000000000000000000000000000815260040161040290613cab565b60405180910390fd5b50505050565b6060600460003373ffffffffffffffffffffffffffffffffffffffff1673ffffffffffffffffffffffffffffffffffffffff16815260200190815260200160002080548060200260200160405190810160405280929190818152602001828054801561049c57602002820191906000526020600020905b815481526020019060010190808311610488575b5050505050905090565b6000606060006060600080600080600080600080600260003373ffffffffffffffffffffffffffffffffffffffff1673ffffffffffffffffffffffffffffffffffffffff1681526020019081526020016000208d81548110610531577f4e487b7100000000000000000000000000000000000000000000000000000000600052603260045260246000fd5b9060005260206000200154905060006001600083815260200190815260200160002060405180610180016040529081600082015481526020016001820180546105799061430a565b80601f01602080910402602001604051908101604052809291908181526020018280546105a59061430a565b80156105f25780601f106105c7576101008083540402835291602001916105f2565b820191906000526020600020905b8154815290600101906020018083116105d557829003601f168201915b505050505081526020016002820160009054906101000a900473ffffffffffffffffffffffffffffffffffffffff1673ffffffffffffffffffffffffffffffffffffffff1673ffffffffffffffffffffffffffffffffffffffff168152602001600382018054806020026020016040519081016040528092919081815260200182805480156106d657602002820191906000526020600020905b8160009054906101000a900473ffffffffffffffffffffffffffffffffffffffff1673ffffffffffffffffffffffffffffffffffffffff168152602001906001019080831161068c575b505050505081526020016004820154815260200160058201548152602001600682015481526020016007820160009054906101000a900473ffffffffffffffffffffffffffffffffffffffff1673ffffffffffffffffffffffffffffffffffffffff1673ffffffffffffffffffffffffffffffffffffffff1681526020016008820154815260200160098201548152602001600a8201548152602001600b820160009054906101000a900460ff1615151515815250509050806000015181602001518260400151836060015184608001518560a001518660c001518760e001518861012001518961014001518a61010001519c509c509c509c509c509c509c509c509c509c509c50505091939597999b90929496989a50565b6000868680806020026020016040519081016040528093929190818152602001838360200280828437600081840152601f19601f82011690508083019250505050505050858484600084511161087a576040517f08c379a000000000000000000000000000000000000000000000000000000000815260040161087190613c6b565b60405180910390fd5b600083116108bd576040517f08c379a00000000000000000000000000000000000000000000000000000000081526004016108b490613c2b565b60405180910390fd5b42821015610900576040517f08c379a00000000000000000000000000000000000000000000000000000000081526004016108f790613dcb565b60405180910390fd5b818111610942576040517f08c379a000000000000000000000000000000000000000000000000000000000815260040161093990613e4b565b60405180910390fd5b6109938d8d8d8d6109528e6121af565b8d8d8d60018081111561098e577f4e487b7100000000000000000000000000000000000000000000000000000000600052602160045260246000fd5b6121cc565b94505050505098975050505050505050565b600080600260003373ffffffffffffffffffffffffffffffffffffffff1673ffffffffffffffffffffffffffffffffffffffff168152602001908152602001600020805480602002602001604051908101604052809291908181526020018280548015610a3157602002820191906000526020600020905b815481526020019060010190808311610a1d575b50505050509050805191505090565b600080600160008581526020019081526020016000206040518061018001604052908160008201548152602001600182018054610a7c9061430a565b80601f0160208091040260200160405190810160405280929190818152602001828054610aa89061430a565b8015610af55780601f10610aca57610100808354040283529160200191610af5565b820191906000526020600020905b815481529060010190602001808311610ad857829003601f168201915b505050505081526020016002820160009054906101000a900473ffffffffffffffffffffffffffffffffffffffff1673ffffffffffffffffffffffffffffffffffffffff1673ffffffffffffffffffffffffffffffffffffffff16815260200160038201805480602002602001604051908101604052809291908181526020018280548015610bd957602002820191906000526020600020905b8160009054906101000a900473ffffffffffffffffffffffffffffffffffffffff1673ffffffffffffffffffffffffffffffffffffffff1681526020019060010190808311610b8f575b505050505081526020016004820154815260200160058201548152602001600682015481526020016007820160009054906101000a900473ffffffffffffffffffffffffffffffffffffffff1673ffffffffffffffffffffffffffffffffffffffff1673ffffffffffffffffffffffffffffffffffffffff1681526020016008820154815260200160098201548152602001600a8201548152602001600b820160009054906101000a900460ff16151515158152505090506000610c9c8261257e565b9050600080610caf838560c001516125d8565b9150915081610cf3576040517f08c379a0000000000000000000000000000000000000000000000000000000008152600401610cea90613d6b565b60405180910390fd5b6000811415610d09576000945050505050610e7a565b836040015173ffffffffffffffffffffffffffffffffffffffff168673ffffffffffffffffffffffffffffffffffffffff161415610da457600080610d528660a0015184612652565b9150915081610d96576040517f08c379a0000000000000000000000000000000000000000000000000000000008152600401610d8d90613e2b565b60405180910390fd5b809650505050505050610e7a565b600080610db68387606001515161267a565b9150915081610dfa576040517f08c379a0000000000000000000000000000000000000000000000000000000008152600401610df190613d4b565b60405180910390fd5b600360008973ffffffffffffffffffffffffffffffffffffffff1673ffffffffffffffffffffffffffffffffffffffff16815260200190815260200160002060008760000151815260200190815260200160002060009054906101000a900460ff1615610e6f57809650505050505050610e7a565b600096505050505050505b92915050565b60008273ffffffffffffffffffffffffffffffffffffffff166323b872dd8686856040518463ffffffff1660e01b8152600401610ebf93929190613b37565b602060405180830381600087803b158015610ed957600080fd5b505af1158015610eed573d6000803e3d6000fd5b505050506040513d601f19601f82011682018060405250810190610f119190612fed565b905080610f53576040517f08c379a0000000000000000000000000000000000000000000000000000000008152600401610f4a90613d2b565b60405180910390fd5b5050505050565b6000606060006060600080600080600080600080600160008e81526020019081526020016000206040518061018001604052908160008201548152602001600182018054610fa79061430a565b80601f0160208091040260200160405190810160405280929190818152602001828054610fd39061430a565b80156110205780601f10610ff557610100808354040283529160200191611020565b820191906000526020600020905b81548152906001019060200180831161100357829003601f168201915b505050505081526020016002820160009054906101000a900473ffffffffffffffffffffffffffffffffffffffff1673ffffffffffffffffffffffffffffffffffffffff1673ffffffffffffffffffffffffffffffffffffffff1681526020016003820180548060200260200160405190810160405280929190818152602001828054801561110457602002820191906000526020600020905b8160009054906101000a900473ffffffffffffffffffffffffffffffffffffffff1673ffffffffffffffffffffffffffffffffffffffff16815260200190600101908083116110ba575b505050505081526020016004820154815260200160058201548152602001600682015481526020016007820160009054906101000a900473ffffffffffffffffffffffffffffffffffffffff1673ffffffffffffffffffffffffffffffffffffffff1673ffffffffffffffffffffffffffffffffffffffff1681526020016008820154815260200160098201548152602001600a8201548152602001600b820160009054906101000a900460ff1615151515815250509050806000015181602001518260400151836060015184608001518560a001518660c001518760e001518861012001518961014001518a61010001519b509b509b509b509b509b509b509b509b509b509b505091939597999b90929496989a50565b6000806001600084815260200190815260200160002060405180610180016040529081600082015481526020016001820180546112589061430a565b80601f01602080910402602001604051908101604052809291908181526020018280546112849061430a565b80156112d15780601f106112a6576101008083540402835291602001916112d1565b820191906000526020600020905b8154815290600101906020018083116112b457829003601f168201915b505050505081526020016002820160009054906101000a900473ffffffffffffffffffffffffffffffffffffffff1673ffffffffffffffffffffffffffffffffffffffff1673ffffffffffffffffffffffffffffffffffffffff168152602001600382018054806020026020016040519081016040528092919081815260200182805480156113b557602002820191906000526020600020905b8160009054906101000a900473ffffffffffffffffffffffffffffffffffffffff1673ffffffffffffffffffffffffffffffffffffffff168152602001906001019080831161136b575b505050505081526020016004820154815260200160058201548152602001600682015481526020016007820160009054906101000a900473ffffffffffffffffffffffffffffffffffffffff1673ffffffffffffffffffffffffffffffffffffffff1673ffffffffffffffffffffffffffffffffffffffff1681526020016008820154815260200160098201548152602001600a8201548152602001600b820160009054906101000a900460ff16151515158152505090508061016001516114b2576040517f08c379a00000000000000000000000000000000000000000000000000000000081526004016114a990613d8b565b60405180910390fd5b806040015173ffffffffffffffffffffffffffffffffffffffff163373ffffffffffffffffffffffffffffffffffffffff16148061154a5750600360003373ffffffffffffffffffffffffffffffffffffffff1673ffffffffffffffffffffffffffffffffffffffff168152602001908152602001600020600084815260200190815260200160002060009054906101000a900460ff165b611589576040517f08c379a000000000000000000000000000000000000000000000000000000000815260040161158090613ccb565b60405180910390fd5b6000611599848360400151610a40565b905060008111156115ba576115b98260e0015183610100015183846126d7565b5b6115c38261276f565b6000600260003373ffffffffffffffffffffffffffffffffffffffff1673ffffffffffffffffffffffffffffffffffffffff168152602001908152602001600020905060008180549050141561165f57600260003373ffffffffffffffffffffffffffffffffffffffff1673ffffffffffffffffffffffffffffffffffffffff168152602001908152602001600020600061165e9190612cb7565b5b6001600086815260200190815260200160002060008082016000905560018201600061168b9190612cd8565b6002820160006101000a81549073ffffffffffffffffffffffffffffffffffffffff02191690556003820160006116c29190612d18565b6004820160009055600582016000905560068201600090556007820160006101000a81549073ffffffffffffffffffffffffffffffffffffffff021916905560088201600090556009820160009055600a820160009055600b820160006101000a81549060ff02191690555050600360003373ffffffffffffffffffffffffffffffffffffffff1673ffffffffffffffffffffffffffffffffffffffff168152602001908152602001600020600086815260200190815260200160002060006101000a81549060ff02191690557faac53f188a8d770c87ec98b5328fc3545884d401b3aec76b69310e44ce09de5c8584604001518560600151856040516117cc9493929190613f52565b60405180910390a160019350505050919050565b60008054906101000a900473ffffffffffffffffffffffffffffffffffffffff1681565b6000808211611848576040517f08c379a000000000000000000000000000000000000000000000000000000000815260040161183f90613beb565b60405180910390fd5b600060016000858152602001908152602001600020905080600b0160009054906101000a900460ff166118b0576040517f08c379a00000000000000000000000000000000000000000000000000000000081526004016118a790613d8b565b60405180910390fd5b60008160050154116118f7576040517f08c379a00000000000000000000000000000000000000000000000000000000081526004016118ee90613e0b565b60405180910390fd5b8060020160009054906101000a900473ffffffffffffffffffffffffffffffffffffffff1673ffffffffffffffffffffffffffffffffffffffff163373ffffffffffffffffffffffffffffffffffffffff1614806119af5750600360003373ffffffffffffffffffffffffffffffffffffffff1673ffffffffffffffffffffffffffffffffffffffff168152602001908152602001600020600085815260200190815260200160002060009054906101000a900460ff165b6119ee576040517f08c379a00000000000000000000000000000000000000000000000000000000081526004016119e590613bcb565b60405180910390fd5b60006119fa8533610a40565b905083811015611a3f576040517f08c379a0000000000000000000000000000000000000000000000000000000008152600401611a3690613ceb565b60405180910390fd5b600080611a50846005015487612652565b9150915081611a94576040517f08c379a0000000000000000000000000000000000000000000000000000000008152600401611a8b90613dab565b60405180910390fd5b808460050181905550611ad18460070160009054906101000a900473ffffffffffffffffffffffffffffffffffffffff16856008015488896126d7565b600084600501541415611c0f5760016000888152602001908152602001600020600080820160009055600182016000611b0a9190612cd8565b6002820160006101000a81549073ffffffffffffffffffffffffffffffffffffffff0219169055600382016000611b419190612d18565b6004820160009055600582016000905560068201600090556007820160006101000a81549073ffffffffffffffffffffffffffffffffffffffff021916905560088201600090556009820160009055600a820160009055600b820160006101000a81549060ff02191690555050600360003373ffffffffffffffffffffffffffffffffffffffff1673ffffffffffffffffffffffffffffffffffffffff168152602001908152602001600020600088815260200190815260200160002060006101000a81549060ff02191690555b7f8a8a39e28f42c452d33cea4d81386872966d236e3f5da3e2156efb9d69e5ad6d8733888760050154604051611c489493929190613f9e565b60405180910390a1600194505050505092915050565b600080600160008581526020019081526020016000206040518061018001604052908160008201548152602001600182018054611c9a9061430a565b80601f0160208091040260200160405190810160405280929190818152602001828054611cc69061430a565b8015611d135780601f10611ce857610100808354040283529160200191611d13565b820191906000526020600020905b815481529060010190602001808311611cf657829003601f168201915b505050505081526020016002820160009054906101000a900473ffffffffffffffffffffffffffffffffffffffff1673ffffffffffffffffffffffffffffffffffffffff1673ffffffffffffffffffffffffffffffffffffffff16815260200160038201805480602002602001604051908101604052809291908181526020018280548015611df757602002820191906000526020600020905b8160009054906101000a900473ffffffffffffffffffffffffffffffffffffffff1673ffffffffffffffffffffffffffffffffffffffff1681526020019060010190808311611dad575b505050505081526020016004820154815260200160058201548152602001600682015481526020016007820160009054906101000a900473ffffffffffffffffffffffffffffffffffffffff1673ffffffffffffffffffffffffffffffffffffffff1673ffffffffffffffffffffffffffffffffffffffff1681526020016008820154815260200160098201548152602001600a8201548152602001600b820160009054906101000a900460ff1615151515815250509050806101600151611ef4576040517f08c379a0000000000000000000000000000000000000000000000000000000008152600401611eeb90613d8b565b60405180910390fd5b600360003373ffffffffffffffffffffffffffffffffffffffff1673ffffffffffffffffffffffffffffffffffffffff168152602001908152602001600020600085815260200190815260200160002060009054906101000a900460ff16611f91576040517f08c379a0000000000000000000000000000000000000000000000000000000008152600401611f8890613ccb565b60405180910390fd5b6000611f9d8585610a40565b9050611fb48260e0015183610100015183846126d7565b7f856004f39dc959064f79558d5a3bf9eca82ffc182f7541ad8d33032bd1b1afcc8583604001518684604051611fed9493929190613e86565b60405180910390a160019250505092915050565b6000848480806020026020016040519081016040528093929190818152602001838360200280828437600081840152601f19601f82011690508083019250505050505050348484600084511161208c576040517f08c379a000000000000000000000000000000000000000000000000000000000815260040161208390613c6b565b60405180910390fd5b600083116120cf576040517f08c379a00000000000000000000000000000000000000000000000000000000081526004016120c690613c2b565b60405180910390fd5b42821015612112576040517f08c379a000000000000000000000000000000000000000000000000000000000815260040161210990613dcb565b60405180910390fd5b818111612154576040517f08c379a000000000000000000000000000000000000000000000000000000000815260040161214b90613e4b565b60405180910390fd5b61219f8b8b8b8b3460008d8d6000600181111561219a577f4e487b7100000000000000000000000000000000000000000000000000000000600052602160045260246000fd5b6121cc565b9450505050509695505050505050565b6000670de0b6b3a7640000826121c591906141b9565b9050919050565b6000878780806020026020016040519081016040528093929190818152602001838360200280828437600081840152601f19601f8201169050808301925050505050505060005b81518110156123d357612267828281518110612258577f4e487b7100000000000000000000000000000000000000000000000000000000600052603260045260246000fd5b6020026020010151303361280c565b6001600360008484815181106122a6577f4e487b7100000000000000000000000000000000000000000000000000000000600052603260045260246000fd5b602002602001015173ffffffffffffffffffffffffffffffffffffffff1673ffffffffffffffffffffffffffffffffffffffff1681526020019081526020016000206000600554815260200190815260200160002060006101000a81548160ff021916908315150217905550600060046000848481518110612351577f4e487b7100000000000000000000000000000000000000000000000000000000600052603260045260246000fd5b602002602001015173ffffffffffffffffffffffffffffffffffffffff1673ffffffffffffffffffffffffffffffffffffffff16815260200190815260200160002090508060055490806001815401808255809150506001900390600052602060002001600090919091909150555080806123cb9061433c565b915050612213565b5060006123e188878761295f565b9050600060405180610180016040528060055481526020018e8e8080601f016020809104026020016040519081016040528093929190818152602001838380828437600081840152601f19601f8201169050808301925050505050505081526020013373ffffffffffffffffffffffffffffffffffffffff1681526020018c8c80806020026020016040519081016040528093929190818152602001838360200280828437600081840152601f19601f8201169050808301925050505050505081526020018a81526020018a81526020018381526020018973ffffffffffffffffffffffffffffffffffffffff1681526020018681526020018881526020018781526020016001151581525090506124f881612a53565b61250488868b34612c1c565b7ff8ad82eb99d91f7afc46e04e5f3f6ab3db8ce8f33ae8bae8c60c3b0f3d562105600554338d8d8d8d8d8d8d60405161254599989796959493929190613ecb565b60405180910390a16001600560008282546125609190614163565b92505081905550806000015193505050509998505050505050505050565b6000816101200151421161259557600090506125d3565b8161014001514210156125ba57816101200151426125b39190614213565b90506125d3565b8161012001518261014001516125d09190614213565b90505b919050565b60008060008414156125f157600160009150915061264b565b600083850290508385828161262f577f4e487b7100000000000000000000000000000000000000000000000000000000600052601260045260246000fd5b041461264257600080925092505061264b565b60018192509250505b9250929050565b600080838311156126695760008091509150612673565b6001838503915091505b9250929050565b600080600083141561269257600080915091506126d0565b60018385816126ca577f4e487b7100000000000000000000000000000000000000000000000000000000600052601260045260246000fd5b04915091505b9250929050565b82600180811115612711577f4e487b7100000000000000000000000000000000000000000000000000000000600052602160045260246000fd5b14156127285761272330338685610e80565b612769565b600073ffffffffffffffffffffffffffffffffffffffff168473ffffffffffffffffffffffffffffffffffffffff16141561276857612767338261035d565b5b5b50505050565b60005b8160600151518110156128085760006127d38360000151846060015184815181106127c6577f4e487b7100000000000000000000000000000000000000000000000000000000600052603260045260246000fd5b6020026020010151610a40565b905060008111156127f4576127f38360e0015184610100015183846126d7565b5b5080806128009061433c565b915050612772565b5050565b600073ffffffffffffffffffffffffffffffffffffffff168373ffffffffffffffffffffffffffffffffffffffff16141561287c576040517f08c379a000000000000000000000000000000000000000000000000000000000815260040161287390613c8b565b60405180910390fd5b8173ffffffffffffffffffffffffffffffffffffffff168373ffffffffffffffffffffffffffffffffffffffff1614156128eb576040517f08c379a00000000000000000000000000000000000000000000000000000000081526004016128e290613c4b565b60405180910390fd5b8073ffffffffffffffffffffffffffffffffffffffff168373ffffffffffffffffffffffffffffffffffffffff16141561295a576040517f08c379a000000000000000000000000000000000000000000000000000000000815260040161295190613bab565b60405180910390fd5b505050565b600080600061296e8486612652565b91509150816129b2576040517f08c379a00000000000000000000000000000000000000000000000000000000081526004016129a990613deb565b60405180910390fd5b8086116129f4576040517f08c379a00000000000000000000000000000000000000000000000000000000081526004016129eb90613c0b565b60405180910390fd5b600080612a01888461267a565b9150915081612a45576040517f08c379a0000000000000000000000000000000000000000000000000000000008152600401612a3c90613d0b565b60405180910390fd5b809450505050509392505050565b612a5c81612cb4565b806001600083600001518152602001908152602001600020600082015181600001556020820151816001019080519060200190612a9a929190612d39565b5060408201518160020160006101000a81548173ffffffffffffffffffffffffffffffffffffffff021916908373ffffffffffffffffffffffffffffffffffffffff1602179055506060820151816003019080519060200190612afe929190612dbf565b506080820151816004015560a0820151816005015560c0820151816006015560e08201518160070160006101000a81548173ffffffffffffffffffffffffffffffffffffffff021916908373ffffffffffffffffffffffffffffffffffffffff1602179055506101008201518160080155610120820151816009015561014082015181600a015561016082015181600b0160006101000a81548160ff0219169083151502179055509050506000600260003373ffffffffffffffffffffffffffffffffffffffff1673ffffffffffffffffffffffffffffffffffffffff168152602001908152602001600020905080826000015190806001815401808255809150506001900390600052602060002001600090919091909150555050565b82600180811115612c56577f4e487b7100000000000000000000000000000000000000000000000000000000600052602160045260246000fd5b1415612c6d57612c6833308685610e80565b612cae565b600073ffffffffffffffffffffffffffffffffffffffff168473ffffffffffffffffffffffffffffffffffffffff161415612cad57612cac308261035d565b5b5b50505050565b50565b5080546000825590600052602060002090810190612cd59190612e49565b50565b508054612ce49061430a565b6000825580601f10612cf65750612d15565b601f016020900490600052602060002090810190612d149190612e49565b5b50565b5080546000825590600052602060002090810190612d369190612e49565b50565b828054612d459061430a565b90600052602060002090601f016020900481019282612d675760008555612dae565b82601f10612d8057805160ff1916838001178555612dae565b82800160010185558215612dae579182015b82811115612dad578251825591602001919060010190612d92565b5b509050612dbb9190612e49565b5090565b828054828255906000526020600020908101928215612e38579160200282015b82811115612e375782518260006101000a81548173ffffffffffffffffffffffffffffffffffffffff021916908373ffffffffffffffffffffffffffffffffffffffff16021790555091602001919060010190612ddf565b5b509050612e459190612e49565b5090565b5b80821115612e62576000816000905550600101612e4a565b5090565b600081359050612e75816143f4565b92915050565b600081359050612e8a8161440b565b92915050565b60008083601f840112612ea257600080fd5b8235905067ffffffffffffffff811115612ebb57600080fd5b602083019150836020820283011115612ed357600080fd5b9250929050565b600081519050612ee981614422565b92915050565b60008083601f840112612f0157600080fd5b8235905067ffffffffffffffff811115612f1a57600080fd5b602083019150836001820283011115612f3257600080fd5b9250929050565b600081359050612f4881614439565b92915050565b60008060008060808587031215612f6457600080fd5b6000612f7287828801612e66565b9450506020612f8387828801612e66565b9350506040612f9487828801612e66565b9250506060612fa587828801612f39565b91505092959194509250565b60008060408385031215612fc457600080fd5b6000612fd285828601612e66565b9250506020612fe385828601612f39565b9150509250929050565b600060208284031215612fff57600080fd5b600061300d84828501612eda565b91505092915050565b60008060008060008060008060c0898b03121561303257600080fd5b600089013567ffffffffffffffff81111561304c57600080fd5b6130588b828c01612eef565b9850985050602089013567ffffffffffffffff81111561307757600080fd5b6130838b828c01612e90565b965096505060406130968b828c01612f39565b94505060606130a78b828c01612e7b565b93505060806130b88b828c01612f39565b92505060a06130c98b828c01612f39565b9150509295985092959890939650565b600080600080600080608087890312156130f257600080fd5b600087013567ffffffffffffffff81111561310c57600080fd5b61311889828a01612eef565b9650965050602087013567ffffffffffffffff81111561313757600080fd5b61314389828a01612e90565b9450945050604061315689828a01612f39565b925050606061316789828a01612f39565b9150509295509295509295565b60006020828403121561318657600080fd5b600061319484828501612f39565b91505092915050565b600080604083850312156131b057600080fd5b60006131be85828601612f39565b92505060206131cf85828601612e66565b9150509250929050565b600080604083850312156131ec57600080fd5b60006131fa85828601612f39565b925050602061320b85828601612f39565b9150509250929050565b60006132218383613254565b60208301905092915050565b60006132398383613ae9565b60208301905092915050565b61324e816142a1565b82525050565b61325d81614247565b82525050565b61326c81614247565b82525050565b600061327e838561410e565b93506132898261409c565b8060005b858110156132c25761329f828461414c565b6132a98882613215565b97506132b4836140e7565b92505060018101905061328d565b5085925050509392505050565b60006132da826140c6565b6132e4818561410e565b93506132ef836140a6565b8060005b838110156133205781516133078882613215565b9750613312836140f4565b9250506001810190506132f3565b5085935050505092915050565b6000613338826140d1565b613342818561411f565b935061334d836140b6565b8060005b8381101561337e578151613365888261322d565b975061337083614101565b925050600181019050613351565b5085935050505092915050565b6133948161426b565b82525050565b60006133a5826140dc565b6133af818561413b565b93506133bf8185602086016142d7565b6133c8816143e3565b840191505092915050565b60006133e0601e8361413b565b91507f726563697069656e742073686f756c64206e6f742062652073656e64657200006000830152602082019050919050565b600061342060248361413b565b91507f726563697069656e74206973206e6f74207265676973746572656420696e206460008301527f506f6f6c000000000000000000000000000000000000000000000000000000006020830152604082019050919050565b6000613486600e8361413b565b91507f616d6f756e74206973207a65726f0000000000000000000000000000000000006000830152602082019050919050565b60006134c660258361413b565b91507f6465706f736974206d7573742062652067726561746572207468616e2064757260008301527f6174696f6e0000000000000000000000000000000000000000000000000000006020830152604082019050919050565b600061352c60208361413b565b91507f6465706f7369742073686f756c642062652067726561746572207468616e20306000830152602082019050919050565b600061356c60258361413b565b91507f726563697069656e742073686f756c64206e6f74206265207468697320636f6e60008301527f74726163740000000000000000000000000000000000000000000000000000006020830152604082019050919050565b60006135d260268361413b565b91507f74686572652073686f756c64206265206174206c65617374206f6e652072656360008301527f697069656e7400000000000000000000000000000000000000000000000000006020830152604082019050919050565b6000613638601d8361413b565b91507f6e6f20726563697069656e7420616464726573732070726f76696465640000006000830152602082019050919050565b600061367860178361413b565b91507f657468657220636f756c64206e6f742062652073656e740000000000000000006000830152602082019050919050565b60006136b860208361413b565b91507f64656c6574696f6e206f662064506f6f6c206973206e6f7420616c6c6f7765646000830152602082019050919050565b60006136f860248361413b565b91507f7265717565737465642068696768657220616d6f756e74207468616e2072656d60008301527f61696e73000000000000000000000000000000000000000000000000000000006020830152604082019050919050565b600061375e60238361413b565b91507f6469766973696f6e20627920277a65726f27206d61792068617665206f63637560008301527f72656400000000000000000000000000000000000000000000000000000000006020830152604082019050919050565b60006137c460188361413b565b91507f746f6b656e7320636f756c64206e6f742062652073656e7400000000000000006000830152602082019050919050565b6000613804601f8361413b565b91507f62616c616e63654f66206469766973696f6e206e6f7420706f737369626c65006000830152602082019050919050565b600061384460128361413b565b91507f64656c7461202a207261746520697373756500000000000000000000000000006000830152602082019050919050565b6000613884600083614130565b9150600082019050919050565b600061389e60148361413b565b91507f44506f6f6c20646f6573206e6f742065786973740000000000000000000000006000830152602082019050919050565b60006138de60258361413b565b91507f72656d61696e67696e672062616c616e63652063616c63756c6174696f6e206660008301527f61696c65640000000000000000000000000000000000000000000000000000006020830152604082019050919050565b6000613944602a8361413b565b91507f73746172742074696d652073686f756c6420626520616674657220626c6f636b60008301527f2e74696d657374616d70000000000000000000000000000000000000000000006020830152604082019050919050565b60006139aa60228361413b565b91507f73746f7054696d652069732067726561746572207468616e207374617274546960008301527f6d650000000000000000000000000000000000000000000000000000000000006020830152604082019050919050565b6000613a10601d8361413b565b91507f6e6f2072656d61696e696e672062616c616e636520696e2064506f6f6c0000006000830152602082019050919050565b6000613a50601c8361413b565b91507f62616c616e63654f6620737562737472616374696f6e206973737565000000006000830152602082019050919050565b6000613a9060298361413b565b91507f73746f7054696d652073686f756c642062652067726561746572207468616e2060008301527f737461727454696d6500000000000000000000000000000000000000000000006020830152604082019050919050565b613af281614297565b82525050565b613b0181614297565b82525050565b6000613b1282613877565b9150819050919050565b6000602082019050613b316000830184613263565b92915050565b6000606082019050613b4c6000830186613263565b613b596020830185613263565b613b666040830184613af8565b949350505050565b60006020820190508181036000830152613b88818461332d565b905092915050565b6000602082019050613ba5600083018461338b565b92915050565b60006020820190508181036000830152613bc4816133d3565b9050919050565b60006020820190508181036000830152613be481613413565b9050919050565b60006020820190508181036000830152613c0481613479565b9050919050565b60006020820190508181036000830152613c24816134b9565b9050919050565b60006020820190508181036000830152613c448161351f565b9050919050565b60006020820190508181036000830152613c648161355f565b9050919050565b60006020820190508181036000830152613c84816135c5565b9050919050565b60006020820190508181036000830152613ca48161362b565b9050919050565b60006020820190508181036000830152613cc48161366b565b9050919050565b60006020820190508181036000830152613ce4816136ab565b9050919050565b60006020820190508181036000830152613d04816136eb565b9050919050565b60006020820190508181036000830152613d2481613751565b9050919050565b60006020820190508181036000830152613d44816137b7565b9050919050565b60006020820190508181036000830152613d64816137f7565b9050919050565b60006020820190508181036000830152613d8481613837565b9050919050565b60006020820190508181036000830152613da481613891565b9050919050565b60006020820190508181036000830152613dc4816138d1565b9050919050565b60006020820190508181036000830152613de481613937565b9050919050565b60006020820190508181036000830152613e048161399d565b9050919050565b60006020820190508181036000830152613e2481613a03565b9050919050565b60006020820190508181036000830152613e4481613a43565b9050919050565b60006020820190508181036000830152613e6481613a83565b9050919050565b6000602082019050613e806000830184613af8565b92915050565b6000608082019050613e9b6000830187613af8565b613ea86020830186613263565b613eb56040830185613263565b613ec26060830184613af8565b95945050505050565b600061010082019050613ee1600083018c613af8565b613eee602083018b613263565b8181036040830152613f0181898b613272565b9050613f106060830188613af8565b613f1d6080830187613245565b613f2a60a0830186613af8565b613f3760c0830185613af8565b613f4460e0830184613af8565b9a9950505050505050505050565b6000608082019050613f676000830187613af8565b613f746020830186613263565b8181036040830152613f8681856132cf565b9050613f956060830184613af8565b95945050505050565b6000608082019050613fb36000830187613af8565b613fc06020830186613263565b613fcd6040830185613af8565b613fda6060830184613af8565b95945050505050565b600061016082019050613ff9600083018e613af8565b818103602083015261400b818d61339a565b905061401a604083018c613263565b818103606083015261402c818b6132cf565b905061403b608083018a613af8565b61404860a0830189613af8565b61405560c0830188613af8565b61406260e0830187613263565b614070610100830186613af8565b61407e610120830185613af8565b61408c610140830184613af8565b9c9b505050505050505050505050565b6000819050919050565b6000819050602082019050919050565b6000819050602082019050919050565b600081519050919050565b600081519050919050565b600081519050919050565b6000602082019050919050565b6000602082019050919050565b6000602082019050919050565b600082825260208201905092915050565b600082825260208201905092915050565b600081905092915050565b600082825260208201905092915050565b600061415b6020840184612e66565b905092915050565b600061416e82614297565b915061417983614297565b9250827fffffffffffffffffffffffffffffffffffffffffffffffffffffffffffffffff038211156141ae576141ad614385565b5b828201905092915050565b60006141c482614297565b91506141cf83614297565b9250817fffffffffffffffffffffffffffffffffffffffffffffffffffffffffffffffff048311821515161561420857614207614385565b5b828202905092915050565b600061421e82614297565b915061422983614297565b92508282101561423c5761423b614385565b5b828203905092915050565b600061425282614277565b9050919050565b600061426482614277565b9050919050565b60008115159050919050565b600073ffffffffffffffffffffffffffffffffffffffff82169050919050565b6000819050919050565b60006142ac826142b3565b9050919050565b60006142be826142c5565b9050919050565b60006142d082614277565b9050919050565b60005b838110156142f55780820151818401526020810190506142da565b83811115614304576000848401525b50505050565b6000600282049050600182168061432257607f821691505b60208210811415614336576143356143b4565b5b50919050565b600061434782614297565b91507fffffffffffffffffffffffffffffffffffffffffffffffffffffffffffffffff82141561437a57614379614385565b5b600182019050919050565b7f4e487b7100000000000000000000000000000000000000000000000000000000600052601160045260246000fd5b7f4e487b7100000000000000000000000000000000000000000000000000000000600052602260045260246000fd5b6000601f19601f8301169050919050565b6143fd81614247565b811461440857600080fd5b50565b61441481614259565b811461441f57600080fd5b50565b61442b8161426b565b811461443657600080fd5b50565b61444281614297565b811461444d57600080fd5b5056fea2646970667358221220b424ce4820629ffa6b9008b3d7f32c245c3c2fc75779e839aec799741ce1a28664736f6c63430008000033",
  "immutableReferences": {},
  "source": "// SPDX-License-Identifier: MIT\r\npragma solidity 0.8.0;\r\n\r\nimport \"@openzeppelin/contracts/access/Ownable.sol\";\r\nimport \"@openzeppelin/contracts/utils/math/SafeMath.sol\";\r\nimport \"@openzeppelin/contracts/token/ERC20/IERC20.sol\";\r\n\r\nimport \"./Stream.sol\";\r\nimport \"./utils/DPoolUtil.sol\";\r\n\r\n/*\r\n * Extended Streaming protocol\r\n */\r\ncontract DecentralizedPools {\r\n    // --\r\n\r\n    // contract owner\r\n    address public owner;\r\n\r\n    event CreateDPool(\r\n        uint256 dpId,\r\n        address sender,\r\n        address[] recipients,\r\n        uint256 deposit,\r\n        address tokenAddress,\r\n        uint256 startTime,\r\n        uint256 stopTime,\r\n        uint256 vType\r\n    );\r\n\r\n    event WithdrawFromDPool(\r\n        uint256 dpId,\r\n        address receiver,\r\n        uint256 amount,\r\n        uint256 remainingBalance\r\n    );\r\n\r\n    event DeleteDPool(\r\n        uint256 dpId,\r\n        address sender,\r\n        address[] recipients,\r\n        uint256 dPoolBalance\r\n    );\r\n\r\n    event DeleteRecipientsFromDPool(\r\n        uint256 dpId,\r\n        address sender,\r\n        address recipient,\r\n        uint256 dPoolBalance\r\n    );\r\n\r\n    // different pools by their ids\r\n    mapping(uint256 => Stream.DPool) dPools;\r\n\r\n    // get all pool ids by creator\r\n    mapping(address => uint256[]) dPoolIdsByCreator;\r\n\r\n    // every recipient address by dPoolId\r\n    mapping(address => mapping(uint256 => bool)) recipientsByDPoolId;\r\n    // get dPool ids by recipient\r\n    mapping(address => uint256[]) recipientDPoolIds;\r\n\r\n    // ident of every new dPool\r\n    uint256 dPoolIdCounter = 1;\r\n\r\n    // validates inputs for new dPool\r\n    modifier validateInput(\r\n        address[] memory recipients,\r\n        uint256 deposit,\r\n        uint256 startTime,\r\n        uint256 stopTime\r\n    ) {\r\n        require(\r\n            recipients.length > 0,\r\n            \"there should be at least one recipient\"\r\n        );\r\n        require(deposit > 0, \"deposit should be greater than 0\");\r\n        require(\r\n            startTime >= block.timestamp,\r\n            \"start time should be after block.timestamp\"\r\n        );\r\n        require(\r\n            stopTime > startTime,\r\n            \"stopTime should be greater than startTime\"\r\n        );\r\n        _;\r\n    }\r\n\r\n    // validates and stores recipients in mapping\r\n    modifier validateAndMapRecipients(address[] memory recipients) {\r\n        for (uint256 i = 0; i < recipients.length; i++) {\r\n            DPoolUtil.validateRecipient(\r\n                recipients[i],\r\n                address(this),\r\n                msg.sender\r\n            );\r\n\r\n            /*\r\n            TODO Use modifiers only for checks - \r\n            move to function\r\n            */\r\n            // map recipients by dPoolId for convinient access\r\n            recipientsByDPoolId[recipients[i]][dPoolIdCounter] = true;\r\n            uint256[] storage dPIds = recipientDPoolIds[recipients[i]];\r\n            dPIds.push(dPoolIdCounter);\r\n        }\r\n        _;\r\n    }\r\n\r\n    constructor() {\r\n        owner = msg.sender;\r\n    }\r\n\r\n    function getRecipientDPoolIds() external view returns (uint256[] memory) {\r\n        return recipientDPoolIds[msg.sender];\r\n    }\r\n\r\n    function getDPoolsCount() external view returns (uint256) {\r\n        uint256[] memory _dPoolIds = dPoolIdsByCreator[msg.sender];\r\n        return _dPoolIds.length;\r\n    }\r\n\r\n    function getDPool(uint256 index)\r\n        external\r\n        view\r\n        returns (\r\n            uint256,\r\n            string memory,\r\n            address,\r\n            address[] memory,\r\n            uint256,\r\n            uint256,\r\n            uint256,\r\n            address,\r\n            uint256,\r\n            uint256,\r\n            uint256\r\n        )\r\n    {\r\n        uint256 dPoolId = dPoolIdsByCreator[msg.sender][index];\r\n        Stream.DPool memory _dPool = dPools[dPoolId];\r\n        return (\r\n            _dPool.dPoolId,\r\n            _dPool.dPoolName,\r\n            _dPool.creator,\r\n            _dPool.recipients,\r\n            _dPool.deposit,\r\n            _dPool.remainingBalance,\r\n            _dPool.ratePerSecond,\r\n            _dPool.tokenAddress,\r\n            _dPool.startTime,\r\n            _dPool.stopTime,\r\n            _dPool.dVType\r\n        );\r\n    }\r\n\r\n    function getDPoolById(uint256 dPId)\r\n        external\r\n        view\r\n        returns (\r\n            uint256,\r\n            string memory,\r\n            address,\r\n            address[] memory,\r\n            uint256,\r\n            uint256,\r\n            uint256,\r\n            address,\r\n            uint256,\r\n            uint256,\r\n            uint256\r\n        )\r\n    {\r\n        Stream.DPool memory _dPool = dPools[dPId];\r\n        return (\r\n            _dPool.dPoolId,\r\n            _dPool.dPoolName,\r\n            _dPool.creator,\r\n            _dPool.recipients,\r\n            _dPool.deposit,\r\n            _dPool.remainingBalance,\r\n            _dPool.ratePerSecond,\r\n            _dPool.tokenAddress,\r\n            _dPool.startTime,\r\n            _dPool.stopTime,\r\n            _dPool.dVType\r\n        );\r\n    }\r\n\r\n    /*\r\n     * @notice Creates a DPool that starts automatically calculating rates per second\r\n     *  when startTime is reached.\r\n     */\r\n    function createEthDPool(\r\n        string calldata dPoolName,\r\n        address[] calldata recipients,\r\n        uint256 startTime,\r\n        uint256 stopTime\r\n    )\r\n        public\r\n        payable\r\n        validateInput(recipients, msg.value, startTime, stopTime)\r\n        returns (uint256)\r\n    {\r\n        return\r\n            createDPool(\r\n                dPoolName,\r\n                recipients,\r\n                msg.value,\r\n                payable(address(0x0)),\r\n                startTime,\r\n                stopTime,\r\n                uint256(Stream.DValueType.ETH)\r\n            );\r\n    }\r\n\r\n    /*\r\n     * @notice Creates a DPool with a manual starter switch before calculating rates per second.\r\n     */\r\n    function createTokenDPool(\r\n        string calldata dPoolName,\r\n        address[] calldata recipients,\r\n        uint256 deposit,\r\n        address payable tokenAddress,\r\n        uint256 startTime,\r\n        uint256 stopTime\r\n    )\r\n        public\r\n        payable\r\n        validateInput(recipients, deposit, startTime, stopTime)\r\n        returns (uint256)\r\n    {\r\n        return\r\n            createDPool(\r\n                dPoolName,\r\n                recipients,\r\n                toWei(deposit),\r\n                tokenAddress,\r\n                startTime,\r\n                stopTime,\r\n                uint256(Stream.DValueType.TOKEN)\r\n            );\r\n    }\r\n\r\n    /*\r\n     * @notice Creates a DPool that starts automatically calculating rates per second\r\n     *  when startTime is reached.\r\n     * @param _recipients - all the recipients who will receive and withdraw from pool\r\n     * @param _deposit - the amount of ether or tokens in pool\r\n     * @param _tokenAddress - ERC20 token address\r\n     * @param _type used value type\r\n     * @param _startTime - of the distribution\r\n     * @param _stopTime - of the distribution\r\n     */\r\n    function createDPool(\r\n        string calldata _dPoolName,\r\n        address[] calldata _recipients,\r\n        uint256 _deposit,\r\n        address payable _tokenAddress,\r\n        uint256 _startTime,\r\n        uint256 _stopTime,\r\n        uint256 _type\r\n    ) internal validateAndMapRecipients(_recipients) returns (uint256) {\r\n        uint256 _ratePerSecond = DPoolUtil.calculateRPS(\r\n            _deposit,\r\n            _startTime,\r\n            _stopTime\r\n        );\r\n\r\n        Stream.DPool memory dPool = Stream.DPool({\r\n            dPoolId: dPoolIdCounter,\r\n            dPoolName: _dPoolName,\r\n            creator: msg.sender,\r\n            recipients: _recipients,\r\n            deposit: _deposit,\r\n            remainingBalance: _deposit,\r\n            ratePerSecond: _ratePerSecond,\r\n            tokenAddress: _tokenAddress,\r\n            dVType: _type,\r\n            startTime: _startTime,\r\n            stopTime: _stopTime,\r\n            isCreated: true\r\n        });\r\n\r\n        saveDPool(dPool);\r\n        transferToContract(_tokenAddress, _type, _deposit, msg.value);\r\n\r\n        emit CreateDPool(\r\n            dPoolIdCounter,\r\n            msg.sender,\r\n            _recipients,\r\n            _deposit,\r\n            _tokenAddress,\r\n            _startTime,\r\n            _stopTime,\r\n            _type\r\n        );\r\n\r\n        dPoolIdCounter += uint256(1);\r\n\r\n        return dPool.dPoolId;\r\n    }\r\n\r\n    // save given dPool on chain and map dPoolId\r\n    function saveDPool(Stream.DPool memory dPool) private {\r\n        registerDPoolIdsToRecipients(dPool);\r\n        dPools[dPool.dPoolId] = dPool;\r\n        uint256[] storage creatorPoolIds = dPoolIdsByCreator[msg.sender];\r\n        creatorPoolIds.push(dPool.dPoolId);\r\n    }\r\n\r\n    function registerDPoolIdsToRecipients(Stream.DPool memory dPool) private {}\r\n\r\n    // transfers tokens to contract\r\n    function transferTokens(\r\n        address fromSender,\r\n        address toAddress,\r\n        address tokenAddress,\r\n        uint256 amount\r\n    ) public payable {\r\n        bool sent = IERC20(tokenAddress).transferFrom(\r\n            fromSender,\r\n            toAddress,\r\n            amount\r\n        );\r\n        require(sent, \"tokens could not be sent\");\r\n    }\r\n\r\n    // transfers ether to contract\r\n    function transferEther(address requester, uint256 amount) public payable {\r\n        (bool sent, bytes memory data) = requester.call{value: amount}(\"\");\r\n        require(sent, \"ether could not be sent\");\r\n    }\r\n\r\n    // transfer tokens or ether\r\n    function transferToContract(\r\n        address tokenAddress,\r\n        uint256 dVType,\r\n        uint256 tokenAmount,\r\n        uint256 ethAmount\r\n    ) internal {\r\n        if (uint256(Stream.DValueType.TOKEN) == dVType) {\r\n            transferTokens(\r\n                msg.sender,\r\n                address(this),\r\n                tokenAddress,\r\n                tokenAmount\r\n            );\r\n        } else if (tokenAddress == address(0x0)) {\r\n            transferEther(address(this), ethAmount);\r\n        }\r\n    }\r\n\r\n    // withdraw tokens or ether\r\n    function withdrawFromContract(\r\n        address tokenAddress,\r\n        uint256 dVType,\r\n        uint256 tokenAmount,\r\n        uint256 ethAmount\r\n    ) internal {\r\n        if (uint256(Stream.DValueType.TOKEN) == dVType) {\r\n            transferTokens(\r\n                address(this),\r\n                msg.sender,\r\n                tokenAddress,\r\n                tokenAmount\r\n            );\r\n        } else if (tokenAddress == address(0x0)) {\r\n            transferEther(msg.sender, ethAmount);\r\n        }\r\n    }\r\n\r\n    /*\r\n     * @notice Calculates the accumulated balance for a single address according to passed time.\r\n     * @param dpId - id of a dPool\r\n     * @param requester - address of a single recipient\r\n     * @param recipientSize - the size/length of existing recipients in dPool\r\n     * @returns balance - of the recipient or the sender/creator of dPool\r\n     */\r\n    function balanceOf(uint256 dpId, address requester)\r\n        public\r\n        view\r\n        returns (uint256)\r\n    {\r\n        Stream.DPool memory dPool = dPools[dpId];\r\n        uint256 delta = DPoolUtil.deltaOf(dPool);\r\n\r\n        (bool totalResult, uint256 totalRecipientBalance) = SafeMath.tryMul(\r\n            delta,\r\n            dPool.ratePerSecond\r\n        );\r\n        require(totalResult, \"delta * rate issue\");\r\n\r\n        if (totalRecipientBalance == 0) {\r\n            return 0;\r\n        }\r\n\r\n        if (requester == dPool.creator) {\r\n            (bool senderResult, uint256 senderBalance) = SafeMath.trySub(\r\n                dPool.remainingBalance,\r\n                totalRecipientBalance\r\n            );\r\n            require(senderResult, \"balanceOf substraction issue\");\r\n\r\n            return senderBalance;\r\n        }\r\n\r\n        (bool currentResult, uint256 individualRecipientBalance) = SafeMath\r\n            .tryDiv(totalRecipientBalance, dPool.recipients.length);\r\n        require(currentResult, \"balanceOf division not possible\");\r\n\r\n        if (recipientsByDPoolId[requester][dPool.dPoolId]) {\r\n            return individualRecipientBalance;\r\n        }\r\n\r\n        return 0;\r\n    }\r\n\r\n    event Logger(string txt, address sender, address spender, uint256 l);\r\n\r\n    /*\r\n     * @notice Sender will receive requested amount, if the registered address is in dPool\r\n     *  and remaingBalance of dPool is greater zero.\r\n     * @param dpId - identification of dPool\r\n     * @param amount - requested from sender\r\n     * @returns true - if function executes fantastically\r\n     */\r\n    function withdrawFromDPool(uint256 dpId, uint256 amount)\r\n        public\r\n        payable\r\n        returns (bool)\r\n    {\r\n        /* To safe transaction cost some call constraints are deliberately inside the function\r\n            and not in modifiers.\r\n        */\r\n        require(amount > 0, \"amount is zero\");\r\n        Stream.DPool storage dPool = dPools[dpId];\r\n        require(dPool.isCreated, \"DPool does not exist\");\r\n        require(dPool.remainingBalance > 0, \"no remaining balance in dPool\");\r\n        require(\r\n            msg.sender == dPool.creator ||\r\n                recipientsByDPoolId[msg.sender][dpId],\r\n            \"recipient is not registered in dPool\"\r\n        );\r\n\r\n        uint256 cBalance = balanceOf(dpId, msg.sender);\r\n\r\n        require(cBalance >= amount, \"requested higher amount than remains\");\r\n\r\n        (bool result, uint256 newRemainingBalance) = SafeMath.trySub(\r\n            dPool.remainingBalance,\r\n            amount\r\n        );\r\n        require(result, \"remainging balance calculation failed\");\r\n\r\n        dPool.remainingBalance = newRemainingBalance;\r\n\r\n        withdrawFromContract(dPool.tokenAddress, dPool.dVType, amount, amount);\r\n\r\n        if (dPool.remainingBalance == 0) {\r\n            delete dPools[dpId];\r\n            delete recipientsByDPoolId[msg.sender][dpId];\r\n        }\r\n\r\n        emit WithdrawFromDPool(\r\n            dpId,\r\n            msg.sender,\r\n            amount,\r\n            dPool.remainingBalance\r\n        );\r\n\r\n        return true;\r\n    }\r\n\r\n    /*\r\n     * @notice Deletes dPool for given dpId and send remaining balance to creator\r\n     */\r\n    function deleteDPool(uint256 dpId) external returns (bool) {\r\n        Stream.DPool memory dPool = dPools[dpId];\r\n        require(dPool.isCreated, \"DPool does not exist\");\r\n        require(\r\n            msg.sender == dPool.creator ||\r\n                recipientsByDPoolId[msg.sender][dpId],\r\n            \"deletion of dPool is not allowed\"\r\n        );\r\n\r\n        uint256 dPoolBalance = balanceOf(dpId, dPool.creator);\r\n\r\n        if (dPoolBalance > 0) {\r\n            withdrawFromContract(\r\n                dPool.tokenAddress,\r\n                dPool.dVType,\r\n                dPoolBalance,\r\n                dPoolBalance\r\n            );\r\n        }\r\n\r\n        transferRecipientBalances(dPool);\r\n\r\n        // TODO delete creator pool id !!!!\r\n\r\n        uint256[] storage creatorPoolIds = dPoolIdsByCreator[msg.sender];\r\n\r\n        if (creatorPoolIds.length == 0) {\r\n            delete dPoolIdsByCreator[msg.sender];\r\n        }\r\n        delete dPools[dpId];\r\n        delete recipientsByDPoolId[msg.sender][dpId];\r\n\r\n        emit DeleteDPool(dpId, dPool.creator, dPool.recipients, dPoolBalance);\r\n\r\n        return true;\r\n    }\r\n\r\n    function deleteRecipientFromDPool(uint256 dpId, address recipient)\r\n        external\r\n        returns (bool)\r\n    {\r\n        Stream.DPool memory dPool = dPools[dpId];\r\n        require(dPool.isCreated, \"DPool does not exist\");\r\n        require(\r\n            recipientsByDPoolId[msg.sender][dpId],\r\n            \"deletion of dPool is not allowed\"\r\n        );\r\n\r\n        uint256 dPoolBalance = balanceOf(dpId, recipient);\r\n        withdrawFromContract(\r\n            dPool.tokenAddress,\r\n            dPool.dVType,\r\n            dPoolBalance,\r\n            dPoolBalance\r\n        );\r\n\r\n        emit DeleteRecipientsFromDPool(\r\n            dpId,\r\n            dPool.creator,\r\n            recipient,\r\n            dPoolBalance\r\n        );\r\n\r\n        return true;\r\n    }\r\n\r\n    function transferRecipientBalances(Stream.DPool memory dPool) internal {\r\n        for (uint256 i = 0; i < dPool.recipients.length; i++) {\r\n            uint256 recipientBalance = balanceOf(\r\n                dPool.dPoolId,\r\n                dPool.recipients[i]\r\n            );\r\n\r\n            if (recipientBalance > 0) {\r\n                withdrawFromContract(\r\n                    dPool.tokenAddress,\r\n                    dPool.dVType,\r\n                    recipientBalance,\r\n                    recipientBalance\r\n                );\r\n            }\r\n        }\r\n    }\r\n\r\n    function toWei(uint256 balance) internal pure returns (uint256) {\r\n        return balance * 10**18;\r\n    }\r\n\r\n    fallback() external payable {}\r\n\r\n    receive() external payable {}\r\n}\r\n",
  "sourcePath": "C:\\Users\\Magomed\\Desktop\\Test_blockchain_Project\\consensys_projects\\blockchain-developer-bootcamp-final-project\\contracts\\DecentralizedPools.sol",
  "compiler": {
    "name": "solc",
    "version": "0.8.0+commit.c7dfd78e.Emscripten.clang"
  },
  "schemaVersion": "3.4.3",
  "updatedAt": "2021-11-16T18:16:04.591Z",
  "devdoc": {
    "kind": "dev",
    "methods": {},
    "version": 1
  },
  "userdoc": {
    "kind": "user",
    "methods": {},
    "version": 1
  }
}